:100000000C9409220C943A220C943A220C943A2231
:100010000C943A220C943A220C943A220C943A22F0
:100020000C943A220C943A220C943A220C943A22E0
:100030000C943A220C943A220C943A220C943A22D0
:100040000C943A220C94B9C80C943A220C943A229B
:100050000C943A220C943A220C949DC10D94AC1A43
:100060000C943A220C94B5740C94AB740C943A2210
:100070000C943A220C943A220C943A220C943A2290
:100080000C94A83C0C943A220C943A220C943A22F8
:100090000C943A220C943A220C943A220D94FF20AC
:1000A0000C943A220C943A220C947A3C0C943A2206
:1000B0000C943A220C943A220C943A220C944C3C24
:1000C0000C943A220C943A220C943A220C943A2240
:1000D0000C943A220C943A220C943A220C943A2230
:1000E0000C943A22084AD73B3BCE016E84BCBFFD3C
:1000F000C12F3D6C74319ABD56833DDA3D00C77FF8
:1001000011BED9E4BB4C3E916BAAAABE0000008090
:100110003F05A84CCDB2D44EB93836A9020C50B91F
:10012000918688083CA6AAAA2ABE000000803F004B
:100130000C94B0760C94A49C0C9429AC0C94547739
:100140000D94A3190C9485760C94C9760C94CF2F3A
:100150000C94E0220C9468220C9465F70C94737A4A
:100160000C94139B0C94FE290C94FB220D947C1888
:100170000C94BA780C94927C0D94CB190C94BD2FEE
:100180000D94C1190C94BE380C94C0250C94C3A5D1
:100190000C942E250C945A770C9437A40C94FAF8EE
:1001A0000C94CC220C94DAB60C9412990C9408A1FD
:1001B0000C9423350C94F5F50C94F0930C94547A2C
:1001C0000C947C220D9494190C94AB2F0C94CCF5C8
:1001D0000C94729C0D9480190C94F9F50C94447E47
:1001E0000C94357E0C94D3F50C94DD250C94E89397
:1001F0000C94C8290C941BA10C9430950C943C8051
:100200000C94E47E0C94977C0C9447820C948D7C27
:100210000D946E190C9409230C94F7A00C943A7E5B
:100220000C94D52F0C94DD800C94E62D0D948A1936
:100230000C9499760C94D8930C94F1F50C94512667
:100240000C9414A10D945C190C9404B10C9440AE60
:100250000C94D0F50C940BA10D9497180C9441F9C3
:100260000C9403F60C94D9F50D94D5190C941EA199
:100270000C94C4F50C9462760C9411A10C94A52FE7
:100280000C942CF60C9490220D9492250C9489A732
:100290000C9419A10C94A5820C943D7F0C94E9F860
:1002A0000C942FA10C94D2290C948B790C943426A5
:1002B0000C94C2780C94C7760C944D8C0C94B8397D
:1002C0000C94FA250C9410820C94E8F80D943B19C8
:1002D0000C94B72F0C9449AB0C94FFF50C9414F9C3
:1002E0000D94EB180C94D3890C940C230D94B7192E
:1002F0000C94F8930C9410230C944E770D94F518ED
:100300000C9448280C9477B50C945D760C94C92F06
:100310000D9448190C9420AF0C9461860C9473844E
:100320000C9420940C94E0930C94EBF80D94D41856
:100330000C94EBF50C9466770C940DF90C94A57A5B
:100340000C94E3F50C94B27F0C9410940C94992FB8
:100350000C949DF50D94AD190C94B12F0C94BC78B0
:100360000C94EAF80C9460770C94EE220C949C2E7A
:100370000C9492760D9400190C94169B0C940F23F8
:100380000C945F260C9400940D9443190C94C8F5BA
:100390000C9402A10C948C7A0C940EA10D94D91893
:1003A0000C94A4220C94BEF50D94E5180C940894BA
:1003B0000C9417260C941AA90C943C220C94887C5B
:1003C0000C94E7F50D9452190C94C32F0C945826F5
:1003D0000C949C7C0D9466190C9405A10C94B82285
:1003E0000C9418940C943F7E0C94DDF50C949F2F84
:1003F0000D9476190C949EF50C9452220D9474254C
:100400000C94FEF54E414E494E495459494E46CD45
:10041000CCCC3D0AD7233C17B7D13877CC2B3295BB
:1004200095E6241FB14F0A000020410000C8420099
:10043000401C4620BCBE4CCA1B0E5AAEC59D740063
:10044000407A10F35A00A0724E18090010A5D4E8A3
:100450000000E87648170000E40B54020000CA9A36
:100460003B000000E1F50500008096980000004088
:10047000420F000000A086010000001027000000CD
:1004800000E803000000006400000000000A000013
:100490000000000100000000002C76D888DC674FC7
:1004A0000823DFC1DFAE59E1B1B796E5E3E453C6F7
:1004B0003AE651997696E8E6C28426EB898C9B62EF
:1004C000ED407C6FFCEFBC9C9F40F2BAA56FA5F499
:1004D00090055A2AF75C936B6CF9676DC11BFCE0C1
:1004E000E40D47FEF520E6B500D0ED902E03009414
:1004F0003577050080841E080000204E0A000000A9
:10050000C80C333333330F986E12831141EF8D21B2
:1005100014893BE65516CFFEE6DB18D1844B381B19
:10052000F77C1D901DA4BBE424203284725E2281DE
:1005300000C9F124ECA1E53D27434F4D4D554E49EF
:10054000434154494F4E0044525952554E00455272
:10055000524F525300494E464F004543484F0045C5
:1005600072726F722077726974696E6720746F207F
:10057000454550524F4D210A00363726033C3D3841
:100580000E2E303E121A1C1808440AFF43080900B8
:1005900001627573793A2070617573656420666FC6
:1005A0007220696E7075740A00627573793A2070F2
:1005B000617573656420666F7220757365720A00D9
:1005C000627573793A2070726F63657373696E67D1
:1005D0000A004B494C4C2063617573656420627955
:1005E000204B494C4C20627574746F6E2F70696E8D
:1005F0000A004B494C4C2063617573656420627935
:1006000020746F6F206D75636820696E6163746913
:1006100076652074696D65202D2063757272656E34
:100620007420636F6D6D616E643A2000506C65617B
:100630007365207265736574005052494E5445527B
:100640002048414C544544004B494C4C45442E20D5
:10065000005072696E7465722068616C7465642EF6
:10066000206B696C6C28292063616C6C6564210ABD
:100670000053544F505045442E20005072696E7400
:1006800065722073746F7070656420647565207482
:100690006F206572726F72732E20466978207468BD
:1006A00065206572726F7220616E642075736520BB
:1006B0004D39393920746F20726573746172742EEC
:1006C000202854656D706572617475726520697358
:1006D0002072657365742E205365742069742061DF
:1006E000667465722072657374617274696E6729CD
:1006F0000A006563686F3A004572726F723A004291
:10070000696C696E656172204C6576656C696E67AF
:1007100020477269643A0A0053544F502063616C59
:100720006C65642062656361757365206F66204245
:100730004C546F756368206572726F72202D207241
:100740006573746172742077697468204D39393922
:100750000A0053544F502063616C6C6564206265DD
:100760006361757365206F6620424C546F756368D2
:10077000206572726F72202D2072657374617274BD
:100780002077697468204D3939390A00486F7465DB
:100790006E6420746F6F20636F6C640A004F46466E
:1007A0000A004661646520486569676874200042F4
:1007B0006564204C6576656C696E672000466169EA
:1007C0006C656420746F20656E61626C65204265A3
:1007D00064204C6576656C696E670A00496E7661C7
:1007E0006C6964206D6573682E0A00202844525994
:1007F00052554E2900473239204175746F204265A9
:1008000064204C6576656C696E67003F20284C2C2F
:10081000522C462C4229206F7574206F6620626F1F
:10082000756E64732E0A003F2856296572626F73D5
:1008300065206C6576656C20697320696D706C61EC
:10084000757369626C652028302D34292E0A0042A8
:100850006164205A2076616C75650A004E6F2062D3
:10086000696C696E65617220677269640A004D3651
:1008700030303A20546F6F20636F6C6400486F749F
:10088000656E6420746F6F20636F6C640A00496E3C
:10089000736572742066696C616D656E7420616E3B
:1008A0006420707265737320627574746F6E0A00D1
:1008B000507265737320627574746F6E20746F204C
:1008C00068656174206E6F7A7A6C650A00496E7390
:1008D0006572742066696C616D656E7420616E640A
:1008E00020707265737320627574746F6E20286F48
:1008F00072204D313038290A004D32342053256C96
:10090000642054256C64004D323320257300473930
:10091000322E392045257300473120462564004793
:1009200039322E39205A2573004731205A3020465B
:100930003230300047312058257320592573204626
:1009400033303030004D34323020532569205A2561
:1009500073004D3130362050256920532569004DF4
:1009600031303920532569004D3139302053256904
:10097000004739322E392045305A300A47315A3231
:100980000A47323852305859004D343230205330F3
:10099000205A300020496E76616C69642065787455
:1009A00072756465722000536C6565702E2E2E0082
:1009B000486F6D652058592066697273740A004843
:1009C0006F6D6520585920666972737400205A3A19
:1009D000200020593A200042656420583A20004DFA
:1009E00065736820706F696E742063616E6E6F74DA
:1009F000206265207265736F6C7665640A00436CD3
:100A000069636B20746F20726573756D652E2E2E71
:100A1000004E6F206D6F76652E00456E642066690E
:100A20006C65206C6973740A00426567696E2066A4
:100A3000696C65206C6973740A00286E6F206669A2
:100A40006C65290043757272656E742066696C6509
:100A50003A20005344207072696E74696E67206298
:100A600079746520004E6F74205344207072696E53
:100A700074696E670A005072696E742074696D65DE
:100A80003A20000A53746174733A2046696C616DB0
:100A9000656E7420757365643A20002C204C6F6E6F
:100AA00067657374206A6F623A2000546F74616CDA
:100AB0002074696D653A200053746174733A2000A4
:100AC0002C204661696C65643A20002C2046696ED2
:100AD00069736865643A20005072696E74733A20D5
:100AE0000053746174733A20004520436F6F6C6942
:100AF0006E672E2E2E00452048656174696E672E44
:100B00002E2E006F6666005A0555054E05470539BD
:100B10000544454255473A004D3131332053006F6B
:100B20006B0043522D32302050726F204F46462EBC
:100B3000004348414D4245525F54454D5045524156
:100B400054555245004D4F54494F4E5F4D4F44450B
:100B50005300544845524D414C5F50524F54454309
:100B600054494F4E004155544F5245504F52545FD7
:100B700053445F5354415455530050524F4D5054B9
:100B80005F535550504F525400454D455247454EC6
:100B900043595F50415253455200434153455F4CC6
:100BA000494748545F4252494748544E45535300C1
:100BB000544F47474C455F4C494748545300534FA7
:100BC0004654574152455F504F5745520042554990
:100BD0004C445F50455243454E54004C4556454C9D
:100BE000494E475F44415441005A5F50524F42457D
:100BF000004155544F4C4556454C005052494E54B7
:100C00005F4A4F420050524F47524553530041559F
:100C1000544F5245504F52545F54454D5000564F1B
:100C20004C554D455452494300454550524F4D0097
:100C300042494E4152595F46494C455F5452414EDC
:100C4000534645520053455249414C5F584F4E5F01
:100C5000584F4646004649524D574152455F4E4116
:100C60004D453A4D61726C696E2076322E33202DDF
:100C700020353835383420287072696E7420455418
:100C800041202B206E656761746976652076616C02
:100C9000756520737570706F72742920534F5552AB
:100CA00043455F434F44455F55524C3A68747470F6
:100CB000733A2F2F6769746875622E636F6D2F4DBD
:100CC00061726C696E4669726D776172652F4D61F4
:100CD000726C696E2050524F544F434F4C5F5645D3
:100CE0005253494F4E3A312E30204D414348494EE0
:100CF000455F545950453A43522D32302050726F5F
:100D00002045585452554445525F434F554E543A2E
:100D10003120555549443A63656465326132662D28
:100D2000343161322D343734382D396231322D630C
:100D300035356336326633363766660A002F2F2024
:100D4000004D31343520533C696E6465783E206F28
:100D50007574206F662072616E67652028302D31B2
:100D6000290A00205400205200416363656C6572BB
:100D70006174696F6E3A2050005741524E494E4798
:100D800021204C6F77205A204A65726B206D617963
:100D9000206C65616420746F20756E77616E746578
:100DA00064207061757365732E0A00205A00205903
:100DB00000580020204D61783A2000205A00205928
:100DC00000580020204D696E3A2000536F66742051
:100DD000656E6473746F70733A200020466C6F7791
:100DE0003A200050726F7465637465642050696EB8
:100DF0000A003A200020536572766F2000206F753C
:100E000074206F662072616E67650A0053657276A2
:100E10006F200050726F6265205A204F66667365BE
:100E2000743A200020643A0020693A0020703A00A9
:100E3000496E76616C696420657874727564657258
:100E40000A0064697300656E0043290A0061626CE0
:100E5000656420286D696E2074656D702000436F95
:100E60006C642065787472756465732061726520A6
:100E7000004D65736820706F696E742063616E6EDB
:100E80006F74206265207265736F6C7665640A000A
:100E90004D34323120696E636F72726563742070F5
:100EA0006172616D657465722075736167650A00B2
:100EB0004F666673657473206170706C6965640059
:100EC0004572723A20546F6F206661722100546F30
:100ED0006F206661722066726F6D20726566657242
:100EE000656E636520706F696E740A0045455052E7
:100EF0004F4D204F4B0A003F5A206F7574206F668C
:100F00002072616E676520282D323020746F203288
:100F100030290A0050726F6265205A204F6666734E
:100F200065743A20003F4B2076616C7565206F75C3
:100F300074206F662072616E67652028302D313015
:100F4000292E0A00416476616E6365204B3D0043A3
:100F5000617365206C696768743A2000436173654A
:100F6000206C696768743A206F66660A004F4646CF
:100F7000004F4E00506F7765722D6C6F7373207247
:100F800065636F766572792000496E76616C69647D
:100F90002065787472756465720A004361703A0066
:100FA00047322F47332062616420706172616D6542
:100FB000746572730A00220A00656E717565756545
:100FC000696E672022006F6B00526573656E643A2C
:100FD000200053544F505045442E20005072696EEB
:100FE0007465722073746F70706564206475652019
:100FF000746F206572726F72732E20466978207448
:101000006865206572726F7220616E642075736509
:10101000204D39393920746F207265737461727490
:101020002E202854656D7065726174757265206933
:10103000732072657365742E205365742069742063
:1010400061667465722072657374617274696E672B
:10105000290A004E6F20436865636B73756D2077B6
:10106000697468206C696E65206E756D6265722C9E
:10107000204C617374204C696E653A20004E6F20DD
:10108000436865636B73756D2077697468206C695C
:101090006E65206E756D6265722C204C61737420D4
:1010A0004C696E653A2000636865636B73756D20EB
:1010B0006D69736D617463682C204C617374204C8E
:1010C000696E653A20004C696E65204E756D6265EB
:1010D00072206973206E6F74204C617374204C69A8
:1010E0006E65204E756D6265722B312C204C6173DC
:1010F00074204C696E653A20004D313130004D331B
:10110000310053442072656164206572726F720A07
:1011100000446F6E65207072696E74696E67206638
:10112000696C650A002569730025696D202569735E
:10113000002569682025696D20256973002569648B
:10114000202569682025696D202569730025697946
:1011500020256964202569682025696D202569732B
:101160000020573A0042656420636F6F6C696E67B8
:101170002E2E2E004265642068656174696E672EAC
:101180002E2E0023646566696E65204445464155F0
:101190004C545F004B6420004B6920004B702000D2
:1011A000504944204175746F74756E652066696E90
:1011B0006973686564212050757420746865206CBB
:1011C000617374204B702C204B6920616E64204B3E
:1011D0006420636F6E7374616E74732066726F6DDA
:1011E0002062656C6F7720696E746F20436F6E6646
:1011F000696775726174696F6E2E680A00504944A0
:10120000204175746F74756E65206661696C6564E4
:10121000212074696D656F75740A0045312054484A
:1012200045524D414C2052554E415741590054684A
:1012300065726D616C2052756E6177617900453120
:101240002048656174696E67206661696C65640039
:1012500048656174696E67206661696C65640050F9
:101260004944204175746F74756E65206661696CC0
:101270006564212054656D706572617475726520B6
:10128000746F6F20686967680A00204B643A200019
:10129000204B693A2000204B703A20000A20436C12
:1012A000617373696320504944200A002054753AE1
:1012B0002000204B753A2000206D61783A200020F4
:1012C0006D696E3A200020643A20002062696173E3
:1012D0003A2000504944204175746F74756E652042
:1012E00073746172740A00504944204175746F74BC
:1012F000756E65206661696C6564212054656D704A
:101300006572617475726520746F6F2068696768B3
:101310000A00504944204175746F74756E652066EB
:1013200061696C656421204261642065787472751E
:10133000646572206E756D6265720A004572723A5C
:10134000207574663820666F6E74206E6F74206925
:101350006E697469616C697A65642E004572723ACF
:10136000207574663820666F6E74206E6F74206905
:101370006E697469616C697A65642E004572723AAF
:10138000207574663820666F6E74206E6F742069E5
:101390006E697469616C697A65642E0025753A25F9
:1013A00030327500253032753A253032750025759A
:1013B0006420253032753A253032750050726F62E4
:1013C00065205A204F66667365740000060C00FEA7
:1013D00007022603BC017FFE08FE08FE050808067A
:1013E000000040F0C88888987810050808060000BA
:1013F000C0F88888888888F805050506000120302F
:10140000F830200508080600002070F82020202071
:10141000E00509090600FF2070A8A8B88888702098
:10142000050606060001E08CEA8C8A0A0509090611
:1014300000FFF8A88888888888A8F8050A0A0600A6
:10144000FE205050505088A8A8887003030306005F
:101450000340A040FFFFFFFFFFFFFFFFFFFFFFFF75
:10146000FFFFFFFFFFFFFFFFFFFF0000000605FF7C
:10147000010707060200808080808000800303034C
:10148000060105A0A0A005060606000050F8505071
:10149000F8500509090600FF2070A8A07028A87060
:1014A00020050707060000C8C810204098980507C7
:1014B0000706000040A0A040A890680103030602B0
:1014C000058080800309090601FF2040408080805C
:1014D0004040200309090601FF80404020202040B1
:1014E000408005070706000020A8702070A820058E
:1014F00005050600012020F820200203030601FF55
:10150000C04080050101060003F802020206010046
:10151000C0C00507070600000810102040408005E5
:101520000707060000708898A8C888700307070698
:10153000010040C040404040E00507070600007041
:101540008808102040F8050707060000F80810304A
:1015500008887005070706000010305090F810103A
:10156000050707060000F880F008088870050707DF
:10157000060000304080F0888870050707060000EC
:10158000F808101020202005070706000070888842
:101590007088887005070706000070888878081032
:1015A00060020505060100C0C000C0C002060606B4
:1015B00001FFC0C000C040800305050601012040B6
:1015C000804020050303060002F800F80305050625
:1015D0000101804020408005070706000070881048
:1015E000202000200507070600007088B8A8B880F2
:1015F00070050707060000708888F8888888050746
:1016000007060000F04848704848F0050707060044
:101610000070888080808870050707060000F04809
:1016200048484848F0050707060000F88080F08029
:1016300080F8050707060000F88080F080808005AC
:1016400007070600007088808098887005070706E5
:101650000000888888F8888888030707060100E06A
:101660004040404040E005070706000038101010D9
:101670001090600507070600008890A0C0A0908821
:10168000050707060000808080808080F805070736
:1016900006000088D8A88888888805070706000003
:1016A0008888C8A898888805070706000070888879
:1016B00088888870050707060000F08888F0808019
:1016C0008005070706000070888888A890680507CD
:1016D00007060000F08888F0A0908805070706003C
:1016E0000070888070088870050707060000F820E1
:1016F0002020202020050707060000888888888889
:1017000088700507070600008888888850502005E3
:10171000070706000088888888A8A85005070706DC
:101720000000888850205088880507070600008838
:10173000885020202020050707060000F808102008
:101740004080F80309090601FFE0808080808080E6
:1017500080E00507070600008040402010100803C5
:1017600009090601FFE020202020202020E00503B9
:10177000030600052050880501010600FEF803035A
:101780000306010580402005050506000070087865
:1017900088780507070600008080F0888888F005B3
:1017A00005050600007080808870050707060000A8
:1017B000080878888888780505050600007088F094
:1017C0008070050707060000304840E040404005B3
:1017D00007070600FE7088888878087005070706E6
:1017E00000008080F0888888880307070601004091
:1017F00000C0404040E00409090601FE100030101E
:10180000101010906005070706000080808890E0A7
:101810009088030707060100C04040404040E005B3
:101820000505060000D0A8A8A8A805050506000023
:10183000B0C888888805050506000070888888700B
:101840000507070600FEF0888888F08080050707F6
:101850000600FE78888888780808050505060000D7
:10186000B0C880808005050506000078807008F00B
:101870000507070600002020F82020201805050590
:101880000600008888889868050505060000888895
:101890008850200505050600008888A8A850050581
:1018A0000506000088502050880507070600FE88BE
:1018B000888850204080050505060000F81020406B
:1018C000F80309090601FF204040408040404020C5
:1018D0000109090602FF808080808080808080036B
:1018E00009090601FF804040402040404080050338
:1018F0000306000248A890FF00060900FE060189C1
:1019000002FE20FFFE07FE06FE00000006000701A3
:101910000606060200808080800080030303060123
:1019200003A0A0A00507070600FF5050F850F8508C
:10193000500509090600FE2070A8A07028A8702094
:101940000608080600FF40A848102048540805076C
:10195000070600FF609090609890680103030602FC
:10196000038080800207070602FF4080808080801D
:10197000400207070602FF804040404040800505C6
:10198000050600008850F85088050505060000206F
:1019900020F820200204040602FEC0404080050119
:1019A00001060002F8020202060200C0C004060698
:1019B0000601001010204080800406060601006029
:1019C000909090906003060606010040C0404040A1
:1019D000E00406060601006090102040F0040606B0
:1019E000060100F020601010E00506060600001059
:1019F000305090F810040606060100F080E0101048
:101A0000E00406060601006080E09090600406068F
:101A1000060100F010102040400406060601006098
:101A2000906090906004060606010060909070102F
:101A300060020505060200C0C000C0C0020707061C
:101A400002FEC0C000C04040800505050600001829
:101A500060806018050303060001F800F80505051D
:101A6000060000C0300830C004070706010060907F
:101A700010604000400506060600007090A8B08087
:101A800070050606060000205088F88888050606BE
:101A9000060000F088F08888F00406060601006061
:101AA0009080809060040606060100E0909090907F
:101AB000E0040606060100F080E08080F0040606DF
:101AC000060100F080E080808004060606010060C8
:101AD0009080B090600406060601009090F090900F
:101AE00090030606060100E040404040E00506067F
:101AF00006000038101010906004060606010090E1
:101B0000A0C0A0909004060606010080808080801E
:101B1000F005060606000088D8A8A88888040606EE
:101B200006010090D0B09090900506060600007067
:101B30008888888870040606060100E09090E0809E
:101B4000800407070601FF609090D0B06010040683
:101B500006060100E09090E0909004060606010061
:101B6000609040209060050606060000F8202020C6
:101B700020200406060601009090909090600406D4
:101B800006060100909090F06060050606060000D1
:101B90008888A8A8D8880506060600008850202056
:101BA000508805060606000088885020202004067C
:101BB00006060100F010204080F003060606010032
:101BC000E080808080E004060606010080804020DE
:101BD0001010030606060100E020202020E0050387
:101BE000030600032050880501010600FEF80202EA
:101BF0000206020480400404040601007090907004
:101C00000406060601008080E09090E004040406CB
:101C100001007080807004060606010010107090AC
:101C2000907004040406010060B0C070040606064B
:101C30000100205040E040400406060601FE60908E
:101C4000907010600406060601008080E09090907D
:101C50000306060601004000C04040E003080806F5
:101C600001FE200060202020A0400406060601009E
:101C70008080A0C0A090030606060100C04040403E
:101C800040E0050404060000D0A8A8880404040667
:101C90000100E090909004040406010060909060C0
:101CA0000406060601FEE09090E080800406060629
:101CB00001FE709090701010040404060100A0D082
:101CC000808004040406010070C030E004060606AB
:101CD00001004040E04050200404040601009090C0
:101CE00090700404040601009090606005040406EE
:101CF000000088A8A85004040406010090606090C9
:101D00000406060601FE909090709060040404069C
:101D10000100F02040F0030707060100204040804A
:101D20004040200107070602FF808080808080807D
:101D30000307070601008040402040408004020263
:101D400006010350A0FFFFFFFFFFFFFFFFFFFFFFA4
:101D5000FFFFFFFFFFFFFFFFFFFFFFFFFFFFFFFF93
:101D6000FFFFFFFFFFFF0000000600070106060659
:101D700002008000808080800406060601FF20703B
:101D8000A0A070200507070600FF304840F0404043
:101D9000F8050505060000A8508850A805060606A7
:101DA00000008850F820F8200107070602FF808015
:101DB00080008080800407070601FF7080609060CB
:101DC00010E0030101060105A006070706000078E0
:101DD0008494A494847803050506010160A0600042
:101DE000E00505050600002850A05028040303065E
:101DF0000100F01010040101060102F006070706B9
:101E000000007884B4A4A48478040101060105F0DC
:101E10000403030601026090600507070600FF2027
:101E200020F8202000F803050506010140A020400D
:101E3000E0030505060101C0204020C002020206A1
:101E4000020440800405050601FF9090B0D0800593
:101E5000060606000078E8E8682828010101060265
:101E600002800202020602FE40800305050601010F
:101E700040C04040E003050506010140A04000E0ED
:101E8000050505060000A0502850A005080806001A
:101E9000FF40C04050703078100508080600FF4031
:101EA000C04050680810380508080600FFC02040F0
:101EB00030F0307810040707060100200020608011
:101EC00090600507070600004020205070888805B4
:101ED00007070600001020205070888805070706B5
:101EE0000000205020507088880507070600002851
:101EF00050205070888805070706000050002050C9
:101F000070888805070706000020502050708888D8
:101F100005060606000078A0F0A0A0B80408080690
:101F200001FE609080809060204004070706010059
:101F30004020F080E080F00407070601002040F018
:101F400080E080F00407070601002050F080E08068
:101F5000F00407070601005000F080E080F003075E
:101F6000070601008040E0404040E003070706010B
:101F7000002040E0404040E003070706010040A089
:101F8000E0404040E0030707060100A000E04040B9
:101F900040E00506060600007048E848487004075F
:101FA0000706010050A090D0B090900407070601EA
:101FB00000402060909090600407070601002040D8
:101FC0006090909060040707060100205060909098
:101FD000906004070706010050A060909090600494
:101FE0000707060100500060909090600505050607
:101FF000000088502050880408080601FF1070B0C7
:10200000B0D0D0E0800407070601004020909090F7
:1020100090600407070601002040909090906004B3
:102020000707060100205090909090600407070673
:102030000100500090909090600507070600001086
:1020400020885020202004060606010080E09090A1
:10205000E0800406060601006090A0A090A004079E
:1020600007060100402000709090700407070601E9
:102070000020400070909070040707060100205077
:10208000007090907004070706010050A000709047
:1020900090700406060601005000709090700407CE
:1020A000070601002050207090907005040406007F
:1020B0000070A8B0780406060601FE7080807020CB
:1020C0004004070706010040200060B0C07004070C
:1020D0000706010020400060B0C070040707060139
:1020E0000020500060B0C0700406060601005000D9
:1020F00060B0C070030707060100804000C0404088
:10210000E0030707060100204000C04040E003074D
:102110000706010040A000C04040E003060606019B
:1021200000A000C04040E004070706010030601036
:102130007090906004070706010050A000E09090A6
:10214000900407070601004020006090906004079B
:102150000706010020400060909060040707060118
:10216000002050006090906004070706010050A016
:102170000060909060040606060100500060909098
:10218000600505050600002000F800200404040690
:10219000010070B0D0E00407070601004020009065
:1021A0009090700407070601002040009090907006
:1021B0000407070601002050009090907004060666
:1021C0000601005000909090700409090601FE205D
:1021D00040009090907090600408080601FE808096
:1021E000E09090E080800408080601FE5000909086
:1021F000907090604C6F6164206D6D004C6F6164F5
:10220000206D6D00556E6C6F6164206D6D00556EB4
:102210006C6F6164206D6D0046696C2E20446961AD
:102220002E0046696C2E204469612E004F666600C0
:102230004F6E004520696E206D6D5E3300416476FF
:10224000616E6365204B00416476616E6365204B6F
:1022500000416476616E6365642053657474696ED1
:102260006773004D333033205531204525692053A5
:10227000256900504944204175746F74756E65007E
:10228000504944204175746F74756E65005049441F
:102290002D44005049442D44005049442D490050DC
:1022A00049442D49005049442D50005049442D5077
:1022B0000020082046616374002008204661637492
:1022C000002008204D6178002008204D6178002012
:1022D00008204D696E002008204D696E004F66662B
:1022E000004F6E004175746F74656D7000416476C7
:1022F000616E6365642053657474696E677300561C
:1023000054726176206D696E005654726176206D4C
:10231000696E00566D696E00566D696E00566D618E
:1023200078204500566D6178204500566D61782013
:102330005A00566D6178205A00566D617820590018
:10234000566D6178205900566D6178205800566DA1
:102350006178205800416476616E6365642053653E
:102360007474696E677300416D6178204500416D3A
:102370006178204500416D6178205A00416D617897
:10238000205A00416D6178205900416D61782059D3
:1023900000416D6178205800416D617820580041FE
:1023A0002D74726176656C00412D74726176656C76
:1023B00000412D7265747261637400412D72657401
:1023C0007261637400416363656C00416363656CB3
:1023D00000416476616E6365642053657474696E50
:1023E00067730056652D6A65726B0056652D6A65C8
:1023F000726B00567A2D6A65726B00567A2D6A658B
:10240000726B0056792D6A65726B0056792D6A657C
:10241000726B0056782D6A65726B0056782D6A656E
:10242000726B00416476616E6365642053657474F9
:10243000696E6773004573746570732F6D6D004529
:1024400073746570732F6D6D005A73746570732F9C
:102450006D6D005A73746570732F6D6D00597374D0
:102460006570732F6D6D005973746570732F6D6D8A
:10247000005873746570732F6D6D005873746570B8
:10248000732F6D6D00416476616E636564205365E2
:102490007474696E6773003F00496E697469616C9A
:1024A000697A6520454550524F4D0043616E636522
:1024B0006C00496E6974004D34323800496E69749D
:1024C00069616C697A6520454550524F4D004669F7
:1024D0006C616D656E740054656D706572617475C4
:1024E00072650053746570732F6D6D004A65726B71
:1024F00000416363656C65726174696F6E00566557
:102500006C6F636974790053657420686F6D652022
:102510006F666673657473004F6666004F6E0041A8
:102520006C6C6F77204E6567617469766500436FE8
:102530006E66696775726174696F6E00436D643AA7
:102540002053746F7700436D643A204465706C6F5C
:102550007900436D643A2053656C662D546573743D
:1025600000436D643A2053572D4D6F646500436DF1
:10257000643A20526573657400436F6E66696775CF
:10258000726174696F6E004F6666004F6E00436142
:102590007365206C69676874004C696768742042D1
:1025A00072696768746E657373004C69676874203C
:1025B0004272696768746E65737300436F6E666913
:1025C0006775726174696F6E0053746F7265207302
:1025D000657474696E6773004265640042656400E7
:1025E0004E6F7A7A6C65004E6F7A7A6C6500466140
:1025F0006E2073706565640046616E20737065655A
:102600006400436F6E66696775726174696F6E000E
:102610004C6F61642073657474696E6773005265F2
:1026200073746F7265206661696C736166650053CF
:10263000746F72652073657474696E67730050728D
:102640006568656174205045544720636F6E66006D
:102650005072656865617420504C4120636F6E66EE
:10266000004F6666004F6E004F75746167652052BB
:1026700065636F766572790043617365206C696785
:10268000687400424C546F7563680050726F6265E5
:10269000205A204F666673657400416476616E63EC
:1026A00065642053657474696E6773004D61696E6B
:1026B000004D37303220542564004D3630302042F2
:1026C0003020542564004D373032203B2564004DC6
:1026D00037303120542564004368616E6765206699
:1026E000696C616D656E7400507265686561742017
:1026F000437573746F6D0050726568656174205026
:10270000455447005072656865617420504C410023
:102710005072656865617420437573746F6D004213
:1027200061636B00436F6E74696E756500507572FE
:102730006765206D6F726500524553554D45204FBA
:102740005054494F4E533A005052494E5420504134
:102750005553454400554E4C4F41442046494C4149
:102760004D454E54004C4F41442046494C414D4547
:102770004E540020204E6F7A7A6C653A200020007B
:102780005061726B696E672E2E2E00746F20737409
:102790006172740066696C616D656E742063686156
:1027A0006E6765005761697420666F720066696CB8
:1027B000616D656E7420756E6C6F61640057616940
:1027C0007420666F7200506C656173652077616973
:1027D000742E2E2E004E6F7A7A6C652068656174B7
:1027E000696E6700746F2068656174206E6F7A7A15
:1027F0006C6500507265737320627574746F6E003F
:10280000746F20636F6E74696E756500616E64200D
:10281000707265737320627574746F6E00496E73A5
:102820006572742066696C616D656E740066696CB2
:10283000616D656E74206C6F61640057616974200E
:10284000666F7200746F20726573756D65207072AB
:10285000696E7400507265737320627574746F6E64
:1028600000746F20726573756D652E2E2E00576192
:10287000697420666F72207072696E740066696C8C
:10288000616D656E7420707572676500576169745B
:1028900020666F72003E200045787472756465642E
:1028A00020746F74616C3A00256C642E25696D008C
:1028B0003E20004C6F6E67657374206A6F622074EF
:1028C000696D653A003E2000546F74616C2070722F
:1028D000696E742074696D653A00436F6D706C6544
:1028E0007465643A20005072696E7420436F756E8F
:1028F000743A20004D61782054656D703A20313271
:1029000030004D696E2054656D703A203500544298
:1029100065643A4550434F53203130304B004D6190
:10292000782054656D703A20333030004D696E2048
:1029300054656D703A20350054303A204550434F6D
:1029400053203130304B005053553A2047656E6567
:102950007269630050726F746F636F6C3A20312E2E
:102960003000426175643A203235303030300052E8
:10297000414D505320312E330042696C696E6561C0
:1029800072204C6576656C696E6700457874727567
:10299000646572733A203100687474703A2F2F6D39
:1029A00061726C696E66772E6F72670043522D32CA
:1029B000302050726F00323032362D30372D3133A7
:1029C0000052656473746F6E654D61737465723027
:1029D000310076322E33206973206372656174652D
:1029E000642062790076322E33202D203538353838
:1029F00034004D61726C696E005072696E7465725C
:102A000020537461747300546865726D6973746FD8
:102A1000727300426F61726420496E666F0050727B
:102A2000696E74657220496E666F004D61696E0053
:102A30004D313030300053746F70207072696E7495
:102A400000526573756D65207072696E74004F7504
:102A500074616765205265636F76657279003F0027
:102A600053746F70207072696E74004261636B0002
:102A700053746F70004D3235005072696E7420705F
:102A80006175736564005061757365207072696E5D
:102A900074004D3234005072696E742066726F6D2E
:102AA000205344004368616E67652053442063618E
:102AB0007264004D32310041626F7574205072694A
:102AC0006E746572004368616E67652066696C614B
:102AD0006D656E74004368616E67652066696C6140
:102AE0006D656E74004D36303020423000436F6E9D
:102AF00066696775726174696F6E0054656D7065A3
:102B0000726174757265004D6F74696F6E00526505
:102B100073756D65207072696E740054756E650012
:102B200053746F70207072696E74005061757365B4
:102B3000207072696E74004E6F205344206361727E
:102B40006400496E666F2073637265656E004D6F39
:102B500076652058004D6F76652059004D6F76657B
:102B6000205A0045787472756465720045787472F5
:102B700075646572004D6F7665205A004D6F7665FD
:102B80002059004D6F76652058004D6F74696F6E47
:102B90000044697361626C6520737465707065725E
:102BA00073004D3834004661646520486569676884
:102BB00074004661646520486569676874004F6603
:102BC00066004F6E00426564204C6576656C696EE8
:102BD00067004C6576656C20626564004732380A90
:102BE00047323900486F6D65205A00473238205A05
:102BF00000486F6D65205900473238205900486FF2
:102C00006D652058004732382058004175746F2098
:102C1000686F6D6500473238004D6F7665206178CA
:102C20006973004D61696E003F00537461727420D6
:102C30007072696E74200043616E63656C0050723F
:102C4000696E740043616E6E6F7420656E74657298
:102C5000207375626469723A2000022E2E004D6165
:102C6000696E005072656865617420504C41204265
:102C70006564005072656865617420504C41204560
:102C80006E64005072656865617420504C41005458
:102C9000656D706572617475726500507265686506
:102CA0006174205045544720456E64005072656839
:102CB0006561742050455447204265640050726538
:102CC0006865617420504554470054656D706572A5
:102CD000617475726500436F6F6C646F776E00503E
:102CE000726568656174205045544700507265688C
:102CF00065617420504C410046616E2073706565BB
:102D0000640046616E20737065656400426564000E
:102D1000426564004E6F7A7A6C65004E6F7A7A6C09
:102D200065004D61696E0050726F6265205A204FD8
:102D3000666673657400466C6F7700466C6F77004B
:102D400046616E2073706565640046616E20737025
:102D50006565640042656400426564004E6F7A7A7E
:102D60006C65004E6F7A7A6C65005370656564001F
:102D70005370656564004D61696E0043616C632E3C
:102D80000043616C632E001FE02010201020101003
:102D90002010202010201030300840048003001F35
:102DA000E03FF03FF03FF01FE01FE03FF03FF03F1B
:102DB000F00FC0078003003FFFF038007030FC3098
:102DC00020FC102078102030102C00D02E31D02F75
:102DD0007BD02F7BD02E31D02C00D020301020780B
:102DE0001020FC1030FC303800703FFFF03FFFF047
:102DF0003800703186302387102787902F87D02F97
:102E000003D02030102078102078102030102F03AD
:102E1000D02F87D0278790238710318630380070D5
:102E20003FFFF01FFFF81FFFF804104002082002C8
:102E300008200410400820801041001041000820A4
:102E4000800410400000001FFFF81FFFF84361726C
:102E5000642072656D6F76656400436172642069F9
:102E60006E7365727465640043522D323020507267
:102E70006F2052656164792E005072696E74696EBC
:102E8000672E2E2E005072696E7420706175736506
:102E900064005072696E742061626F7274656400C0
:102EA00000006B4300006B430000A04300000000E3
:102EB0000000000000000000454550524F4D2064C6
:102EC00061746173697A65206572726F722E0A008F
:102ED000290A002062797465733B206372632000C5
:102EE00053657474696E67732053746F72656420E0
:102EF00028004D6967726174696E672045455052BC
:102F00004F4D2073657474696E677320746F20561B
:102F100036380A00290A002062797465733B206301
:102F2000726320002073746F72656420736574741B
:102F3000696E6773207265747269657665642028AE
:102F400000202863616C63756C6174656429210AD3
:102F50000020213D2000454550524F4D2043524313
:102F6000206D69736D61746368202D202873746F00
:102F70007265642920002053697A653A2000496E01
:102F80006465783A2000204D61726C696E3D56365A
:102F900038290A00454550524F4D207665727369B5
:102FA0006F6E206D69736D617463682028454550AC
:102FB000524F4D3D0048617264636F646564204404
:102FC000656661756C742053657474696E677320EF
:102FD0004C6F616465640A00F4010000F4010000B4
:102FE00064000000E803000000007A4300007A4318
:102FF0000000A0400000C8410000A0420000A04224
:103000000000C8430000BA423A0A0020204D363082
:103010003320002055004C0046696C616D656E746C
:10302000206C6F61642F756E6C6F6164206C656ECF
:10303000677468733A0A0020204D393030204B0005
:103040004C696E65617220416476616E63653A0A0F
:103050000020204D383531205A005A2D50726F62B1
:1030600065204F66667365740020204D343133202F
:103070005300506F7765722D4C6F737320526563E8
:103080006F766572793A0A002044002049002020BA
:103090004D333031205000504944207365747469B9
:1030A0006E67733A0A002046002042002048002044
:1030B000204D3134352053004D6174657269616C67
:1030C0002068656174757020706172616D657465EA
:1030D00072733A0A00204A002020473239205720D4
:1030E0004900205A0020204D3432302053004175D1
:1030F000746F20426564204C6576656C696E673A32
:103100000A00205A0020590020204D323036205825
:1031100000486F6D65206F66667365743A0A00201B
:103120004500205A00205900205800205400205308
:103130000020204D32303520420020453C6D617822
:103140005F655F6A65726B3E0020583C6D61785F19
:10315000785F6A65726B3E20593C6D61785F795F7C
:103160006A65726B3E205A3C6D61785F7A5F6A6572
:10317000726B3E00416476616E6365643A20423C46
:103180006D696E5F7365676D656E745F74696D659B
:103190005F75733E20533C6D696E5F666565647252
:1031A0006174653E20543C6D696E5F747261766532
:1031B0006C5F66656564726174653E002054002032
:1031C000520020204D323034205000416363656C42
:1031D00065726174696F6E2028756E6974732F73E0
:1031E00032293A20503C7072696E745F6163636586
:1031F0006C3E20523C726574726163745F616363FC
:10320000656C3E20543C74726176656C5F616363EB
:10321000656C3E0A00204500205A002059002020FD
:103220004D3230312058004D6178696D756D204107
:103230006363656C65726174696F6E2028756E6971
:1032400074732F7332293A0A00204500205A002057
:10325000590020204D3230332058004D6178696D7F
:10326000756D206665656472617465732028756E7E
:103270006974732F73293A0A005374657073207050
:10328000657220756E69743A0A0020204D32303024
:103290002044300A0020204D3230302044002044A9
:1032A000697361626C65640A0046696C616D656E84
:1032B000742073657474696E67733A0020204D3111
:1032C00034392043203B20556E69747320696E2089
:1032D00043656C736975730A0020286D6D290020A1
:1032E00020473231202020203B20556E6974732006
:1032F000696E206D6D00486F6D696E67206661694B
:103300006C6564006F70656E0054524947474552C2
:103310004544003A20007A5F6D696E00795F6D69FF
:103320006E00785F6D696E005265706F7274696EC1
:103330006720656E6473746F702073746174757345
:103340000A00205A3A0020593A0020436F756E74E3
:1033500020583A0020453A00205A3A0020593A00B5
:10336000583A0020746F6F206C6F6E672065787418
:10337000727573696F6E2070726576656E746564C0
:103380000A0020636F6C6420657874727573696FCE
:103390006E2070726576656E7465640A00000000C8
:1033A000000000000000000000000048420000484B
:1033B00042000000415761726E696E673A20486FA3
:1033C0006D696E672042756D702044697669736F10
:1033D00072203C20310A000202040000A0400000DC
:1033E000A0400000004000006B4300006B43000061
:1033F000A043FFFFFF24F4D43050C38E20C2A2406C
:1034000017828B7011127A910D816CD90AA861E133
:1034100008C7586607615143061E4B5D05C145A7A5
:10342000041A411104093D9803713931034036DB18
:103430000265339102D4305402802E1D02632CEEBB
:1034400001752AC501B028A001102781018F2564CC
:10345000012B244B01E0223401AC211F018D200DF2
:1034600001801FFC00841EED00971DDF00B81CD2F8
:1034700000E61BC600201BBC00641AB200B219A8EB
:10348000000A19A0006A189900D117910040178B03
:1034900000B516840031167E00B31579003A157315
:1034A00000C7146F0058146A00EE13660088136397
:1034B0000025135E00C7125B006C125700151254F2
:1034C00000C111510070114F0021114B00D610495D
:1034D000008D1047004610440002104200C00F400B
:1034E00000800F3E00420F3C00060F3B00CB0E3821
:1034F00000930E37005C0E3500270E3400F30D32BA
:1035000000C10D3100900D3000600D2E00320D2DE8
:1035100000050D2C00D90C2B00AE0C2900850C29C0
:10352000005C0C2700350C27000E0C2600E80B244D
:1035300000C40B2400A00B23007D0B23005A0B2199
:1035400000390B2100180B2000F80A1F00D90A1EB1
:1035500000BB0A1E009D0A1D00800A1D00630A1C94
:1035600000470A1B002C0A1B00110A1A00F7091A4F
:1035700000DD091900C4091900AB091900920917E7
:10358000007B091800630917004C0916003609165C
:1035900000200916000A091500F5081500E00814B6
:1035A00000CC081400B8081400A4081400900813F4
:1035B000007D0812006B081300580812004608121C
:1035C000003408110023081100120811000108112D
:1035D00000F0071000E0071000D0071000C007102F
:1035E00000B0070F00A107100091070E0083070F1E
:1035F0000074070F0065070E0057070E0049070EFD
:10360000003B070D002E070E0020070D0013070DCD
:103610000006070D00F9060C00ED060D00E0060C93
:1036200000D4060C00C8060C00BC060C00B0060C4A
:1036300000A4060B0099060C008D060B0082060BF9
:103640000077060B006C060B0061060A0057060B9C
:10365000004C060A0042060A0038060A002E060A36
:103660000024060A001A060A001006090007060AC6
:1036700000FD050900F4050900EB050900E2050954
:1036800000D9050900D0050900C7050900BE0509D4
:1036900000B5050800AD050800A50509009C050852
:1036A00000940508008C050800840508007C0508C6
:1036B00000740508006C050700650508005D050736
:1036C00000560508004E050700470507004005089D
:1036D0000038050700310507002A05070023050704
:1036E000001C050600160507000F05070008050663
:1036F0000002050700FB040600F5040700EE0406BF
:1037000000E8040600E2040700DB040600D5040616
:1037100000CF040600C9040600C3040600BD040669
:1037200000B7040600B1040500AC040600A60406B8
:1037300000A00405009B0406009504050090040603
:10374000008A04050085040500800406007A04054B
:103750000075040500700405006B0405006604058F
:1037600000610405005C04050057040500520405CF
:10377000004D04050048040500430405003E040410
:10378000003A04050035040500300404002C04054B
:103790000027040400230405001E0404001A040486
:1037A0000016040500110404000D040400090405BA
:1037B000000404040000040400FC030400F80304F3
:1037C00000F4030400F0030400EC030400E8030425
:1037D00000E4030400E0030400DC030400D8030455
:1037E00000D4030400D0030400CC030400C8030386
:1037F00000C503030024F404D9201BC40C5C0E98FC
:1038000004C4095F0265077101F405F900FB04B304
:103810000048048700C103690058035500030345AD
:1038200000BE023A008402310053022A0029022518
:103830000004022000E4011C00C8011900AF0117B8
:10384000009801140084011300710110006101103F
:103850000051010E0043010D0036010B002B010B3E
:103860000020010B00150109000C010900030108EB
:1038700000FB000800F3000800EB000700E400066E
:1038800000DE000600D8000600D2000600CC0005CD
:1038900000C7000500C2000500BD000400B9000417
:1038A00000B5000400B1000400AD000400A900044C
:1038B00000A5000300A20003009F0004009B00037A
:1038C000009800030095000200930003009000039D
:1038D000008D0002008B00030088000200860002B9
:1038E0000084000300810002007F0002007D0002CE
:1038F000007B0002007900020077000100760002E0
:10390000007400020072000100710002006F0002EA
:10391000006D0001006C0002006A000100690002F5
:1039200000670001006600010065000100640002FC
:10393000006200010061000100600001005F000200
:10394000005D0001005C0001005B0001005A000105
:103950000059000100580001005700010056000105
:103960000055000100540001005300000053000105
:10397000005200010051000100500001004F000101
:10398000004E0000004E0001004D0001004C0001FF
:10399000004B0000004B0001004A000100490001FB
:1039A00000480000004800010047000100460000F8
:1039B00000460001004500000045000100440001F0
:1039C00000430000004300010042000000420001EB
:1039D000004100000041000100400001003F0000E4
:1039E000003F0001003E0000003E0001003D0000DD
:1039F000003D0001003C0000003C0000003C0001D4
:103A0000003B0000003B0001003A0000003A0001CA
:103A100000390000003900010038000000380000C3
:103A200000380001003700000037000100360000B8
:103A300000360000003600010035000000350000AF
:103A400000350001003400000034000000340001A3
:103A5000003300000033000000330001003200009A
:103A6000003200000032000100310000003100008F
:103A70000031000100300000003000000030000183
:103A8000002F0000002F0000002F0000002F000179
:103A9000002E0000002E0000002E0001002D00006E
:103AA000002D0000002D0000002D0001002C000062
:103AB000002C0000002C0000002C0001002B000056
:103AC000002B0000002B0000002B0001002A00004A
:103AD000002A0000002A0000002A0001002900003E
:103AE0000029000000290000002900000029000131
:103AF0000028000000280000002800000028000026
:103B00000028000100270000002700000027000017
:103B1000002700000027000100260000002600000A
:103B200000260000002600000026000100250000FD
:103B300000250000002500000025000000250000F1
:103B400000250001002400000024000000240000E3
:103B500000240000002400010023000000230000D6
:103B600000230000002300000023000000230000C9
:103B700000230001002200000022000000220000BB
:103B800000220000002200000022000100210000AD
:103B900000210000002100000021000000210000A1
:103BA0000021000000210001002000000020000092
:103BB0000020000000200000002000000020000085
:103BC0000020000000200001001F0000001F000076
:103BD000001F0000001F0000001F0000001F000069
:103BE000001F0001001E0000001E0000001E00005B
:103BF000001E000000C23100001C260000F4190065
:103C000000D80F0000EB080000C00400007502009F
:103C10000040010000626564002C207379737465B4
:103C20006D2073746F7070656421204865617465E0
:103C3000725F49443A200042656420686561746996
:103C40006E67206661696C65640048656174696EC1
:103C500067206661696C65640042454420544845AC
:103C6000524D414C2052554E4157415900546865C0
:103C7000726D616C2052756E6177617900453120FB
:103C800048656174696E67206661696C65640048A7
:103C9000656174696E67206661696C6564004531B1
:103CA00020544845524D414C2052554E41574159A0
:103CB00000546865726D616C2052756E6177617930
:103CC00000453120544845524D414C2052554E41FB
:103CD0005741590042454420544845524D414C20DB
:103CE00052554E4157415900546865726D616C20C0
:103CF00052756E61776179004531204572723A20C4
:103D00004D415854454D50004572723A204D41582E
:103D100054454D5020424544004D415854454D5066
:103D20002074726967676572656400453120457269
:103D3000723A204D494E54454D50004572723A201A
:103D40004D494E54454D5020424544004D494E5436
:103D5000454D5020747269676765726564004D381F
:103D6000342058302059323030205A204500202F3E
:103D7000002042403A0020403A0020573A007C3C64
:103D80003E5E2B3D3F2F5B5D3B2C2A225C00436156
:103D90006E6E6F74206F70656E20737562646972E9
:103DA000200053442063617264206F6B0A006F70BF
:103DB000656E526F6F74206661696C65640A007687
:103DC0006F6C756D652E696E6974206661696C65CE
:103DD000640A00534420696E6974206661696C0A44
:103DE0000070012C0190012701B0012201C0011DCA
:103DF00001F00118011002130130020E01600209E6
:103E00000190020401C002FF000003FA004003F524
:103E1000008003F000D003EB002004E6007004E112
:103E200000E004DC004005D700C005D2004006CD0C
:103E300000D006C8008007C3003008BE00F008B9F3
:103E400000C009B400B00AAF00B00BAA00D00CA5A6
:103E500000000EA000500F9B00C010960050129161
:103E60000000148C00C0158700B0178200B0197DC7
:103E700000D01B7800001E730040206E0090226965
:103E800000F024640040275F0090295A00E02B5581
:103E900000102E500020304B0010324600E033411D
:103EA0000090353C001037370070383200A0392DB3
:103EB00000B03A2800A03B2300603C1E00103D19D2
:103EC00000903D1400103E0F00703E0A00C03E05F9
:103ED00000003F0000403FFBFF803FF6FFC03FF186
:103EE000FF4D3234004D3233202573005772697410
:103EF000696E6720746F2066696C653A20002E0A2F
:103F0000006F70656E206661696C65642C2046697F
:103F10006C653A20002E0A006F70656E206661693C
:103F20006C65642C2046696C653A200046696C65B6
:103F30002073656C65637465640A002053697A6553
:103F40003A200046696C65206F70656E65643A20A2
:103F500000667265736800646F696E670020666949
:103F60006C653A20004E6F772000454E4420535533
:103F700042524F5554494E450A002220706F73003B
:103F80002220706172656E743A2200535542524F7E
:103F90005554494E452043414C4C2074617267652D
:103FA000743A2200747279696E6720746F206361BD
:103FB0006C6C207375622D67636F64652066696C35
:103FC0006573207769746820746F6F206D616E79F6
:103FD000206C6576656C732E204D4158206C65769B
:103FE000656C2069733A310A002E0A0044656C65DD
:103FF00074696F6E206661696C65642C2046696C1B
:10400000653A200046696C652064656C657465647A
:104010003A0057726974696E6720746F2066696C24
:10402000653A20002E0A006F70656E206661696C2B
:1040300065642C2046696C653A2000FFE0FFD110D2
:1040400000FFFEFFD0FFE0FFC1FFD1E240A0C8A605
:10405000A22FF800238127AC00AFFF64A5FF64FF07
:1040600064A4FFD0FFFE4D313030302053002020BB
:10407000506C616E6E6572427566666572427974E7
:1040800065733A20002046726565204D656D6F723C
:10409000793A2000436F6D70696C65643A204A7507
:1040A0006C20313320323032360A00207C204175BA
:1040B00074686F723A202852656473746F6E654D30
:1040C00061737465723031290A00323032362D3016
:1040D000372D313300204C61737420557064617446
:1040E00065643A200076322E33202D20353835385D
:1040F000340A004D61726C696E0020536F667477EC
:104100006172652052657365740A0020576174639B
:1041100068646F672052657365740A002042726F8D
:10412000776E206F75742052657365740A002045A0
:10413000787465726E616C2052657365740A005004
:104140006F77657255700A0073746172740A00614A
:1041500075746F25632E67004C6F6164696E67200C
:1041600073657474696E67732066726F6D20534453
:104170000A006572726F722077726974696E6720C7
:10418000746F2066696C650A00446F6E6520736108
:1041900076696E672066696C652E0A004D323900BB
:1041A000456E6473746F707320256320256320252A
:1041B0006320256300205A3A0020593A0020583ADB
:1041C00000656E6473746F7073206869743A2000C0
:1041D0004732370000002100240027002A002D006C
:1041E0003000330001010000040107010A01000052
:1041F0002200250028002B002E003100340002018F
:104200000000050108010B0100002000230026002A
:1042100029002C002F0032000001000003010601DC
:10422000090105050505070508080808020202023C
:104230000A0A080804040404010101010101010142
:104240000303030303030303040707070C0C0C0C0D
:104250000C0C0C0C020202020606060606060606F6
:104260000B0B0B0B0B0B0B0B010210202008081083
:1042700020401020408002010201080402010102D6
:1042800004081020408080402010080402018004AF
:10429000020180402010080402010804020101020A
:1042A0000408102040800102040810204080000013
:1042B0000A0B02090C0D0E080703040100000000A0
:1042C00000000000000000000000000000000000EE
:1042D00000000000000000000000121110000000AB
:1042E00000000000000000000000000000000000CE
:1042F000000000004D6F766520302E3032356D6D38
:10430000004D6F766520302E316D6D004D6F7665F6
:1043100020316D6D004D6F76652031306D6D004D33
:104320006F7665206178697300486F74656E6420EC
:10433000746F6F20636F6C64004578747275646588
:1043400072004D6F7665205A004D6F7665205900DA
:104350004D6F766520580050726F62696E672066F7
:1043600061696C65640A0050726F62696E672066ED
:1043700061696C656400486F6D6520257325732540
:1043800073206669727374002066697273740A0020
:10439000486F6D652000220A00556E6B6E6F776E58
:1043A00020636F6D6D616E643A20220020746F6F20
:1043B000206C6F6E6720657874727573696F6E20FC
:1043C00070726576656E7465640A0020636F6C6454
:1043D00020657874727573696F6E2070726576658A
:1043E0006E7465640A00204500205A0020590020A0
:1043F0004D39322058002E0A006F70656E206661BC
:10440000696C65642C2046696C653A2000004401A3
:10441000FE0111241FBECFEFD1E2DEBFCDBF00E011
:104420000CBF13E0A0E0B2E0E6E3F6E702E00BBF6A
:1044300002C007900D92A039B107D9F729E1A0E990
:10444000B3E001C01D92A530B207E1F712E2C8E067
:10445000D2E200E006C021970109802FFE010F94EF
:104460006F37C730D10780E00807A9F70F94B92646
:104470000D94093B0C940000CF93DF93EC01CB012A
:10448000BA010F949B3020E030E048EC51E40F94E7
:10449000FA300F94EB38688379838A839B83DF91AA
:1044A000CF910895CF93DF93EC01CB01BA010F9424
:1044B0009B3020E030E048EC52E40F94FA300F9447
:1044C000EB38688379838A839B83DF91CF9108954A
:1044D000CF93DF93EC01CB01BA010F949B302AE01C
:1044E00037ED43E25CE30F94FA30688379838A8383
:1044F0009B83DF91CF910895CF93DF93EC01CB01A4
:10450000BA010F949B302AE037ED43E25CE30F944D
:10451000FA30688379838A839B83DF91CF910895F2
:10452000CF93DF93EC01CB01BA010F949B302DECBC
:104530003CEC4CEC5DE30F94FA30688379838A831A
:104540009B83DF91CF910895CF93DF93EC01CB0153
:10455000BA010F949B3020E030E048EC51E40F9416
:10456000FA30688379838A839B83DF91CF910895A2
:10457000CF93DF93EC01CB01BA010F949B3020E085
:1045800030E048EC52E40F94FA30688379838A83F0
:104590009B83DF91CF910895CF93DF93EC01CB0103
:1045A000BA010F949B302FE632E143E85AE30F94AF
:1045B000FA30688379838A839B83DF91CF91089552
:1045C000CF93DF93EC01CB01BA010F949B3068834A
:1045D00079838A839B83DF91CF910895CF93DF9373
:1045E000EC01CB01BA010F949B300F94EB38688338
:1045F000DF91CF910895CF93DF93EC01CB01BA0106
:104600000F949B300F94E43879836883DF91CF91C6
:104610000895FC0184910895FC0180810895089516
:1046200090E080E008959091F009E92FF0E0EA5AD7
:10463000FA4E80839F5F943040F49093F00980910C
:10464000750B8F5F8093750B08951092F009F7CF6B
:104650004F925F926F927F928F929F92AF92BF9292
:10466000CF92DF92EF92FF92CF934B015C016901F1
:104670007A0120E030E040E251E4C701B6010F9436
:1046800078372B013C0127E137EB41ED58EB0F94D4
:10469000D83987FD50C027E030E04BE653E4C30132
:1046A000B2010F94943018160CF445C020E030E0AD
:1046B00040E252E4C501B4010F9478372B013C016C
:1046C00027E137EB41ED58EB0F94D83987FD33C024
:1046D00027E030E04BE653E4C301B2010F9494307D
:1046E00018164CF127E93FEF4FE151E4C501B40141
:1046F0000F94D83987FD1FC027E030E043E453E42E
:10470000C501B4010F9494301816ACF027E93FEFBF
:104710004FE151E4C701B6010F94D83987FD0BC0B2
:10472000C1E027E030E040E653E4C701B6010F9452
:10473000943018160CF4C0E08C2FCF91FF90EF90BE
:10474000DF90CF90BF90AF909F908F907F906F90B1
:104750005F904F9008952F923F924F925F926F9289
:104760007F928F929F92AF92BF92CF92DF92EF9201
:10477000FF920F931F93CF93DF93CDB7DEB72E97A2
:104780000FB6F894DEBF0FBECDBF8A83162F4983C4
:10479000822E262F30E03A872987E4E08E9FC001E1
:1047A00011249C878B87FC01E20FF31FEE0FFF1F84
:1047B000EE0FFF1FEE53FA4F60817181828193816A
:1047C0009B01AC010F946A3A882309F42EC19A81A7
:1047D000E9819E0F882D810F24E0929FF001112422
:1047E000A985BA85AE0FBF1FAA0FBB1FAA0FBB1F9B
:1047F000AE53BA4FAC901196BC9011971296CC90D4
:1048000012971396DC903981930F24E0929FA001B8
:104810001124A985BA85A40FB51FAA0FBB1FAA0F23
:10482000BB1FAE53BA4FEC901196FC9011971296A5
:104830000C91129713961C91282F30E0AB85BC8504
:10484000A20FB31FAA0FBB1FAA0FBB1FAE53BA4FB5
:104850009C9011967C90119712966C9012971396DB
:104860005C90880D90E0AB85BC85A80FB91FAA0F9E
:10487000BB1FAA0FBB1FAE53BA4F8C9011964C9022
:10488000119712963C90129713962C90E20FF31FFB
:10489000EE0FFF1FEE0FFF1FEE53FA4F30813983EB
:1048A00021812A8332813B8323812C83FA01E80F03
:1048B000F91FEE0FFF1FEE0FFF1FEE53FA4F30816F
:1048C0003D8381818E8392819F83238128879701F5
:1048D000A801B701C8010F946A3A882321F0E12C9E
:1048E000F12C00E010E09501A601B501C6010F947E
:1048F0006A3A882311F057016801282D342D432D81
:10490000522D682D742D832D922D0F946A3A882391
:1049100021F0812C412C312C212C292D372D462D95
:10492000552D692D772D862D952D0F946A3A882364
:1049300021F0982C742C632C522C2D813E814F81B8
:1049400058856D817E818F8198850F946A3A88237E
:1049500021F01D821E821F82188629813A814B8197
:104960005C8169817A818B819C810F946A3A88236A
:1049700041F03D8139838E818A839F819B83E885C5
:10498000EC832B853C8589859A85280F391F220F5A
:10499000331F220F331F2E533A4F3A872987950131
:1049A000A601B501C6010F9478379701A8010F94AD
:1049B00077376B017C01292D372D462D552D692D1B
:1049C000772D862D952D0F947837282D342D432D56
:1049D000522D0F9477379B01AC01C701B6010F949C
:1049E00078376B017C0129813A814B815C81698137
:1049F0007A818B819C810F9478372D813E814F8104
:104A000058850F9477379B01AC01C701B6010F940D
:104A1000783720E030E040E450E40F947238E985C4
:104A2000FA8560837183828393832E960FB6F89400
:104A3000DEBF0FBECDBFDF91CF911F910F91FF90D1
:104A4000EF90DF90CF90BF90AF909F908F907F902E
:104A50006F905F904F903F902F900895CF93DF938A
:104A600000D01F92CDB7DEB70F949B302FE632E116
:104A700043E85AE30F94FA3069837A838B839C83EB
:104A8000CE0101960F9468130F900F900F900F9026
:104A9000DF91CF910895CF92DF92EF92FF920F9323
:104AA0001F93CF9390911302913009F461C0662354
:104AB00051F01092DF031092DB031092DC0310928E
:104AC000DD031092DE03C82F0F940D1AC090DB0394
:104AD000D090DC03E090DD03F090DE039B01AC019D
:104AE0002C193D094E095F0969017A01F7FC40C0A4
:104AF0002091DF03C7FD15C04C2F0C2E000C550B69
:104B00004C5F5F4FE22F022E000CFF0B4E175F072A
:104B10007CF144EFC42EDD24D394E12CF12C2C172E
:104B200034F438EEC32E33E0D32EE12CF12CC60E34
:104B3000D71EE81EF91EC092DB03D092DC03E09280
:104B4000DD03F092DE03022F017010E084E2809F0B
:104B5000B001819F700D701B112460597C4F82E35E
:104B600090E00E940B9C8091DF038F5F8093DF03B6
:104B7000CF911F910F91FF90EF90DF90CF9008950C
:104B8000CF93DF9300D01F92CDB7DEB70F949B3049
:104B90002AE037ED43E25CE30F94FA3069837A83CD
:104BA0008B839C83CE0101960E94C2850F900F904B
:104BB0000F900F90DF91CF910895CF93DF9300D0A6
:104BC0001F92CDB7DEB70F949B302DEC3CEC4CEC34
:104BD0005DE30F94FA3069837A838B839C83CE01E3
:104BE00001960E94C2830F900F900F900F90DF915B
:104BF000CF910895CF93DF9300D01F92CDB7DEB74A
:104C00000F949B3020E030E048EC51E40F94FA30F0
:104C100069837A838B839C83CE0101960E941988D5
:104C20000F900F900F900F90DF91CF910895CF9339
:104C3000DF9300D01F92CDB7DEB70F949B3020E0FA
:104C400030E048EC52E40F94FA3069837A838B8326
:104C50009C83CE0101960E9419880F900F900F90AF
:104C60000F90DF91CF910895CF93DF9300D01F92E3
:104C7000CDB7DEB70F949B302AE037ED43E25CE31B
:104C80000F94FA3069837A838B839C83CE010196DB
:104C90000E949F880F900F900F900F90DF91CF91FF
:104CA00008950F949B300F94EB38862F0C94F09856
:104CB0000F949B300F94E438CB010C94188CDF9246
:104CC000EF92FF920F931F93CF93DF93EC01D62EB9
:104CD0001CAD0BAD7C0184E0E80EF11CE98DFA8D72
:104CE000C7011995412F480F2D2D602FC7010F9433
:104CF000F51E9BAD890F8BAF81E090E0DF91CF91E6
:104D00001F910F91FF90EF90DF9008958F929F92E7
:104D1000AF92BF92CF92DF92EF92FF920F931F93C9
:104D2000CF93DF93EC018B017A018A859B858617EF
:104D3000970731F0888199810F94CF1D1B870A87CF
:104D400088859985019641F50C81DA808E81D80E8F
:104D5000A880B980D5015596ED91FC91C5011995B2
:104D6000080F10E0F70121917F0121114FC08E81C2
:104D70009F81810F911D9F838E8390E080E0DF9162
:104D8000CF911F910F91FF90EF90DF90CF90BF9048
:104D9000AF909F908F900895CE80DF80F7010081C3
:104DA00010E0002321F1A880B980602FC5010F9485
:104DB000271ED50151961C9111954701BFEF8B1A03
:104DC0009B0AF40181914F01882351F0D50150963F
:104DD0009C91190F082F682FC5010F94271EF1CF42
:104DE000003281F0F50183899189890F180FC10E76
:104DF000D11C288539852C153D0508F0A5CF81E00B
:104E000090E0BDCFD50150968C91F0CF402F6D2D05
:104E1000C5010F94F51ED80E180FA4CFAB01BC012D
:104E200040936415509365156093661570936715EC
:104E300089EC96E10C9412BC8091FD039091FE03E5
:104E4000009731F04AE050E070E060E00D94932D5F
:104E500060E070E0CB0108950E941C2797FD0CC014
:104E60000E941C276F3F71058105910509F034F4FC
:104E70000E941C27862F089580E008958FEF0895E3
:104E80008091FD039091FE03892B41F00E942C2715
:104E900091E0811101C090E0892F089591E0FCCF4D
:104EA0000E941C27CB010895CF92DF92EF92FF92D0
:104EB0000F931F93CF93DF938B01CFEEDBE0209115
:104EC0006E0230916F024091700250917102FC01AC
:104ED00060817181828193810F9472382C853D8528
:104EE0004E855F850F9478376C877D878E879F8787
:104EF000C12CD12C76012BEF3BE047EF5BE063EF59
:104F00007BE0CE010F94820FDF91CF911F910F9123
:104F1000FF90EF90DF90CF900C943BCBCF92DF923D
:104F2000EF92FF920F931F93CF93DF936B017A0160
:104F3000EC01CD56DC4F28813CE0389F8001399F41
:104F4000100D112427FF24C0FB01118210828881DB
:104F50008F5F888388819801280F311D87FD3A95DE
:104F6000C9012091D114F6012817190629F024F05F
:104F700088818C300CF43CC080819181049680340F
:104F80009C4908F475C0F60180819181049672C035
:104F900088819801280F311D87FD3A95C90120911C
:104FA000D1142817190699F294F28881A801480FA4
:104FB000511D87FD5A95FA01EE0FFF1FE40FF51FF3
:104FC000EB59FB4E808186FFC2CF8881F801E80F44
:104FD000F11D87FDFA95CF01EE0FFF1FE80FF91FB6
:104FE000EB59FB4E808160E08F730F941318AFCFA5
:104FF000808191812881A801420F511D27FD5A957A
:105000009A01FA01EE0FFF1FE20FF31FEB59FB4E5F
:1050100021813281820F931FF701918380838881E0
:105020009801280F311D87FD3A95F901EE0FFF1FFA
:10503000E20FF31FEB59FB4E808186FF20C0888171
:10504000080F111D87FD1A95F801EE0FFF1FE00FE5
:10505000F11FEB59FB4E808161E08F73DF91CF919F
:105060001F910F91FF90EF90DF90CF900D94131848
:1050700080E49CE9F701918380838FEF8883DF913F
:10508000CF911F910F91FF90EF90DF90CF900895F7
:105090009091FF0380911102992321F0811102C0A8
:1050A00060E00AC0609112026093D903992311F065
:1050B0008823B1F38823A1F370E088E00D940319ED
:1050C0008091FD039091FE03009731F04AE050E09B
:1050D00070E060E00D94C12E60E070E0CB010895B7
:1050E00063E972E084E690E00E940B9C6AEB72E058
:1050F00084E690E00C940B9C81110C94702868EB72
:1051000071E084E190E00C940B9C282F1092900B9E
:105110008091960B9091970B8130904820F01092DF
:10512000970B1092960B80915105882331F0809156
:10513000960B8093880B1092830B8091820B18162C
:10514000BCF4082E000C990B821B91092091880B4E
:10515000022E000C330B2817390754F097FF02C0BA
:1051600090E080E08093880B9093970B8093960B50
:105170008091880B6623A9F09091890B891714F40C
:105180008093890B2091890B022E000C330B2C5F2E
:105190003F4F482F082E000C550B241735071CF4E1
:1051A00084508093890B08958F929F92AF92BF9203
:1051B000EF92FF920F931F93CF93DF93EC018B013C
:1051C000E42EF22E80911615909117158C179D07DD
:1051D00009F442C0409128065091290660912A06A0
:1051E00070912B0640934B0550934C0560934D05F1
:1051F00070934E0521EACF32D207C9F58D549C48F1
:1052000071F40F940D1A6E517B4F8F4F9F4F609327
:105210004205709343058093440590934505D093D0
:105220001715C09316151093970B0093960BE092E9
:10523000890BF092820BCD54DC4821F4109250057A
:105240001092410582E08093740281E08093830B89
:10525000109252051092920BDF91CF911F910F91F6
:10526000FF90EF90BF90AF909F908F9008952CE8A3
:10527000CD34D207A1F68F52914A19F0CDE4DCE883
:10528000CECF0F940D1A8090420590904305A090C8
:105290004405B0904505681979098A099B0997FF6B
:1052A000EDCFCCE9DEE2BBCF8091D8149091D91438
:1052B000891B8F7071F49091681592FB882780F993
:1052C00092FD08C081E090914106913019F080E094
:1052D000089581E00895E0914105E63000F581E010
:1052E0008E0F809341058091960B9091970BB0E0C3
:1052F000A0E03091890B2091820B48E0E49FF001FF
:105300001124EF5EFA4F40911615509117155183F5
:10531000408382839383A483B58336832783089550
:1053200020E040E070E060E08DE49CE80C94D4283C
:10533000E0914105EE2389F0E150E093410588E0DA
:10534000E89FF0011124EF5EFA4F6281738127819B
:105350004681808191810C94D4280C949029CF931C
:10536000DF9300D01F92CDB7DEB70F94EB380F94C8
:10537000993069837A838B839C83CE0101960E9446
:1053800019880F900F900F900F90DF91CF91089593
:105390000F949B3020E030E048EC51E40F94FA3059
:1053A0000C94AF290F949B3020E030E048EC52E49D
:1053B0000F94FA300C94AF29CF92DF92EF92FF92C4
:1053C0006B017C0120E030E0A9010F94943020E0D3
:1053D00030E040E05FE387FF04C020E030E040E0E1
:1053E0005FEBC701B6010F9478370F94E438CB0117
:1053F000FF90EF90DF90CF900C94188C0F949B301F
:105400000C94DC29AF92BF92CF92DF92EF92FF9281
:105410000F931F93CF93DF93EC015B018A01FB0194
:10542000199587FD16C0C82ED12CF12CE12C2196A0
:10543000F801C082D182E282F382CE01DF91CF9166
:105440001F910F91FF90EF90DF90CF90BF90AF90A2
:105450000895982F907E903CA9F48F7190E0B0E071
:10546000A0E06C017D0126E0CC0CDD1CEE1CFF1CD5
:105470002A95D1F7CE010196F50119958F73C82AA7
:105480002296D6CF982F907F903E11F58F7090E0A6
:10549000B0E0A0E06C017D0186E0CC0CDD1CEE1CD0
:1054A000FF1C8A95D1F7CE010196F50119958F73EE
:1054B000C82A96E0CC0CDD1CEE1CFF1C9A95D1F797
:1054C000CE010296F50119958F73C82A2396B0CFA5
:1054D000982F987F903F79F5877090E0B0E0A0E03A
:1054E0006C017D01F6E0CC0CDD1CEE1CFF1CFA9576
:1054F000D1F7CE010196F50119958F73C82AA6E060
:10550000CC0CDD1CEE1CFF1CAA95D1F7CE01029637
:10551000F50119958F73C82AB6E0CC0CDD1CEE1C82
:10552000FF1CBA95D1F7CE010396F50119958F733B
:10553000C82A24967DCF982F9C7F983FE1F58370F1
:1055400090E0B0E0A0E06C017D0156E0CC0CDD1CE9
:10555000EE1CFF1C5A95D1F7CE010196F501199565
:105560008F73C82A66E0CC0CDD1CEE1CFF1C6A950C
:10557000D1F7CE010296F50119958F73C82A76E00E
:10558000CC0CDD1CEE1CFF1C7A95D1F7CE010396E6
:10559000F50119958F73C82AE6E0CC0CDD1CEE1CD2
:1055A000FF1CEA95D1F7CE010496F50119958F738A
:1055B000C82A25963DCF982F9E7F9C3F09F049C071
:1055C000817090E0B0E0A0E06C017D0186E0CC0C41
:1055D000DD1CEE1CFF1C8A95D1F7CE010196F5016A
:1055E00019958F73C82A96E0CC0CDD1CEE1CFF1CAD
:1055F0009A95D1F7CE010296F50119958F73C82AB5
:1056000026E0CC0CDD1CEE1CFF1C2A95D1F7CE0148
:105610000396F50119958F73C82A36E0CC0CDD1C72
:10562000EE1CFF1C3A95D1F7CE010496F5011995B1
:105630008F73C82A46E0CC0CDD1CEE1CFF1C4A957B
:10564000D1F7CE010596F50119958F73C82A2696D4
:10565000EFCE982F907C903841F4807C803869F4AC
:105660002196CE01F5011995F8CF8E7F8D3F28F058
:105670002196CE01F5011995F8CFC12CD12C7601D8
:10568000D7CE1F93CF93DF9300D01F92CDB7DEB755
:1056900010E0AE014F5F5F4F69E073E20E94022AA3
:1056A00049815A816B817C81452B462B472B11F018
:1056B0001F5FEFCF812F0F900F900F900F90DF9112
:1056C000CF911F9108951F93CF93DF9300D01F9226
:1056D000CDB7DEB710E0AE014F5F5F4F6CE073E215
:1056E0000E94022A49815A816B817C81452B462B7D
:1056F000472B11F01F5FEFCF812F0F900F900F906E
:105700000F90DF91CF911F9108950F934CE0849FEC
:10571000402D112421E0240F209346058CE0840FB6
:105720008093D40B90E002963091501538171906EB
:1057300021F01CF080E00F910895809152152817F8
:10574000C8F781E080933C15662351F04D5F0BE074
:1057500020E860E08CE195E10F94941C10923C15D8
:105760008091D40B90915015891720F320915215F8
:10577000909146052917F0F2109253158093541515
:1057800081E0D9CF20911005022E000C330B821737
:10579000130661F08093100568EF78E1813011F015
:1057A0006BEC73E18CE195E10D94CF1D08952F9280
:1057B0003F924F925F927F928F929F92AF92BF9251
:1057C000CF92DF92EF92FF920F931F93CF93DF93CD
:1057D000D62EC72E742EFC0180809180A280B380CB
:1057E000C501B40120E13EE040E050E00F94D8361E
:1057F000122F032FC22FD32F8CE3282E312C412CB4
:10580000512CC501B401A20191010F94D836CA01EF
:10581000B901A20191010F94D836F62EE72E772018
:1058200051F1C501B40120E831E541E050E00F94A9
:10583000D8368901EF92FF92CE0168E170E00F94B3
:1058400047379F938F933F932F938EEA93E19F93D4
:105850008F93CF92DF920F942B30EDB7FEB73A962D
:105860000FB6F894FEBF0FBEEDBF88E00A301105F9
:10587000D0F089E018C0C436D10538F57F936F9316
:105880000F931F9384EA93E19F938F93CF92DF92BC
:105890000F942B308DB79EB708960FB6F8949EBF25
:1058A0000FBE8DBF85E0DF91CF911F910F91FF90CB
:1058B000EF90DF90CF90BF90AF909F908F907F90B0
:1058C0005F904F903F902F9008957F936F930F9329
:1058D0001F938CE993E19F938F93CF92DF920F9464
:1058E0002B30EDB7FEB738960FB6F894FEBF0FBE5B
:1058F000EDBF86E0D8CFEF92FF920F931F93CF9327
:10590000DF93CDB7DEB72C970FB6F894DEBF0FBE8E
:10591000CDBF6F3F71058105910509F0C0F488E1A5
:1059200095E10E945F26E0912015F09121153196B6
:10593000849190E02C960FB6F894DEBF0FBECDBFD9
:10594000DF91CF911F910F91FF90EF9008951091EB
:1059500053150091541520914F0521110FC04CE7AC
:1059600053E1602F812F0F94611F20E030E0120F70
:105970001093531500935415C901DCCFE090201506
:10598000F09021152CE135E13A832983212F30E075
:105990003C832B83202F30E03E832D8318861F828B
:1059A0002FEF3FEF3A8729871C861B869E012F5FCA
:1059B0003F4FAB01BC01C7010E94C5FAB7018CE1A2
:1059C00095E10F94CF1D2F813885D1CFEF92FF92B3
:1059D0000F931F93CF93DF93CDB7DEB72C970FB6FE
:1059E000F894DEBF0FBECDBF109153150091541532
:1059F00020914F0521111AC04CE553E1602F812FF2
:105A00000F94611F80E090E0180F109353150093DE
:105A100054152C960FB6F894DEBF0FBECDBFDF91A4
:105A2000CF911F910F91FF90EF900895E090201576
:105A3000F09021152CE135E13A832983212F30E0C4
:105A40003C832B83202F30E03E832D8318861F82DA
:105A50007A8769871C861B869E012F5F3F4F49E02E
:105A600053E2BC01C7010E9485FBB7018CE195E1BF
:105A70000F94CF1D8F819885C7CF6FEF7FEF0C9468
:105A8000E62CEF92FF920F931F93CF93DF93CDB746
:105A9000DEB72C970FB6F894DEBF0FBECDBF1091C6
:105AA00053150091541520914F0521111AC04CE354
:105AB00053E1602F812F0F94611F80E090E0180F59
:105AC00010935315009354152C960FB6F894DEBF1F
:105AD0000FBECDBFDF91CF911F910F91FF90EF903F
