:100000000C945F220C9490220C9490220C949022D9
:100010000C9490220C9490220C9490220C94902298
:100020000C9490220C9490220C9490220C94902288
:100030000C9490220C9490220C9490220C94902278
:100040000C9490220C94DCCD0C9490220C94902271
:100050000C9490220C9490220C94C0C60D943921DB
:100060000C9490220C9407780C94FD770C949022B9
:100070000C9490220C9490220C9490220C94902238
:100080000C94733E0C9490220C9490220C94902229
:100090000C9490220C9490220C9490220D948C2716
:1000A0000C9490220C9490220C94453E0C94902237
:1000B0000C9490220C9490220C9490220C94173E55
:1000C0000C9490220C9490220C9490220C949022E8
:1000D0000C9490220C9490220C9490220C949022D8
:1000E0000C949022084AD73B3BCE016E84BCBFFDE6
:1000F000C12F3D6C74319ABD56833DDA3D00C77FF8
:1001000011BED9E4BB4C3E916BAAAABE0000008090
:100110003F05A84CCDB2D44EB93836A9020C50B91F
:10012000918688083CA6AAAA2ABE000000803F004B
:100130000C9431FC0C940E7C0D94721F0C94F52FD2
:100140000C9407300C9486A40C9452970C94E32FD3
:100150000D94821F0C947A970C9464FC0C949E2A44
:100160000C9496810D94D01F0C945A970C9472FFA6
:100170000C9438FC0C948A970C9469A40C94889E77
:100180000C94E6220C9462970C94DA7F0C94222350
:100190000C94859E0C94833B0C94147C0C94C0B2FC
:1001A0000C944EFF0C946A970C94BE220C94DD7C48
:1001B0000C94258D0C9462850C94A2980D94661F66
:1001C0000C948F820C94893A0C945EFC0D9444201C
:1001D0000C94D42A0C94D7260D94091F0C94CB2F81
:1001E0000C949F8F0C94DE7D0C94DF7F0C94F77D34
:1001F0000D94E91F0C9483A40D94722D0C94792610
:100200000C9497340C9448FC0C9499850C9492228D
:100210000D9458200C94B3260C94A67D0C94B92808
:100220000C947AA40C94849C0C94D12F0C9463FCB1
:100230000C941B7A0C94B3890C94A0B30C94DE2616
:100240000C9423FC0D940D200C948BA40C94E47F4F
:100250000C94B87A0C9451230C94B27A0C94AC7A26
:100260000C94C9AF0C94CAFD0C9462230C944CFC02
:100270000C9450FC0D9421200C94A1A40C94CE2E2F
:100280000C94E49F0C94AF790D9430200C944FFFA4
:100290000D948D1F0C9496260C945F230C947DA4D2
:1002A0000C94DD2F0C94F7B90C943F260D94241F69
:1002B0000C94A07A0C94A9A70C94FB2F0C946623A1
:1002C0000C94D72F0C94EF2F0C9404830D94D51F0E
:1002D0000C9492970C94EE7F0C94FA220D940320C8
:1002E0000C949AAD0C94C57D0C9403FC0C940130D5
:1002F0000C94D2220C94EE360C9468FC0C9465237A
:100300000C9436230C94182E0C9435A90C949181DE
:100310000C94A9B00C9480A40C9456FC0D944E201F
:100320000C94C5870C9474A40C9416A00D94781F9B
:100330000C9491FC0C94197A0C945AFC0C940C7C3F
:100340000C944DFF0C94E97F0C94B4790D94F31F39
:100350000C9444230C9490A40D943A200C942F8474
:100360000C948DA40C94D0260C948C810C94AD2507
:100370000C9442FC0C9487810C94027A0C942DFC12
:100380000C94A6FF0C94E92F0C9436820C9429FC53
:100390000C9409AC0C94A82A0C945C260C9479FF5C
:1003A0000D94611F0D94DF1F0C9450FF0D94542D7C
:1003B0000C94A67A0D94C81F0C94EB790C9477A436
:1003C0000C944A970C945ABB0C9484B50C940E234D
:1003D0000C94F7850C9435FC0D94FB1F0C94D77985
:1003E0000C945FFF0C9472970C94A8220C94829743
:1003F0000C943EFC0C948E830D9462200C94E47952
:100400000D9417200C9402FC4E414E494E4954590C
:10041000494E46CDCCCC3D0AD7233C17B7D13877CF
:10042000CC2B329595E6241FB14F0A0000204100E5
:1004300000C84200401C4620BCBE4CCA1B0E5AAE2F
:10044000C59D7400407A10F35A00A0724E1809003E
:1004500010A5D4E80000E87648170000E40B540229
:100460000000CA9A3B000000E1F505000080969864
:1004700000000040420F000000A0860100000010B4
:100480002700000000E803000000006400000000F6
:10049000000A00000000000100000000002C76D8D7
:1004A00088DC674F0823DFC1DFAE59E1B1B796E5BD
:1004B000E3E453C63AE651997696E8E6C28426EB21
:1004C000898C9B62ED407C6FFCEFBC9C9F40F2BA34
:1004D000A56FA5F490055A2AF75C936B6CF9676DCC
:1004E000C11BFCE0E40D47FEF520E6B500D0ED9021
:1004F0002E0300943577050080841E080000204EEE
:100500000A000000C80C333333330F986E12831186
:1005100041EF8D2114893BE65516CFFEE6DB18D15D
:10052000844B381BF77C1D901DA4BBE4242032842F
:10053000725E228100C9F124ECA1E53D27434F4DB5
:100540004D554E49434154494F4E0044525952551E
:100550004E004552524F525300494E464F004543BC
:10056000484F004572726F722077726974696E67C6
:1005700020746F20454550524F4D210A00363726D2
:10058000033C3D380E2E303E121A1C1808440AFF58
:100590004308090001627573793A207061757365CB
:1005A0006420666F7220696E7075740A00627573DC
:1005B000793A2070617573656420666F7220757377
:1005C00065720A00627573793A2070726F636573A1
:1005D00073696E670A004B494C4C20636175736503
:1005E00064206279204B494C4C20627574746F6EA4
:1005F0002F70696E0A004B494C4C2063617573651E
:100600006420627920746F6F206D75636820696E55
:100610006163746976652074696D65202D2063754A
:100620007272656E7420636F6D6D616E643A200046
:10063000506C656173652072657365740050524932
:100640004E5445522048414C544544004B494C4C73
:1006500045442E20005072696E7465722068616C8A
:100660007465642E206B696C6C28292063616C6C46
:100670006564210A0053544F505045442E200050C9
:1006800072696E7465722073746F70706564206433
:10069000756520746F206572726F72732E204669C3
:1006A0007820746865206572726F7220616E6420B4
:1006B000757365204D39393920746F2072657374F4
:1006C0006172742E202854656D7065726174757244
:1006D000652069732072657365742E2053657420DC
:1006E00069742061667465722072657374617274D6
:1006F000696E67290A006563686F3A004572726F18
:10070000723A0042696C696E656172204C6576656B
:100710006C696E6720477269643A0A0053544F50FF
:100720002063616C6C65642062656361757365202C
:100730006F6620424C546F756368206572726F72E9
:10074000202D20726573746172742077697468203B
:100750004D3939390A0053544F502063616C6C6530
:10076000642062656361757365206F6620424C5436
:100770006F756368206572726F72202D20726573C9
:10078000746172742077697468204D3939390A00B0
:10079000486F74656E6420746F6F20636F6C640AB9
:1007A0000025753A2530327500253032753A2530EE
:1007B00032750025756420253032753A2530327542
:1007C0000046696C616D656E743A2000456C61701D
:1007D0007365643A20005072696E742046696E69D0
:1007E00073686564004F46460A00466164652048A8
:1007F00065696768742000426564204C6576656CA5
:10080000696E6720004661696C656420746F2065BD
:100810006E61626C6520426564204C6576656C692A
:100820006E670A00496E76616C6964206D65736855
:100830002E0A00202844525952554E290047323979
:10084000204175746F20426564204C6576656C6943
:100850006E67003F20284C2C522C462C4229206FDA
:100860007574206F6620626F756E64732E0A003F88
:100870002856296572626F7365206C6576656C20F9
:10088000697320696D706C61757369626C6520288D
:10089000302D34292E0A00426164205A2076616C82
:1008A00075650A004E6F2062696C696E6561722021
:1008B000677269640A005741524E494E4721204CE5
:1008C0006F77205A204A65726B206D6179206C65C4
:1008D000616420746F20756E77616E74656420703A
:1008E00061757365732E0A004D3630303A20546FAF
:1008F0006F20636F6C6400486F74656E6420746F62
:100900006F20636F6C640A00496E736572742066B1
:10091000696C616D656E7420616E642070726573C0
:100920007320627574746F6E0A0050726573732061
:10093000627574746F6E20746F2068656174206EC8
:100940006F7A7A6C650A00496E7365727420666905
:100950006C616D656E7420616E6420707265737376
:1009600020627574746F6E20286F72204D3130389C
:10097000290A004D32342053256C642054256C64C0
:10098000004D3233202573004739322E392045255A
:100990007300473120462564004739322E39205AEA
:1009A0002573004731205A3020463230300047311D
:1009B0002058257320592573204633303030004DA0
:1009C00034323020532569205A2573004D3130369A
:1009D0002050256920532569004D31303920532599
:1009E00069004D31393020532569004739322E399D
:1009F0002045305A300A47315A320A47323852308D
:100A00005859004D343230205330205A300020499C
:100A10006E76616C696420657874727564657220A5
:100A200000536C6565702E2E2E00486F6D65205842
:100A3000592066697273740A00486F6D65205859B1
:100A400020666972737400205A3A200020593A20B7
:100A50000042656420583A20004D65736820706F2D
:100A6000696E742063616E6E6F74206265207265BA
:100A7000736F6C7665640A00436C69636B20746FF6
:100A800020726573756D652E2E2E004E6F206D6F72
:100A900076652E00456E642066696C65206C69730E
:100AA000740A00426567696E2066696C65206C692E
:100AB00073740A00286E6F2066696C65290043759F
:100AC0007272656E742066696C653A20005344202A
:100AD0007072696E74696E67206279746520004E69
:100AE0006F74205344207072696E74696E670A00D7
:100AF0005072696E742074696D653A20000A5374EF
:100B00006174733A2046696C616D656E742075730B
:100B100065643A20002C204C6F6E67657374206A00
:100B20006F623A2000546F74616C2074696D653A8D
:100B3000200053746174733A20002C204661696C64
:100B400065643A20002C2046696E69736865643AD2
:100B500020005072696E74733A200053746174738C
:100B60003A20004520436F6F6C696E672E2E2E0071
:100B7000452048656174696E672E2E2E006F66668B
:100B8000005E05590552054B053D05444542554754
:100B90003A004D3131332053006F6B0043522D32F8
:100BA000302050726F204F46462E004348414D4240
:100BB00045525F54454D5045524154555245004DA4
:100BC0004F54494F4E5F4D4F444553005448455292
:100BD0004D414C5F50524F54454354494F4E004194
:100BE00055544F5245504F52545F53445F535441F4
:100BF0005455530050524F4D50545F535550504F21
:100C0000525400454D455247454E43595F5041525D
:100C100053455200434153455F4C494748545F4256
:100C200052494748544E45535300544F47474C454B
:100C30005F4C494748545300534F4654574152451F
:100C40005F504F574552004255494C445F50455202
:100C500043454E54004C4556454C494E475F444130
:100C60005441005A5F50524F4245004155544F4C39
:100C70004556454C005052494E545F4A4F42005031
:100C8000524F4752455353004155544F5245504FD0
:100C900052545F54454D5000564F4C554D4554529B
:100CA000494300454550524F4D0042494E4152592B
:100CB0005F46494C455F5452414E5346455200539E
:100CC000455249414C5F584F4E5F584F464600468B
:100CD00049524D574152455F4E414D453A4D617223
:100CE0006C696E2076322E33202D2035383635371C
:100CF00020287072696E7420455441202B206E6547
:100D00006761746976652076616C756520737570AE
:100D1000706F72742920534F555243455F434F44BF
:100D2000455F55524C3A68747470733A2F2F676957
:100D3000746875622E636F6D2F4D61726C696E46BB
:100D400069726D776172652F4D61726C696E2050AA
:100D5000524F544F434F4C5F56455253494F4E3AB2
:100D6000312E30204D414348494E455F545950453E
:100D70003A43522D32302050726F2045585452550C
:100D80004445525F434F554E543A312055554944DE
:100D90003A63656465326132662D343161322D34D7
:100DA0003734382D396231322D633535633632664A
:100DB00033363766660A002F2F20004D3134352038
:100DC000533C696E6465783E206F7574206F6620B1
:100DD00072616E67652028302D31290A0020540089
:100DE000205200416363656C65726174696F6E3A8D
:100DF000205000205A00205900580020204D6178D2
:100E00003A2000205A00205900580020204D696ED9
:100E10003A2000536F667420656E6473746F70734C
:100E20003A200020466C6F773A200050726F74654C
:100E3000637465642050696E0A003A20002053658F
:100E400072766F2000206F7574206F662072616E5D
:100E500067650A00536572766F200050726F626595
:100E6000205A204F66667365743A200020643A0069
:100E700020693A0020703A00496E76616C696420FE
:100E800065787472756465720A0064697300656ED2
:100E90000043290A0061626C656420286D696E2038
:100EA00074656D702000436F6C6420657874727592
:100EB0006465732061726520004D65736820706FF2
:100EC000696E742063616E6E6F7420626520726556
:100ED000736F6C7665640A004D34323120696E633D
:100EE0006F727265637420706172616D6574657292
:100EF0002075736167650A004F66667365747320B9
:100F00006170706C696564004572723A20546F6F4D
:100F1000206661722100546F6F20666172206672D4
:100F20006F6D207265666572656E636520706F69AE
:100F30006E740A00454550524F4D204F4B0A003FFA
:100F40005A206F7574206F662072616E6765202865
:100F50002D323020746F203230290A0050726F62B7
:100F600065205A204F66667365743A20003F4B2017
:100F700076616C7565206F7574206F662072616E86
:100F800067652028302D3130292E0A0041647661B2
:100F90006E6365204B3D0043617365206C69676833
:100FA000743A200043617365206C696768743A2065
:100FB0006F66660A004F4646004F4E00506F7765D9
:100FC000722D6C6F7373207265636F766572792012
:100FD00000496E76616C6964206578747275646529
:100FE000720A004361703A0047322F473320626132
:100FF0006420706172616D65746572730A00220A03
:1010000000656E7175657565696E672022006F6B8E
:1010100000526573656E643A200053544F5050453A
:10102000442E20005072696E7465722073746F7064
:101030007065642064756520746F206572726F72CC
:10104000732E2046697820746865206572726F720D
:1010500020616E6420757365204D39393920746FB5
:1010600020726573746172742E202854656D7065EA
:101070007261747572652069732072657365742E70
:1010800020536574206974206166746572207265EE
:101090007374617274696E67290A004E6F20436829
:1010A00065636B73756D2077697468206C696E6514
:1010B000206E756D6265722C204C617374204C69D2
:1010C0006E653A20004E6F20436865636B73756DE3
:1010D0002077697468206C696E65206E756D626535
:1010E000722C204C617374204C696E653A20006349
:1010F0006865636B73756D206D69736D617463688A
:101100002C204C617374204C696E653A20004C6948
:101110006E65204E756D626572206973206E6F7406
:10112000204C617374204C696E65204E756D62654C
:10113000722B312C204C617374204C696E653A20FF
:10114000004D313130004D333100446F6E652070F9
:1011500072696E74696E672066696C650A00534433
:101160002072656164206572726F720A002569736E
:101170000025696D20256973002569682025696D42
:101180002025697300256964202569682025696D1B
:1011900020256973002569792025696420256968FF
:1011A0002025696D202569730020573A0042656447
:1011B00020636F6F6C696E672E2E2E00426564206F
:1011C00068656174696E672E2E2E002364656669FA
:1011D0006E652044454641554C545F004B642000E9
:1011E0004B6920004B702000504944204175746FBA
:1011F00074756E652066696E697368656421205038
:10120000757420746865206C617374204B702C2099
:101210004B6920616E64204B6420636F6E73746150
:101220006E74732066726F6D2062656C6F772069D3
:101230006E746F20436F6E66696775726174696F53
:101240006E2E680A00504944204175746F74756EA3
:1012500065206661696C6564212074696D656F75D0
:10126000740A00453120544845524D414C20525596
:101270004E4157415900546865726D616C2052753A
:101280006E617761790045312048656174696E67E8
:10129000206661696C65640048656174696E6720E9
:1012A0006661696C656400504944204175746F74CF
:1012B000756E65206661696C6564212054656D708A
:1012C0006572617475726520746F6F2068696768F4
:1012D0000A00204B643A2000204B693A2000204B42
:1012E000703A20000A20436C61737369632050498F
:1012F00044200A002054753A2000204B753A200003
:10130000206D61783A2000206D696E3A20002064DB
:101310003A200020626961733A200050494420411C
:1013200075746F74756E652073746172740A005001
:101330004944204175746F74756E65206661696CEF
:101340006564212054656D706572617475726520E5
:10135000746F6F20686967680A00504944204175BE
:10136000746F74756E65206661696C6564212042D6
:101370006164206578747275646572206E756D6243
:1013800065720A004572723A207574663820666F7D
:101390006E74206E6F7420696E697469616C697A0D
:1013A00065642E004572723A207574663820666F47
:1013B0006E74206E6F7420696E697469616C697AED
:1013C00065642E004572723A207574663820666F27
:1013D0006E74206E6F7420696E697469616C697ACD
:1013E00065642E0050726F6265205A204F666673E6
:1013F00065740000060C00FE07022603BC017FFE98
:1014000008FE08FE05080806000040F0C888889815
:101410007810050808060000C0F88888888888F8D1
:101420000505050600012030F830200508080600F3
:10143000002070F820202020E00509090600FF2088
:1014400070A8A8B888887020050606060001E08C00
:10145000EA8C8A0A0509090600FFF8A888888888A6
:1014600088A8F8050A0A0600FE205050505088A8A7
:10147000A8887003030306000340A040FFFFFFFF9E
:10148000FFFFFFFFFFFFFFFFFFFFFFFFFFFFFFFF6C
:10149000FFFF0000000605FF01070706020080802D
:1014A0008080800080030303060105A0A0A005063C
:1014B0000606000050F85050F8500509090600FFD4
:1014C0002070A8A07028A87020050707060000C893
:1014D000C8102040989805070706000040A0A040CB
:1014E000A8906801030306020580808003090906AD
:1014F00001FF204040808080404020030909060110
:10150000FF80404020202040408005070706000063
:1015100020A8702070A8200505050600012020F8ED
:1015200020200203030601FFC040800501010600E0
:1015300003F8020202060100C0C00507070600000A
:1015400008101020404080050707060000708898AA
:10155000A8C8887003070706010040C0404040400B
:10156000E0050707060000708808102040F805070E
:1015700007060000F8081030088870050707060005
:101580000010305090F81010050707060000F88092
:10159000F008088870050707060000304080F088D2
:1015A0008870050707060000F808101020202005A5
:1015B000070706000070888870888870050707068E
:1015C000000070888878081060020505060100C0D8
:1015D000C000C0C00206060601FFC0C000C04080B7
:1015E0000305050601012040804020050303060095
:1015F00002F800F80305050601018040204080053F
:101600000707060000708810202000200507070645
:1016100000007088B8A8B880700507070600007041
:101620008888F8888888050707060000F048487011
:101630004848F005070706000070888080808870A1
:10164000050707060000F04848484848F005070726
:10165000060000F88080F08080F80507070600008B
:10166000F88080F080808005070706000070888081
:1016700080988870050707060000888888F88888A1
:1016800088030707060100E04040404040E00507AE
:1016900007060000381010101090600507070600BC
:1016A000008890A0C0A090880507070600008080F1
:1016B00080808080F805070706000088D8A8888801
:1016C00088880507070600008888C8A898888805C4
:1016D0000707060000708888888888700507070655
:1016E0000000F08888F08080800507070600007001
:1016F000888888A89068050707060000F08888F0A9
:10170000A090880507070600007088807008887020
:10171000050707060000F8202020202020050707E5
:1017200006000088888888888870050707060000FA
:101730008888888850502005070706000088888818
:1017400088A8A85005070706000088885020508800
:1017500088050707060000888850202020200507FC
:1017600007060000F80810204080F8030909060168
:10177000FFE080808080808080E005070706000011
:10178000804040201010080309090601FFE02020D6
:101790002020202020E005030306000520508805B6
:1017A00001010600FEF80303030601058040200541
:1017B0000505060000700878887805070706000010
:1017C0008080F0888888F00505050600007080801C
:1017D000887005070706000008087888888878055B
:1017E00005050600007088F08070050707060000F8
:1017F000304840E04040400507070600FE708888FA
:10180000887808700507070600008080F0888888BF
:10181000880307070601004000C0404040E004097B
:10182000090601FE10003010101010906005070727
:1018300006000080808890E090880307070601007A
:10184000C04040404040E0050505060000D0A8A883
:10185000A8A8050505060000B0C888888805050504
:1018600006000070888888700507070600FEF0886B
:101870008888F080800507070600FE7888888878C9
:101880000808050505060000B0C88080800505052C
:1018900006000078807008F0050707060000202089
:1018A000F82020201805050506000088888898681B
:1018B00005050506000088888850200505050600F6
:1018C000008888A8A850050505060000885020500B
:1018D000880507070600FE88888850204080050597
:1018E00005060000F8102040F80309090601FF2052
:1018F00040404080404040200109090602FF8080AE
:10190000808080808080800309090601FF8040403C
:1019100040204040408005030306000248A890FF95
:1019200000060900FE06018902FE20FFFE07FE06F2
:10193000FE00000006000701060606020080808007
:10194000800080030303060103A0A0A0050707068B
:1019500000FF5050F850F850500509090600FE20CD
:1019600070A8A07028A870200608080600FF40A8EC
:101970004810204854080507070600FF6090906053
:10198000989068010303060203808080020707061F
:1019900002FF408080808080400207070602FF80AF
:1019A0004040404040800505050600008850F85042
:1019B000880505050600002020F820200204040602
:1019C00002FEC0404080050101060002F80202024A
:1019D000060200C0C0040606060100101020408068
:1019E0008004060606010060909090906003060651
:1019F00006010040C0404040E004060606010060C9
:101A000090102040F0040606060100F0206010103F
:101A1000E005060606000010305090F81004060697
:101A2000060100F080E01010E004060606010060E8
:101A300080E0909060040606060100F0101020403F
:101A4000400406060601006090609090600406065F
:101A5000060100609090701060020505060200C04B
:101A6000C000C0C00207070602FEC0C000C0404060
:101A70008005050506000018608060180503030650
:101A80000001F800F8050505060000C0300830C068
:101A9000040707060100609010604000400506063C
:101AA0000600007090A8B0807005060606000020B1
:101AB0005088F88888050606060000F088F08888B7
:101AC000F00406060601006090808090600406061F
:101AD000060100E090909090E0040606060100F0F8
:101AE00080E08080F0040606060100F080E080803F
:101AF00080040606060100609080B090600406062F
:101B00000601009090F0909090030606060100E018
:101B100040404040E00506060600003810101090D6
:101B20006004060606010090A0C0A090900406067E
:101B30000601008080808080F0050606060000888F
:101B4000D8A8A8888804060606010090D0B0909016
:101B500090050606060000708888888870040606CE
:101B6000060100E09090E080800407070601FF6016
:101B70009090D0B06010040606060100E09090E05E
:101B800090900406060601006090402090600506D3
:101B900006060000F820202020200406060601008A
:101BA000909090909060040606060100909090F04E
:101BB00060600506060600008888A8A8D888050683
:101BC0000606000088502020508805060606000002
:101BD000888850202020040606060100F0102040CE
:101BE00080F0030606060100E080808080E00406A5
:101BF0000606010080804020101003060606010042
:101C0000E020202020E00503030600032050880583
:101C100001010600FEF802020206020480400404EC
:101C20000406010070909070040606060100808092
:101C3000E09090E0040404060100708080700406C7
:101C40000606010010107090907004040406010054
:101C500060B0C070040606060100205040E040401D
:101C60000406060601FE60909070106004060606E9
:101C700001008080E090909003060606010040007D
:101C8000C04040E00308080601FE2000602020203C
:101C9000A0400406060601008080A0C0A0900306B4
:101CA00006060100C040404040E005040406000074
:101CB000D0A8A888040404060100E09090900404D1
:101CC00004060100609090600406060601FEE090A4
:101CD00090E080800406060601FE7090907010105F
:101CE000040404060100A0D080800404040601005E
:101CF00070C030E00406060601004040E04050207D
:101D0000040404060100909090700404040601008D
:101D10009090606005040406000088A8A8500404A0
:101D200004060100906060900406060601FE909093
:101D300090709060040404060100F02040F0030756
:101D400007060100204040804040200107070602AE
:101D5000FF8080808080808003070706010080402C
:101D6000402040408004020206010350A0FFFFFF14
:101D7000FFFFFFFFFFFFFFFFFFFFFFFFFFFFFFFF73
:101D8000FFFFFFFFFFFFFFFFFFFFFFFFFFFF000061
:101D900000060007010606060200800080808080A1
:101DA0000406060601FF2070A0A0702005070706A4
:101DB00000FF304840F04040F8050505060000A847
:101DC000508850A80506060600008850F820F82024
:101DD0000107070602FF80808000808080040707DB
:101DE0000601FF708060906010E0030101060105AC
:101DF000A0060707060000788494A494847803055D
:101E00000506010160A06000E00505050600002848
:101E100050A05028040303060100F0101004010133
:101E2000060102F00607070600007884B4A4A48423
:101E300078040101060105F0040303060102609025
:101E4000600507070600FF2020F8202000F80305A2
:101E50000506010140A02040E0030505060101C080
:101E6000204020C00202020602044080040505064C
:101E700001FF9090B0D08005060606000078E8E8E3
:101E8000682828010101060202800202020602FE01
:101E9000408003050506010140C04040E003050500
:101EA00006010140A04000E0050505060000A05025
:101EB0002850A00508080600FF40C0405070307848
:101EC000100508080600FF40C0405068081038059B
:101ED00008080600FFC0204030F0307810040707E3
:101EE00006010020002060809060050707060000C2
:101EF0004020205070888805070706000010202029
:101F00005070888805070706000020502050708810
:101F100088050707060000285020507088880507AC
:101F2000070600005000205070888805070706004B
:101F3000002050205070888805060606000078A012
:101F4000F0A0A0B80408080601FE609080809060B0
:101F500020400407070601004020F080E080F004E4
:101F600007070601002040F080E080F00407070624
:101F700001002050F080E080F004070706010050C7
:101F800000F080E080F00307070601008040E04099
:101F90004040E00307070601002040E0404040E0E9
:101FA00003070706010040A0E0404040E0030707A8
:101FB000060100A000E0404040E0050606060000E3
:101FC0007048E848487004070706010050A090D008
:101FD000B090900407070601004020609090906048
:101FE00004070706010020406090909060040707F6
:101FF00006010020506090909060040707060100E1
:1020000050A06090909060040707060100500060A7
:1020100090909060050505060000885020508804C7
:1020200008080601FF1070B0B0D0D0E080040707A8
:102030000601004020909090906004070706010080
:102040002040909090906004070706010020509077
:1020500090909060040707060100500090909090C7
:102060006005070706000010208850202020040685
:102070000606010080E09090E0800406060601005C
:102080006090A0A090A00407070601004020007007
:102090009090700407070601002040007090907037
:1020A0000407070601002050007090907004070795
:1020B00006010050A0007090907004060606010012
:1020C00050007090907004070706010020502070A7
:1020D00090907005040406000070A8B0780406060D
:1020E0000601FE7080807020400407070601004052
:1020F000200060B0C07004070706010020400060A7
:10210000B0C07004070706010020500060B0C07026
:10211000040606060100500060B0C0700307070601
:102120000100804000C04040E00307070601002096
:102130004000C04040E003070706010040A000C087
:102140004040E0030606060100A000C04040E00455
:1021500007070601003060107090906004070706C2
:10216000010050A000E09090900407070601004095
:102170002000609090600407070601002040006086
:102180009090600407070601002050006090906066
:1021900004070706010050A0006090906004060646
:1021A00006010050006090906005050506000020C3
:1021B00000F8002004040406010070B0D0E0040719
:1021C0000706010040200090909070040707060168
:1021D00000204000909090700407070601002050F6
:1021E00000909090700406060601005000909090B8
:1021F000700409090601FE204000909090709060E4
:102200000408080601FE8080E09090E080800408C9
:10221000080601FE50009090907090604C6F6164D1
:10222000206D6D004C6F6164206D6D00556E6C6F9C
:102230006164206D6D00556E6C6F6164206D6D0082
:1022400046696C2E204469612E0046696C2E20443C
:1022500069612E004F6666004F6E004520696E2052
:102260006D6D5E3300416476616E6365204B0041A5
:102270006476616E6365204B00416476616E6365D0
:10228000642053657474696E6773004D3330332076
:102290005531204525692053256900504944204186
:1022A00075746F74756E6500504944204175746F84
:1022B00074756E65005049442D44005049442D44C6
:1022C000005049442D49005049442D49005049448B
:1022D0002D50005049442D50002008204661637461
:1022E0000020082046616374002008204D617800BA
:1022F0002008204D6178002008204D696E002008DC
:10230000204D696E004F6666004F6E004175746F18
:1023100074656D7000416476616E63656420536519
:102320007474696E6773005654726176206D696EBD
:10233000005654726176206D696E00566D696E00AC
:10234000566D696E00566D6178204500566D617856
:10235000204500566D6178205A00566D6178205AEC
:1023600000566D6178205900566D617820590056ED
:102370006D6178205800566D617820580041647670
:10238000616E6365642053657474696E67730041A0
:102390006D6178204500416D6178204500416D6197
:1023A00078205A00416D6178205A00416D61782093
:1023B0005900416D6178205900416D6178205800C5
:1023C000416D6178205800412D74726176656C0012
:1023D000412D74726176656C00412D726574726175
:1023E000637400412D7265747261637400416363AC
:1023F000656C00416363656C00416476616E636582
:10240000642053657474696E67730056652D6A6540
:10241000726B0056652D6A65726B00567A2D6A657F
:10242000726B00567A2D6A65726B0056792D6A655B
:10243000726B0056792D6A65726B0056782D6A654D
:10244000726B0056782D6A65726B00416476616E1E
:102450006365642053657474696E677300457374B3
:102460006570732F6D6D004573746570732F6D6D9E
:10247000005A73746570732F6D6D005A73746570B4
:10248000732F6D6D005973746570732F6D6D0059E6
:1024900073746570732F6D6D005873746570732F4E
:1024A0006D6D005873746570732F6D6D00416476A7
:1024B000616E6365642053657474696E6773003F71
:1024C00000496E697469616C697A652045455052AE
:1024D0004F4D0043616E63656C00496E6974004D39
:1024E00034323800496E697469616C697A652045D7
:1024F0004550524F4D0046696C616D656E740054D5
:10250000656D706572617475726500537465707382
:102510002F6D6D004A65726B00416363656C657277
:102520006174696F6E0056656C6F636974790053EE
:10253000657420686F6D65206F66667365747300DF
:102540004F6666004F6E00416C6C6F77204E65677A
:10255000617469766500436F6E6669677572617450
:10256000696F6E00436D643A2053746F7700436D5A
:10257000643A204465706C6F7900436D643A20536F
:10258000656C662D5465737400436D643A2053572F
:102590002D4D6F646500436D643A20526573657418
:1025A00000436F6E66696775726174696F6E004F84
:1025B0006666004F6E0043617365206C69676874DE
:1025C000004C69676874204272696768746E65734D
:1025D00073004C69676874204272696768746E653D
:1025E000737300436F6E66696775726174696F6EAD
:1025F0000053746F72652073657474696E6773003D
:1026000042656400426564004E6F7A7A6C65004EE4
:102610006F7A7A6C650046616E2073706565640040
:1026200046616E20737065656400436F6E6669670E
:1026300075726174696F6E004C6F616420736574AC
:1026400074696E67730053746F7265207365747478
:10265000696E677300526573746F72652066616995
:102660006C736166650050726568656174205045E1
:10267000544720636F6E6600507265686561742010
:10268000504C4120636F6E66004F6666004F6E00CF
:102690004F7574616765205265636F766572790066
:1026A00043617365206C6967687400424C546F75B0
:1026B00063680050726F6265205A204F66667365CA
:1026C0007400416476616E63656420536574746957
:1026D0006E6773004D61696E004D373032205425AE
:1026E00064004D36303020423020542564004D3790
:1026F0003032203B2564004D3730312054256400B2
:102700004368616E67652066696C616D656E740013
:102710005072656865617420437573746F6D005005
:102720007265686561742050455447005072656851
:1027300065617420504C4100507265686561742079
:10274000437573746F6D004261636B00436F6E7409
:10275000696E7565005075726765206D6F726500F2
:10276000524553554D45204F5054494F4E533A0012
:102770005052494E542050415553454400554E4CFB
:102780004F41442046494C414D454E54004C4F4129
:10279000442046494C414D454E540020204E6F7A0E
:1027A0007A6C653A200020005061726B696E672E6A
:1027B0002E2E00746F2073746172740066696C61F0
:1027C0006D656E74206368616E676500576169743A
:1027D00020666F720066696C616D656E7420756E3F
:1027E0006C6F6164005761697420666F7200506C91
:1027F0006561736520776169742E2E2E004E6F7AA5
:102800007A6C652068656174696E6700746F206812
:10281000656174206E6F7A7A6C65005072657373AF
:1028200020627574746F6E00746F20636F6E7469CC
:102830006E756500616E64207072657373206275D9
:1028400074746F6E00496E736572742066696C6192
:102850006D656E740066696C616D656E74206C6F79
:102860006164005761697420666F7200746F207232
:102870006573756D65207072696E74005072657352
:102880007320627574746F6E00746F207265737557
:102890006D652E2E2E005761697420666F72207050
:1028A00072696E740066696C616D656E7420707516
:1028B000726765005761697420666F72003E200080
:1028C000457874727564656420746F74616C3A0045
:1028D000256C642E25696D003E20004C6F6E676587
:1028E0007374206A6F622074696D653A003E20003F
:1028F000546F74616C207072696E742074696D65B8
:102900003A00436F6D706C657465643A20005072D4
:10291000696E7420436F756E743A20004D617820A3
:1029200054656D703A20313230004D696E20546527
:102930006D703A203500544265643A4550434F5318
:10294000203130304B004D61782054656D703A2055
:10295000333030004D696E2054656D703A2035007B
:1029600054303A204550434F53203130304B0050C3
:1029700053553A2047656E657269630050726F74F3
:102980006F636F6C3A20312E3000426175643A20DB
:102990003235303030300052414D505320312E33DB
:1029A0000042696C696E656172204C6576656C6980
:1029B0006E67004578747275646572733A203100F1
:1029C000687474703A2F2F6D61726C696E66772E21
:1029D0006F72670043522D32302050726F003230D8
:1029E00032362D30372D31330052656473746F6E7B
:1029F000654D617374657230310076322E33206913
:102A00007320637265617465642062790076322E8A
:102A100033202D203538363537004D61726C696EA4
:102A2000005072696E74657220537461747300543F
:102A30006865726D6973746F727300426F6172645E
:102A400020496E666F005072696E74657220496E1F
:102A5000666F004D61696E004D3130303000537447
:102A60006F70207072696E7400526573756D6520A9
:102A70007072696E74004F7574616765205265638A
:102A80006F76657279003F0053746F7020707269C1
:102A90006E74004261636B0053746F70004D323589
:102AA000005072696E7420706175736564005061C6
:102AB000757365207072696E74004D323400507207
:102AC000696E742066726F6D205344004368616EB6
:102AD00067652053442063617264004D32310041C8
:102AE000626F7574205072696E746572004368611C
:102AF0006E67652066696C616D656E740043686120
:102B00006E67652066696C616D656E74004D363068
:102B10003020423000436F6E666967757261746978
:102B20006F6E0054656D7065726174757265004DED
:102B30006F74696F6E00526573756D652070726990
:102B40006E74004E6F2053442063617264005475AC
:102B50006E650053746F70207072696E74005061FE
:102B6000757365207072696E7400496E666F2073AC
:102B7000637265656E004D6F76652058004D6F7607
:102B8000652059004D6F7665205A0045787472753E
:102B9000646572004578747275646572004D6F7675
:102BA00065205A004D6F76652059004D6F7665207F
:102BB00058004D6F74696F6E0044697361626C6593
:102BC000207374657070657273004D38340046610F
:102BD00064652048656967687400466164652048DB
:102BE0006569676874004F6666004F6E00426564F1
:102BF000204C6576656C696E67004C6576656C2067
:102C0000626564004732380A47323900486F6D65A3
:102C1000205A00473238205A00486F6D652059000D
:102C2000473238205900486F6D65205800473238C8
:102C30002058004175746F20686F6D650047323809
:102C4000004D6F76652061786973004D61696E0093
:102C50003F005374617274207072696E7420004377
:102C6000616E63656C005072696E740043616E6ED4
:102C70006F7420656E746572207375626469723A50
:102C80002000022E2E004D61696E0050726568654D
:102C9000617420504C4120456E6400507265686537
:102CA000617420504C412042656400507265686533
:102CB000617420504C410054656D7065726174758B
:102CC00072650050726568656174205045544720F4
:102CD000456E6400507265686561742050455447C4
:102CE00020426564005072656865617420504554E7
:102CF000470054656D706572617475726500436F4D
:102D00006F6C646F776E00507265686561742050F7
:102D1000455447005072656865617420504C41000D
:102D200046616E2073706565640046616E20737045
:102D30006565640042656400426564004E6F7A7A9E
:102D40006C65004E6F7A7A6C65004F7665727269B9
:102D5000646520536C6963657220426564004F7638
:102D600065727269646520536C696365722042659F
:102D700064004F7665727269646520536C6963659F
:102D800072204E6F7A7A6C65004F76657272696454
:102D90006520536C69636572204E6F7A7A6C6500AA
:102DA0004F6666004F6E004F7665727269646520EB
:102DB000536C696365722054656D7073004F66666D
:102DC000004F6E0042657474657220426564004D68
:102DD00061696E0050726F6265205A204F6666739B
:102DE000657400466C6F7700466C6F770046616EC5
:102DF0002073706565640046616E2073706565645C
:102E00000042656400426564004E6F7A7A6C65002A
:102E10004E6F7A7A6C650053706565640053706517
:102E20006564004D61696E0043616C632E0043610F
:102E30006C632E001FE020102010201010201020A6
:102E40002010201030300840048003001FE03FF0C5
:102E50003FF03FF01FE01FE03FF03FF03FF00FC0BA
:102E6000078003003FFFF038007030FC3020FC107A
:102E70002078102030102C00D02E31D02F7BD02F76
:102E80007BD02E31D02C00D020301020781020FCA8
:102E90001030FC303800703FFFF03FFFF03800701A
:102EA0003186302387102787902F87D02F03D0209B
:102EB00030102078102078102030102F03D02F876A
:102EC000D02787902387103186303800703FFFF07D
:102ED0001FFFF81FFFF8041040020820020820041A
:102EE000104008208010410010410008208004108C
:102EF000400000001FFFF81FFFF84361726420725A
:102F0000656D6F766564004361726420696E7365F8
:102F1000727465640043522D32302050726F20521B
:102F2000656164792E005072696E74696E672E2E29
:102F30002E005072696E7420706175736564005064
:102F400072696E742061626F727465640000006B58
:102F50004300006B430000A043000000000000009D
:102F60000000000000454550524F4D2064617461DF
:102F700073697A65206572726F722E0A00290A00E1
:102F80002062797465733B2063726320005365741B
:102F900074696E67732053746F7265642028004DE6
:102FA0006967726174696E6720454550524F4D20C4
:102FB00073657474696E677320746F205637300AB6
:102FC00000290A002062797465733B2063726320D4
:102FD000002073746F7265642073657474696E6722
:102FE00073207265747269657665642028002028F4
:102FF00063616C63756C6174656429210A0020212A
:103000003D2000454550524F4D20435243206D69AD
:10301000736D61746368202D202873746F7265640A
:103020002920002053697A653A2000496E6465784A
:103030003A2000204D61726C696E3D563730290A86
:1030400000454550524F4D2076657273696F6E2072
:103050006D69736D617463682028454550524F4D0A
:103060003D0048617264636F646564204465666115
:10307000756C742053657474696E6773204C6F614E
:103080006465640A00F4010000F4010000640000BB
:1030900000E803000000007A4300007A430000A02B
:1030A000400000C8410000A0420000A0420000C84B
:1030B000430000BA423A0A0020204D363033200047
:1030C0002055004C0046696C616D656E74206C6F14
:1030D00061642F756E6C6F6164206C656E677468D7
:1030E000733A0A0020204D393030204B004C696E75
:1030F00065617220416476616E63653A0A00202042
:103100004D383531205A005A2D50726F6265204F6C
:1031100066667365740020204D34313320530050AF
:103120006F7765722D4C6F7373205265636F766590
:1031300072793A0A0020440020490020204D3330A3
:10314000312050005049442073657474696E677370
:103150003A0A0020460020420020480020204D313D
:1031600034352053004D6174657269616C20686567
:103170006174757020706172616D65746572733A07
:103180000A00204A002020473239205720490020D9
:103190005A0020204D3432302053004175746F2086
:1031A000426564204C6576656C696E673A0A00205A
:1031B0005A0020590020204D323036205800486FE8
:1031C0006D65206F66667365743A0A0020450020BD
:1031D0005A0020590020580020540020530020207D
:1031E0004D32303520420020453C6D61785F655F8F
:1031F0006A65726B3E0020583C6D61785F785F6A4B
:1032000065726B3E20593C6D61785F795F6A6572CB
:103210006B3E205A3C6D61785F7A5F6A65726B3EE7
:1032200000416476616E6365643A20423C6D696E6C
:103230005F7365676D656E745F74696D655F7573E7
:103240003E20533C6D696E5F6665656472617465AE
:103250003E20543C6D696E5F74726176656C5F668A
:10326000656564726174653E002054002052002040
:10327000204D323034205000416363656C657261CB
:1032800074696F6E2028756E6974732F7332293AD2
:1032900020503C7072696E745F616363656C3E20A0
:1032A000523C726574726163745F616363656C3E06
:1032B00020543C74726176656C5F616363656C3E3B
:1032C0000A00204500205A0020590020204D3230AD
:1032D000312058004D6178696D756D2041636365DB
:1032E0006C65726174696F6E2028756E6974732FD6
:1032F0007332293A0A00204500205A002059002044
:10330000204D3230332058004D6178696D756D2045
:103310006665656472617465732028756E6974737F
:103320002F73293A0A0053746570732070657220F8
:10333000756E69743A0A0020204D323030204430D6
:103340000A0020204D32303020440020446973614F
:10335000626C65640A0046696C616D656E74207309
:10336000657474696E67733A0020204D31343920DA
:1033700043203B20556E69747320696E2043656C51
:10338000736975730A0020286D6D2900202047326B
:1033900031202020203B20556E69747320696E20F7
:1033A0006D6D00486F6D696E67206661696C65645C
:1033B000006F70656E0054524947474552454400BE
:1033C0003A20007A5F6D696E00795F6D696E0078F2
:1033D0005F6D696E005265706F7274696E6720650B
:1033E0006E6473746F70207374617475730A002057
:1033F0005A3A0020593A0020436F756E7420583AAB
:103400000020453A00205A3A0020593A00583A0024
:1034100020746F6F206C6F6E67206578747275739F
:10342000696F6E2070726576656E7465640A00203F
:10343000636F6C6420657874727573696F6E207049
:10344000726576656E7465640A0000000000000015
:103450000000000000000000484200004842000058
:1034600000415761726E696E673A20486F6D696EF0
:10347000672042756D702044697669736F72203CD5
:1034800020310A000202040000A0400000A0400019
:1034900000004000006B4300006B430000A043FFAE
:1034A000FFFF24F4D43050C38E20C2A24017828B79
:1034B0007011127A910D816CD90AA861E108C75880
:1034C0006607615143061E4B5D05C145A7041A41BD
:1034D0001104093D9803713931034036DB0265332D
:1034E0009102D4305402802E1D02632CEE01752A05
:1034F000C501B028A001102781018F2564012B246C
:103500004B01E0223401AC211F018D200D01801FF1
:10351000FC00841EED00971DDF00B81CD200E61BE6
:10352000C600201BBC00641AB200B219A8000A1918
:10353000A0006A189900D117910040178B00B516AA
:10354000840031167E00B31579003A157300C71454
:103550006F0058146A00EE13660088136300251389
:103560005E00C7125B006C12570015125400C111A7
:10357000510070114F0021114B00D61049008D10E1
:1035800047004610440002104200C00F4000800F68
:103590003E00420F3C00060F3B00CB0E3800930E5E
:1035A00037005C0E3500270E3400F30D3200C10DDC
:1035B0003100900D3000600D2E00320D2D00050DF4
:1035C0002C00D90C2B00AE0C2900850C29005C0CBA
:1035D0002700350C27000E0C2600E80B2400C40B36
:1035E0002400A00B23007D0B23005A0B2100390B74
:1035F0002100180B2000F80A1F00D90A1E00BB0A80
:103600001E009D0A1D00800A1D00630A1C00470A57
:103610001B002C0A1B00110A1A00F7091A00DD0909
:103620001900C4091900AB091900920917007B0998
:103630001800630917004C09160036091600200906
:1036400016000A091500F5081500E0081400CC085A
:103650001400B8081400A4081400900813007D0892
:1036600012006B08130058081200460812003408B4
:103670001100230811001208110001081100F007C1
:103680001000E0071000D0071000C0071000B007BE
:103690000F00A107100091070E0083070F007407A9
:1036A0000F0065070E0057070E0049070E003B0785
:1036B0000D002E070E0020070D0013070D00060752
:1036C0000D00F9060C00ED060D00E0060C00D40616
:1036D0000C00C8060C00BC060C00B0060C00A406CA
:1036E0000B0099060C008D060B0082060B00770676
:1036F0000B006C060B0061060A0057060B004C0617
:103700000A0042060A0038060A002E060A002406AD
:103710000A001A060A001006090007060A00FD053D
:103720000900F4050900EB050900E2050900D905C7
:103730000900D0050900C7050900BE050900B50547
:103740000800AD050800A50509009C0508009405C2
:1037500008008C050800840508007C050800740535
:1037600008006C050700650508005D0507005605A3
:1037700008004E050700470507004005080038050A
:103780000700310507002A050700230507001C056F
:103790000600160507000F050700080506000205CC
:1037A0000700FB040600F5040700EE040600E80429
:1037B0000600E2040700DB040600D5040600CF047F
:1037C0000600C9040600C3040600BD040600B704D1
:1037D0000600B1040500AC040600A6040600A0041F
:1037E00005009B04060095040500900406008A0469
:1037F000050085040500800406007A0405007504B0
:103800000500700405006B040500660405006104F2
:1038100005005C04050057040500520405004D0432
:10382000050048040500430405003E0404003A0472
:10383000050035040500300404002C0405002704AD
:103840000400230405001E0404001A0404001604E6
:103850000500110404000D0404000904050004041B
:10386000040000040400FC030400F8030400F40353
:103870000400F0030400EC030400E8030400E40384
:103880000400E0030400DC030400D8030400D403B4
:103890000400D0030400CC030400C8030300C503E4
:1038A000030024F404D9201BC40C5C0E9804C40942
:1038B0005F0265077101F405F900FB04B3004804D9
:1038C0008700C10369005803550003034500BE0289
:1038D0003A008402310053022A0029022500040222
:1038E0002000E4011C00C8011900AF011700980175
:1038F00014008401130071011000610110005101D6
:103900000E0043010D0036010B002B010B002001BE
:103910000B00150109000C01090003010800FB0060
:103920000800F3000800EB000700E4000600DE00DA
:103930000600D8000600D2000600CC000500C70033
:103940000500C2000500BD000400B9000400B50078
:103950000400B1000400AD000400A9000400A500AB
:103960000300A20003009F0004009B0003009800D6
:1039700003009500020093000300900003008D00F7
:1039800002008B0003008800020086000200840011
:103990000300810002007F0002007D0002007B0026
:1039A0000200790002007700010076000200740036
:1039B000020072000100710002006F0002006D0041
:1039C00001006C0002006A0001006900020067004B
:1039D0000100660001006500010064000200620051
:1039E000010061000100600001005F0002005D0055
:1039F00001005C0001005B0001005A000100590059
:103A00000100580001005700010056000100550058
:103A10000100540001005300000053000100520057
:103A2000010051000100500001004F0001004E0054
:103A300000004E0001004D0001004C0001004B0051
:103A400000004B0001004A0001004900010048004D
:103A50000000480001004700010046000000460049
:103A60000100450000004500010044000100430042
:103A7000000043000100420000004200010041003C
:103A8000000041000100400001003F0000003F0035
:103A900001003E0000003E0001003D0000003D002E
:103AA00001003C0000003C0000003C0001003B0025
:103AB00000003B0001003A0000003A00010039001C
:103AC0000000390001003800000038000000380014
:103AD000010037000000370001003600000036000A
:103AE0000000360001003500000035000000350000
:103AF00001003400000034000000340001003300F5
:103B000000003300000033000100320000003200EA
:103B100000003200010031000000310000003100DF
:103B200001003000000030000000300001002F00D4
:103B300000002F0000002F0000002F0001002E00C9
:103B400000002E0000002E0001002D0000002D00BE
:103B500000002D0000002D0001002C0000002C00B2
:103B600000002C0000002C0001002B0000002B00A6
:103B700000002B0000002B0001002A0000002A009A
:103B800000002A0000002A0001002900000029008E
:103B90000000290000002900000029000100280081
:103BA0000000280000002800000028000000280075
:103BB0000100270000002700000027000000270068
:103BC000000027000100260000002600000026005B
:103BD000000026000000260001002500000025004E
:103BE0000000250000002500000025000000250041
:103BF0000100240000002400000024000000240034
:103C00000000240001002300000023000000230026
:103C10000000230000002300000023000000230018
:103C2000010022000000220000002200000022000B
:103C300000002200000022000100210000002100FD
:103C400000002100000021000000210000002100F0
:103C500000002100010020000000200000002000E2
:103C600000002000000020000000200000002000D4
:103C70000000200001001F0000001F0000001F00C6
:103C800000001F0000001F0000001F0000001F00B8
:103C900001001E0000001E0000001E0000001E00AB
:103CA0000000C23100001C260000F4190000D80FEB
:103CB0000000EB080000C004000075020000400195
:103CC0000000626564002C2073797374656D207345
:103CD000746F7070656421204865617465725F4916
:103CE000443A20004265642068656174696E67200B
:103CF0006661696C65640048656174696E67206619
:103D000061696C65640042454420544845524D4108
:103D10004C2052554E4157415900546865726D61AF
:103D20006C2052756E61776179004531204865617C
:103D300074696E67206661696C65640048656174CA
:103D4000696E67206661696C65640045312054487E
:103D500045524D414C2052554E41574159005468EF
:103D600065726D616C2052756E61776179004531C5
:103D700020544845524D414C2052554E41574159CF
:103D80000042454420544845524D414C2052554E26
:103D90004157415900546865726D616C2052756ECF
:103DA00061776179004531204572723A204D415862
:103DB00054454D50004572723A204D415854454D7E
:103DC0005020424544004D415854454D5020747296
:103DD00069676765726564004531204572723A20F3
:103DE0004D494E54454D50004572723A204D494E52
:103DF00054454D5020424544004D494E54454D5088
:103E000020747269676765726564004D38342058A4
:103E1000302059323030205A204500202F002042D7
:103E2000403A0020403A0020573A007C3C3E5E2B4E
:103E30003D3F2F5B5D3B2C2A225C0043616E6E6F21
:103E400074206F70656E2073756264697220005310
:103E5000442063617264206F6B0A006F70656E525C
:103E60006F6F74206661696C65640A00766F6C75AB
:103E70006D652E696E6974206661696C65640A00FF
:103E8000534420696E6974206661696C0A004D3282
:103E900034004D32332025730070012C019001272E
:103EA00001B0012201C0011D01F00118011002132F
:103EB0000130020E016002090190020401C002FFFC
:103EC000000003FA004003F5008003F000D003EB8C
:103ED000002004E6007004E100E004DC004005D7A7
:103EE00000C005D2004006CD00D006C8008007C340
:103EF000003008BE00F008B900C009B400B00AAF35
:103F000000B00BAA00D00CA500000EA000500F9B23
:103F100000C01096005012910000148C00C015874C
:103F200000B0178200B0197D00D01B7800001E730E
:103F30000040206E0090226900F024640040275F5A
:103F40000090295A00E02B5500102E500020304BD5
:103F50000010324600E033410090353C0010373706
:103F60000070383200A0392D00B03A2800A03B2361
:103F700000603C1E00103D1900903D1400103E0FE3
:103F800000703E0A00C03E0500003F0000403FFBBD
:103F9000FF803FF6FFC03FF1FF57726974696E679B
:103FA00020746F2066696C653A20002E0A006F70DD
:103FB000656E206661696C65642C2046696C653AA3
:103FC00020002E0A006F70656E206661696C656462
:103FD0002C2046696C653A200046696C6520736543
:103FE0006C65637465640A002053697A653A200041
:103FF00046696C65206F70656E65643A2000667274
:1040000065736800646F696E67002066696C653A65
:1040100020004E6F772000454E4420535542524FAA
:104020005554494E450A002220706F7300222070BB
:104030006172656E743A2200535542524F5554498D
:104040004E452043414C4C207461726765743A229E
:1040500000747279696E6720746F2063616C6C20E4
:104060007375622D67636F64652066696C65732084
:104070007769746820746F6F206D616E79206C654C
:1040800076656C732E204D4158206C6576656C20EA
:1040900069733A310A002E0A0044656C6574696FD1
:1040A0006E206661696C65642C2046696C653A20F7
:1040B0000046696C652064656C657465643A0057F8
:1040C000726974696E6720746F2066696C653A2046
:1040D000002E0A006F70656E206661696C65642C45
:1040E0002046696C653A2000FFE0FFD11000FFFE1A
:1040F000FFD0FFE0FFC1FFD1E240A0C8A6A22FF889
:1041000000238127AC00AFFF64A5FF64FF64A4FF18
:10411000D0FFFE4D313030302053002020506C61F4
:104120006E6E657242756666657242797465733A41
:1041300020002046726565204D656D6F72793A20CA
:1041400000436F6D70696C65643A204A756C20316C
:104150003620323032360A00207C20417574686F78
:10416000723A202852656473746F6E654D61737482
:1041700065723031290A00323032362D30372D3118
:104180003300204C61737420557064617465643A27
:10419000200076322E33202D2035383635370A0070
:1041A0004D61726C696E0020536F66747761726541
:1041B0002052657365740A00205761746368646FE8
:1041C000672052657365740A002042726F776E2013
:1041D0006F75742052657365740A002045787465A4
:1041E000726E616C2052657365740A00506F77655A
:1041F0007255700A0073746172740A006175746F8D
:1042000025632E67004C6F6164696E672073657467
:1042100074696E67732066726F6D2053440A00657F
:1042200072726F722077726974696E6720746F2082
:1042300066696C650A00446F6E6520736176696E0D
:10424000672066696C652E0A004D323900456E6440
:1042500073746F70732025632025632025632025E8
:104260006300205A3A0020593A0020583A00656EFF
:104270006473746F7073206869743A200047323732
:104280000000002100240027002A002D0030003308
:104290000001010000040107010A010000220025BD
:1042A0000028002B002E0031003400020100000520
:1042B0000108010B01000020002300260029002C2A
:1042C000002F003200000100000301060109010572
:1042D000050505070508080808020202020A0A087F
:1042E00008040404040101010101010101030303A5
:1042F0000303030303040707070C0C0C0C0C0C0C42
:104300000C0202020206060606060606060B0B0B48
:104310000B0B0B0B0B010210202008081020401083
:104320002040800201020108040201010204081079
:104330002040808040201008040201800402018097
:1043400040201008040201080402010102040810C0
:10435000204080010204081020408000000A0B0267
:10436000090C0D0E08070304010000000000000006
:10437000000000000000000000000000000000003D
:1043800000000000000000121110000000000000FA
:10439000000000000000000000000000000000001D
:1043A000004D6F766520302E3032356D6D004D6FCB
:1043B000766520302E316D6D004D6F766520316D44
:1043C0006D004D6F76652031306D6D004D6F7665F7
:1043D000206178697300486F74656E6420746F6F34
:1043E00020636F6C64004578747275646572004D6B
:1043F0006F7665205A004D6F76652059004D6F76B7
:104400006520580050726F62696E67206661696C42
:1044100065640A0050726F62696E67206661696C3C
:10442000656400486F6D65202573257325732066CC
:1044300069727374002066697273740A00486F6D44
:10444000652000220A00556E6B6E6F776E20636FD9
:104450006D6D616E643A20220020746F6F206C6F66
:104460006E6720657874727573696F6E20707265FF
:1044700076656E7465640A0020636F6C64206578ED
:1044800074727573696F6E2070726576656E74658F
:10449000640A00204500205A00205900204D39327E
:1044A0002058002E0A006F70656E206661696C6589
:1044B000642C2046696C653A2000FC00D60111246A
:1044C0001FBECFEFD1E2DEBFCDBF00E00CBF13E0D7
:1044D000A0E0B2E0EAE8F6E802E00BBF02C0079015
:1044E0000D92AC3DB107D9F729E1ACEDB3E001C0C5
:1044F0001D92A938B207E1F712E2CEE5D2E200E060
:1045000006C021970109802FFE010F947F3FCD3512
:10451000D10780E00807A9F70F94AB2E0D94334321
:104520000C940000CF93DF93EC01CB01BA010F9400
:10453000AB3820E030E048EC51E40F940A390F9496
:10454000FB40688379838A839B83DF91CF910895B1
:10455000CF93DF93EC01CB01BA010F94AB3820E08D
:1045600030E048EC52E40F940A390F94FB40688322
:1045700079838A839B83DF91CF910895CF93DF93D3
:10458000EC01CB01BA010F94AB382AE037ED43E2DE
:104590005CE30F940A39688379838A839B83DF9174
:1045A000CF910895CF93DF93EC01CB01BA010F9423
:1045B000AB382AE037ED43E25CE30F940A396883B5
:1045C00079838A839B83DF91CF910895CF93DF9383
:1045D000EC01CB01BA010F94AB382DEC3CEC4CEC68
:1045E0005DE30F940A39688379838A839B83DF9123
:1045F000CF910895CF93DF93EC01CB01BA010F94D3
:10460000AB3820E030E048EC51E40F940A3968837D
:1046100079838A839B83DF91CF910895CF93DF9332
:10462000EC01CB01BA010F94AB3820E030E048EC4C
:1046300052E40F940A39688379838A839B83DF91DC
:10464000CF910895CF93DF93EC01CB01BA010F9482
:10465000AB382FE632E143E85AE30F940A39688316
:1046600079838A839B83DF91CF910895CF93DF93E2
:10467000EC01CB01BA010F94AB38688379838A834C
:104680009B83DF91CF910895CF93DF93EC01CB0112
:10469000BA010F94AB380F94FB406883DF91CF9140
:1046A0000895CF93DF93EC01CB01BA010F94AB389F
:1046B0000F94F44079836883DF91CF910895FC01D2
:1046C00084910895FC0180810895089590E080E030
:1046D000089590914E0A292F30E0F901E652FA4EE2
:1046E0008083220F331FF901EE52FA4E20916B02A4
:1046F00030916C02318320832FEF3FEF30936C02B7
:1047000020936B029F5F943040F490934E0A809107
:10471000D30B8F5F8093D30B089510924E0AF7CF7F
:104720004F925F926F927F928F929F92AF92BF92C1
:10473000CF92DF92EF92FF92CF934B015C01690120
:104740007A0120E030E040E251E4C701B6010F9465
:10475000883F2B013C0127E137EB41ED58EB0F94EB
:10476000E84187FD50C027E030E04BE653E4C30149
:10477000B2010F94A43818160CF445C020E030E0C4
:1047800040E252E4C501B4010F94883F2B013C0183
:1047900027E137EB41ED58EB0F94E84187FD33C03B
:1047A00027E030E04BE653E4C301B2010F94A43894
:1047B00018164CF127E93FEF4FE151E4C501B40170
:1047C0000F94E84187FD1FC027E030E043E453E445
:1047D000C501B4010F94A4381816ACF027E93FEFD7
:1047E0004FE151E4C701B6010F94E84187FD0BC0CA
:1047F000C1E027E030E040E653E4C701B6010F9482
:10480000A43818160CF4C0E08C2FCF91FF90EF90D5
:10481000DF90CF90BF90AF909F908F907F906F90E0
:104820005F904F9008950F94F4408091FF05882386
:1048300079F01616170664F480918507811104C07B
:104840008091EC1582FF04C06091160270911702EE
:10485000CB0108952F923F924F925F926F927F9279
:104860008F929F92AF92BF92CF92DF92EF92FF9280
:104870000F931F93CF93DF93CDB7DEB72E970FB66D
:10488000F894DEBF0FBECDBF8A83162F4983822ED8
:10489000262F30E03A872987E4E08E9FC00111245B
:1048A0009C878B87FC01E20FF31FEE0FFF1FEE0FBB
:1048B000FF1FE65EF94F60817181828193819B01C8
:1048C000AC010F947A42882309F42EC19A81E981C0
:1048D0009E0F882D810F24E0929FF0011124A9855D
:1048E000BA85AE0FBF1FAA0FBB1FAA0FBB1FA65EC4
:1048F000B94FAC901196BC9011971296CC9012972C
:104900001396DC903981930F24E0929FA00111242B
:10491000A985BA85A40FB51FAA0FBB1FAA0FBB1F7D
:10492000A65EB94FEC901196FC90119712960C91DF
:10493000129713961C91282F30E0AB85BC85A20FEF
:10494000B31FAA0FBB1FAA0FBB1FA65EB94F9C9037
:1049500011967C90119712966C90129713965C901A
:10496000880D90E0AB85BC85A80FB91FAA0FBB1FAF
:10497000AA0FBB1FA65EB94F8C9011964C90119751
:1049800012963C90129713962C90E20FF31FEE0FA5
:10499000FF1FEE0FFF1FE65EF94F30813983218143
:1049A0002A8332813B8323812C83FA01E80FF91F8C
:1049B000EE0FFF1FEE0FFF1FE65EF94F30813D83C4
:1049C00081818E8392819F83238128879701A8010B
:1049D000B701C8010F947A42882321F0E12CF12C11
:1049E00000E010E09501A601B501C6010F947A42DE
:1049F000882311F057016801282D342D432D522DA5
:104A0000682D742D832D922D0F947A42882321F0E6
:104A1000812C412C312C212C292D372D462D552D23
:104A2000692D772D862D952D0F947A42882321F0BC
:104A3000982C742C632C522C2D813E814F815885EB
:104A40006D817E818F8198850F947A42882321F031
:104A50001D821E821F82188629813A814B815C81CA
:104A600069817A818B819C810F947A42882341F0FD
:104A70003D8139838E818A839F819B83E885EC8386
:104A80002B853C8589859A85280F391F220F331F76
:104A9000220F331F265E394F3A8729879501A601D9
:104AA000B501C6010F94883F9701A8010F94873F75
:104AB0006B017C01292D372D462D552D692D772D24
:104AC000862D952D0F94883F282D342D432D522D62
:104AD0000F94873F9B01AC01C701B6010F94883F3B
:104AE0006B017C0129813A814B815C8169817A81EA
:104AF0008B819C810F94883F2D813E814F81588509
:104B00000F94873F9B01AC01C701B6010F94883F0A
:104B100020E030E040E450E40F948240E985FA85DB
:104B200060837183828393832E960FB6F894DEBFE1
:104B30000FBECDBFDF91CF911F910F91FF90EF90EE
:104B4000DF90CF90BF90AF909F908F907F906F90AD
:104B50005F904F903F902F900895CF93DF9300D0B8
:104B60001F92CDB7DEB70F94AB382FE632E143E8A2
:104B70005AE30F940A3969837A838B839C83CE012D
:104B800001960F94F5190F900F900F900F90DF91F1
:104B9000CF910895CF92DF92EF92FF920F931F93E0
:104BA000CF9390911302913009F461C0662351F0C4
:104BB00010922B04109227041092280410922904BA
:104BC00010922A04C82F0F949A20C0902704D090E6
:104BD0002804E0902904F0902A049B01AC012C19D0
:104BE0003D094E095F0969017A01F7FC40C0209137
:104BF0002B04C7FD15C04C2F0C2E000C550B4C5F21
:104C00005F4FE22F022E000CFF0B4E175F077CF167
:104C100044EFC42EDD24D394E12CF12C2C1734F472
:104C200038EEC32E33E0D32EE12CF12CC60ED71E66
:104C3000E81EF91EC0922704D0922804E0922904AD
:104C4000F0922A04022F017010E084E2809FB001EC
:104C5000819F700D701B112460597C4F82E390E09E
:104C60000E947D9F80912B048F5F80932B04CF91B6
:104C70001F910F91FF90EF90DF90CF900895CF9309
:104C8000DF9300D01F92CDB7DEB70F94AB382AE088
:104C900037ED43E25CE30F940A3969837A838B83AF
:104CA0009C83CE0101960E9414890F900F900F9063
:104CB0000F90DF91CF910895CF93DF9300D01F9293
:104CC000CDB7DEB70F94AB382DEC3CEC4CEC5DE38C
:104CD0000F940A3969837A838B839C83CE01019672
:104CE0000E9414870F900F900F900F90DF91CF913B
:104CF0000895CF93DF9300D01F92CDB7DEB70F9406
:104D0000AB3820E030E048EC51E40F940A39698375
:104D10007A838B839C83CE0101960E946B8B0F90CC
:104D20000F900F900F90DF91CF910895CF93DF9365
:104D300000D01F92CDB7DEB70F94AB3820E030E043
:104D400048EC52E40F940A3969837A838B839C83FD
:104D5000CE0101960E946B8B0F900F900F900F90D9
:104D6000DF91CF910895CF93DF9300D01F92CDB7FD
:104D7000DEB70F94AB382AE037ED43E25CE30F94E3
:104D80000A3969837A838B839C83CE0101960E94C2
:104D9000F18B0F900F900F900F90DF91CF910895AE
:104DA0000F94AB380F94FB40862F0C94629C0F94A9
:104DB000AB380F94F440CB010C946A8FDF92EF92E2
:104DC000FF920F931F93CF93DF93EC01D62E1CAD70
:104DD0000BAD7C0184E0E80EF11CE98DFA8DC70172
:104DE0001995412F480F2D2D602FC7010F94822553
:104DF0009BAD890F8BAF81E090E0DF91CF911F9148
:104E00000F91FF90EF90DF9008958F929F92AF9255
:104E1000BF92CF92DF92EF92FF920F931F93CF93A7
:104E2000DF93EC018B017A018A859B8586179707B2
:104E300031F0888199810F945C241B870A878885CB
:104E40009985019641F50C81DA808E81D80EA88073
:104E5000B980D5015596ED91FC91C5011995080FC2
:104E600010E0F70121917F0121114FC08E819F81B8
:104E7000810F911D9F838E8390E080E0DF91CF9121
:104E80001F910F91FF90EF90DF90CF90BF90AF9068
:104E90009F908F900895CE80DF80F701008110E011
:104EA000002321F1A880B980602FC5010F94B4249C
:104EB000D50151961C9111954701BFEF8B1A9B0AA2
:104EC000F40181914F01882351F0D50150969C91B6
:104ED000190F082F682FC5010F94B424F1CF0032A9
:104EE00081F0F50183899189890F180FC10ED11CBA
:104EF000288539852C153D0508F0A5CF81E090E087
:104F0000BDCFD50150968C91F0CF402F6D2DC501AE
:104F10000F948225D80E180FA4CF80915104909140
:104F20005204009731F04AE050E070E060E00D94E8
:104F3000A33560E070E0CB0108950E948D2797FDB6
:104F40000CC00E948D276F3F71058105910509F006
:104F500034F40E948D27862F089580E008958FEF06
:104F600008958091510490915204892B41F00E9440
:104F70009D2791E0811101C090E0892F089591E073
:104F8000FCCF0E948D27CB010895CF92DF92EF9244
:104F9000FF920F931F93CF93DF938B01CBE6DCE05F
:104FA0002091790230917A0240917B0250917C02EB
:104FB000FC0160817181828193810F9482402C85F4
:104FC0003D854E855F850F94883F6C877D878E87F2
:104FD0009F87C12CD12C760127E73CE043E75CE0BA
:104FE0006FE67CE0CE010F94E715DF91CF911F9122
:104FF0000F91FF90EF90DF90CF900C945ED0CF9206
:10500000DF92EF92FF920F931F93CF93DF936B0189
:105010007A01EC01C152DC4F28813CE0389F8001CD
:10502000399F100D112427FF24C0FB01118210822B
:1050300088818F5F888388819801280F311D87FDC3
:105040003A95C90120914D15F6012817190629F046
:1050500024F088818C300CF43CC0808191810496CE
:1050600080349C4908F475C0F601808191810496D2
:1050700072C088819801280F311D87FD3A95C901BA
:1050800020914D152817190699F294F28881A801EC
:10509000480F511D87FD5A95FA01EE0FFF1FE40FCF
:1050A000F51FEF51FB4E808186FFC2CF8881F8014A
:1050B000E80FF11D87FDFA95CF01EE0FFF1FE80FF6
:1050C000F91FEF51FB4E808160E08F730F94A01E9B
:1050D000AFCF808191812881A801420F511D27FD0A
:1050E0005A959A01FA01EE0FFF1FE20FF31FEF51DD
:1050F000FB4E21813281820F931FF70191838083C0
:1051000088819801280F311D87FD3A95F901EE0F2E
:10511000FF1FE20FF31FEF51FB4E808186FF20C07F
:105120008881080F111D87FD1A95F801EE0FFF1FEA
:10513000E00FF11FEF51FB4E808161E08F73DF9133
:10514000CF911F910F91FF90EF90DF90CF900D9432
:10515000A01E80E49CE9F701918380838FEF888310
:10516000DF91CF911F910F91FF90EF90DF90CF9043
:1051700008959091530480911102992321F0811197
:1051800002C060E00AC06091120260932504992376
:1051900011F08823B1F38823A1F370E088E00D9427
:1051A000901F8091510490915204009731F04AE091
:1051B00050E070E060E00D94D13660E070E0CB012B
:1051C000089563E972E084E690E00E947D9F6AEBB7
:1051D00072E084E690E00C947D9F81110C94E128AC
:1051E00068EB71E084E190E00C947D9F282F109291
:1051F000ED0B8091F30B9091F40B8130904820F0EF
:105200001092F40B1092F30B8091A705882331F0D4
:105210008091F30B8093E50B1092E00B8091DF0BF4
:105220001816BCF4082E000C990B821B91092091D2
:10523000E50B022E000C330B2817390754F097FFAB
:1052400002C090E080E08093E50B9093F40B809394
:10525000F30B8091E50B6623A9F09091E60B89177B
:1052600014F48093E60B2091E60B022E000C330B16
:105270002C5F3F4F482F082E000C550B2417350785
:105280001CF484508093E60B08958F929F92AF9206
:10529000BF92EF92FF920F931F93CF93DF93EC0196
:1052A0008B01E42EF22E80919215909193158C171C
:1052B0009D0709F442C04091840650918506609193
:1052C0008606709187064093A0055093A1056093D0
:1052D000A2057093A30524EAC13AD207C9F58F59F4
:1052E0009F4871F40F949A206E517B4F8F4F9F4FC0
:1052F00060939705709398058093990590939A050C
:10530000D0939315C09392151093F40B0093F30B65
:10531000E092E60BF092DF0BCF59DF4821F41092B8
:10532000A6051092960582E080937F0281E080932B
:10533000E00B1092A8051092EF0BDF91CF911F9117
:105340000F91FF90EF90BF90AF909F908F90089536
:105350002FE8CF39D207A1F6815A944A19F0CFE944
:10536000DFE8CECF0F949A20809097059090980513
:10537000A0909905B0909A05681979098A099B0946
:1053800097FFEDCFCEECDEE2BBCFCF92DF92EF9274
:10539000FF921092860710928507C0905D02D09010
:1053A0005E02E0905F02F090600220E030E0A90130
:1053B000C701B6010F94E84187FF28C02AED3FE0FE
:1053C00049E450E460915A0670915B0680915C0656
:1053D00090915D060F940A3920E030E040E65FE3EB
:1053E0000F940A3920E030E040E65FE30F940A3979
:1053F00022E538EB4EE95FE30F940A392FE632E1FC
:1054000043E85AE30F940A396B017C01C0923004DF
:10541000D0923104E0923204F09233040E94B286BA
:1054200060932C0470932D0480932E0490932F048A
:105430001092EE0B20E040E070E060E087E994E33A
:105440000E94452981E08093A605FF90EF90DF90B0
:10545000CF9008958091541590915515891B8F70A8
:1054600071F49091EC1592FB882780F992FD08C0A9
:1054700081E090919D06913019F080E0089581E0DF
:105480000895E0919605E63000F581E08E0F809357
:1054900096058091F30B9091F40BB0E0A0E0309171
:1054A000E60B2091DF0B48E0E49FF0011124EA595C
:1054B000FA4F409192155091931551834083828306
:1054C0009383A483B58336832783089520E040E047
:1054D00070E060E08FE99FE80C944529E091960523
:1054E000EE2389F0E150E093960588E0E89FF00113
:1054F0001124EA59FA4F62817381278146818081A4
:1055000091810C9445290C94662ACF93DF9300D0A7
:105510001F92CDB7DEB70F94FB400F94A938698373
:105520007A838B839C83CE0101960E946B8B0F90B4
:105530000F900F900F90DF91CF9108950F94AB389B
:1055400020E030E048EC51E40F940A390C94852AAD
:105550000F94AB3820E030E048EC52E40F940A3965
:105560000C94852ACF92DF92EF92FF926B017C011F
:1055700020E030E0A9010F94A43820E030E040E0C2
:105580005FE387FF04C020E030E040E05FEBC7014D
:10559000B6010F94883F0F94F440CB01FF90EF9039
:1055A000DF90CF900C946A8F0F94AB380C94B22A92
:1055B000AF92BF92CF92DF92EF92FF920F931F9321
:1055C000CF93DF93EC015B018A01FB01199587FD05
:1055D00016C0C82ED12CF12CE12C2196F801C082E6
:1055E000D182E282F382CE01DF91CF911F910F91A0
:1055F000FF90EF90DF90CF90BF90AF900895982FDD
:10560000907E903CA9F48F7190E0B0E0A0E06C0136
:105610007D0126E0CC0CDD1CEE1CFF1C2A95D1F789
:10562000CE010196F50119958F73C82A2296D6CF1F
:10563000982F907F903E11F58F7090E0B0E0A0E041
:105640006C017D0186E0CC0CDD1CEE1CFF1C8A95F4
:10565000D1F7CE010196F50119958F73C82A96E00E
:10566000CC0CDD1CEE1CFF1C9A95D1F7CE010296E6
:10567000F50119958F73C82A2396B0CF982F987F7C
:10568000903F79F5877090E0B0E0A0E06C017D017B
:10569000F6E0CC0CDD1CEE1CFF1CFA95D1F7CE0118
:1056A0000196F50119958F73C82AA6E0CC0CDD1C74
:1056B000EE1CFF1CAA95D1F7CE010296F5011995B3
:1056C0008F73C82AB6E0CC0CDD1CEE1CFF1CBA950B
:1056D000D1F7CE010396F50119958F73C82A249648
:1056E0007DCF982F9C7F983FE1F5837090E0B0E0EC
:1056F000A0E06C017D0156E0CC0CDD1CEE1CFF1C13
:105700005A95D1F7CE010196F50119958F73C82AE4
:1057100066E0CC0CDD1CEE1CFF1C6A95D1F7CE01B7
:105720000296F50119958F73C82A76E0CC0CDD1C22
:10573000EE1CFF1C7A95D1F7CE010396F501199561
:105740008F73C82AE6E0CC0CDD1CEE1CFF1CEA952A
:10575000D1F7CE010496F50119958F73C82A2596C5
:105760003DCF982F9E7F9C3F09F049C0817090E00B
:10577000B0E0A0E06C017D0186E0CC0CDD1CEE1CED
:10578000FF1C8A95D1F7CE010196F50119958F730B
:10579000C82A96E0CC0CDD1CEE1CFF1C9A95D1F7B4
:1057A000CE010296F50119958F73C82A26E0CC0C1C
:1057B000DD1CEE1CFF1C2A95D1F7CE010396F501E6
:1057C00019958F73C82A36E0CC0CDD1CEE1CFF1C2B
:1057D0003A95D1F7CE010496F50119958F73C82A31
:1057E00046E0CC0CDD1CEE1CFF1C4A95D1F7CE0127
:1057F0000596F50119958F73C82A2696EFCE982F36
:10580000907C903841F4807C803869F42196CE01F8
:10581000F5011995F8CF8E7F8D3F28F02196CE01A6
:10582000F5011995F8CFC12CD12C7601D7CE1F9355
:10583000CF93DF9300D01F92CDB7DEB710E0AE015B
:105840004F5F5F4F6FE573E20E94D82A49815A810A
:105850006B817C81452B462B472B11F01F5FEFCFCF
:10586000812F0F900F900F900F90DF91CF911F918C
:1058700008951F93CF93DF9300D01F92CDB7DEB76B
:1058800010E0AE014F5F5F4F62E673E20E94D82ADC
:1058900049815A816B817C81452B462B472B11F026
:1058A0001F5FEFCF812F0F900F900F900F90DF9120
:1058B000CF911F9108950F934CE0849F402D1124A8
:1058C00021E0240F20939B058CE0840F8093310C02
:1058D00090E002963091CC153817190621F01CF093
:1058E00080E00F9108958091CE152817C8F781E0C8
:1058F0008093B815662351F04D5F0BE020E860E01F
:1059000088E995E10F9421231092B8158091310C0C
:105910009091CC15891720F32091CE1590919B057D
:105920002917F0F21092CF158093D01581E0D9CFCE
:1059300020916505022E000C330B8217130661F0CF
:105940008093650560E279E1813011F063EF73E1E6
:1059500088E995E10D945C240895EF92FF920F93EE
:105960001F93CF93DF93CDB7DEB72C970FB6F89484
:10597000DEBF0FBECDBF6F3F71058105910509F0F8
:10598000C0F484E995E10E94DE26E0919C15F09137
:105990009D153196849190E02C960FB6F894DEBF59
:1059A0000FBECDBFDF91CF911F910F91FF90EF9070
:1059B00008951091CF150091D0152091A5052111C2
:1059C0000FC044EC53E1602F812F0F94EE2520E0AF
:1059D00030E0120F1093CF150093D015C901DCCF22
:1059E000E0909C15F0909D1528E935E13A832983D4
:1059F000212F30E03C832B83202F30E03E832D830A
:105A000018861F822FEF3FEF3A8729871C861B8657
:105A10009E012F5F3F4FAB01BC01C7010F942A01CC
:105A2000B70188E995E10F945C242F813885D1CFA7
:105A3000EF92FF920F931F93CF93DF93CDB7DEB713
:105A40002C970FB6F894DEBF0FBECDBF1091CF15C7
:105A50000091D0152091A50521111AC044EA53E107
:105A6000602F812F0F94EE2580E090E0180F1093A7
:105A7000CF150093D0152C960FB6F894DEBF0FBE4D
:105A8000CDBFDF91CF911F910F91FF90EF900895BF
:105A9000E0909C15F0909D1528E935E13A83298323
:105AA000212F30E03C832B83202F30E03E832D8359
:105AB00018861F827A8769871C861B869E012F5F46
:105AC0003F4F4FE553E2BC01C7010F94EA01B70114
:105AD00088E995E10F945C248F819885C7CF6FEF9B
