:100000000C94E3210C9414220C9414220C941422CA
:100010000C9414220C9414220C9414220C94142288
:100020000C9414220C9414220C9414220C94142278
:100030000C9414220C9414220C9414220C94142268
:100040000C9414220C942EC70C9414220C94142299
:100050000C9414220C9414220C9412C00D94B81811
:100060000C9414220C94EB730C94E1730C941422F2
:100070000C9414220C9414220C9414220C94142228
:100080000C94DE3B0C9414220C9414220C94142235
:100090000C9414220C9414220C9414220D940B1F13
:1000A0000C9414220C9414220C94B03B0C94142243
:1000B0000C9414220C9414220C9414220C94823B61
:1000C0000C9414220C9414220C9414220C941422D8
:1000D0000C9414220C9414220C9414220C941422C8
:1000E0000C941422084AD73B3BCE016E84BCBFFD62
:1000F000C12F3D6C74319ABD56833DDA3D00C77FF8
:1001000011BED9E4BB4C3E916BAAAABE0000008090
:100110003F05A84CCDB2D44EB93836A9020C50B91F
:10012000918688083CA6AAAA2ABE000000803F004B
:100130000C947D920C94757D0D945E170C94B5AC67
:100140000D9401170C94BB750D94B9170C94199B61
:100150000C94F7F60C9492220C94F8770C94E5F337
:100160000C94AC290C9471F50C94E72E0C94E9F3E3
:100170000C94838B0C94D4250C947A7D0D9480235D
:100180000C94FF750C94F1250C94BE7B0C94847632
:100190000C94A9830C94EE380D948C170C9401F4F4
:1001A0000C940B2F0C94B7250D9447170C944FB556
:1001B0000C947A9F0C948A790C94F32E0C94CD7B3A
:1001C0000C948FA70C94737E0C9493750C94322628
:1001D0000C9438A40C94DCF30C94F92E0C94E79A4C
:1001E0000C94BEA90C9495920D944F170C94F6F6AE
:1001F0000C946C9F0C9488990C946D920C948E9F27
:100200000D9468170D9488160D94F7160D94E51645
:100210000C94809F0D94AF170C94FD750C944DF7C2
:100220000C9498750D9454170C94D4F30C94CF2E11
:100230000C9446810C9455920C94F0770C949C7617
:100240000C94FDF30D94A3160C947D9F0C945934DB
:100250000C9416220C94707D0C945D920C94C279CF
:100260000D94E1170C94FEA50C94E3220C94839F4B
:100270000C94DFF30D94E0160C94E6750C94138047
:100280000C94F7F30C94F3F30C9405F40C940825F8
:100290000C9475920C948A760C9496760D94721741
:1002A0000C94A6220C94FF2E0D94A0170C94EA2215
:1002B0000C94939F0C94D8F30C94869F0C94EFF3BA
:1002C0000D94C3170C94E6220C94AAF30C9419F71E
:1002D0000C94909F0D9496170C94D8290C94E87E5A
:1002E0000C94D0F30C9487970C948D920C94F43763
:1002F0000C940E260C942C220C949EAA0C94978598
:100300000C9422280C949A250C94ED2E0C94E9223E
:100310000C9490760C94DB810C94779F0C94C875A8
:100320000C9438F40C94DB790C94DB2E0C9456224C
:100330000C94CAF30C9479AF0C94E12E0C940FF446
:100340000C94ECB30D949E230C946A220C94052F0C
:100350000C94727F0C9439260C94A2290C94BA2226
:100360000C94D27B0C94D52E0C94CF750C94ACA22B
:100370000C94899F0C94F5F60C9465920C9420F7DC
:100380000C94A9F30C941A7E0C94C1780C9406F783
:100390000C9495AD0C94F4F60C94C37B0D947A17E1
:1003A0000C944D920C94D22D0C94A49F0C9409891A
:1003B0000C942B260C940BF40C947E220C94C87B8A
:1003C0000C9442220D9482170D940C170C948B9967
:1003D0000C941C2D0C947D810D94CD170C94D5227A
:1003E0000C94C8220C9485920C946B7D0C940AF4A6
:1003F0000C94A5930C94A9790D94F1160C94F277B2
:100400000D94D7174E414E494E495459494E46CD49
:10041000CCCC3D0AD7233C17B7D13877CC2B3295BB
:1004200095E6241FB14F0A000020410000C8420099
:10043000401C4620BCBE4CCA1B0E5AAEC59D740063
:10044000407A10F35A00A0724E18090010A5D4E8A3
:100450000000E87648170000E40B54020000CA9A36
:100460003B000000E1F50500008096980000004088
:10047000420F000000A086010000001027000000CD
:1004800000E803000000006400000000000A000013
:100490000000000100000000002C76D888DC674FC7
:1004A0000823DFC1DFAE59E1B1B796E5E3E453C6F7
:1004B0003AE651997696E8E6C28426EB898C9B62EF
:1004C000ED407C6FFCEFBC9C9F40F2BAA56FA5F499
:1004D00090055A2AF75C936B6CF9676DC11BFCE0C1
:1004E000E40D47FEF520E6B500D0ED902E03009414
:1004F0003577050080841E080000204E0A000000A9
:10050000C80C333333330F986E12831141EF8D21B2
:1005100014893BE65516CFFEE6DB18D1844B381B19
:10052000F77C1D901DA4BBE424203284725E2281DE
:1005300000C9F124ECA1E53D27434F4D4D554E49EF
:10054000434154494F4E0044525952554E00455272
:10055000524F525300494E464F004543484F0045C5
:1005600072726F722077726974696E6720746F207F
:10057000454550524F4D210A00363726033C3D3841
:100580000E2E303E121A1C1808440AFF43080900B8
:1005900001627573793A2070617573656420666FC6
:1005A0007220696E7075740A00627573793A2070F2
:1005B000617573656420666F7220757365720A00D9
:1005C000627573793A2070726F63657373696E67D1
:1005D0000A004B494C4C2063617573656420627955
:1005E000204B494C4C20627574746F6E2F70696E8D
:1005F0000A004B494C4C2063617573656420627935
:1006000020746F6F206D75636820696E6163746913
:1006100076652074696D65202D2063757272656E34
:100620007420636F6D6D616E643A2000506C65617B
:100630007365207265736574005052494E5445527B
:100640002048414C544544004B494C4C45442E20D5
:10065000005072696E7465722068616C7465642EF6
:10066000206B696C6C28292063616C6C6564210ABD
:100670000053544F505045442E20005072696E7400
:1006800065722073746F7070656420647565207482
:100690006F206572726F72732E20466978207468BD
:1006A00065206572726F7220616E642075736520BB
:1006B0004D39393920746F20726573746172742EEC
:1006C000202854656D706572617475726520697358
:1006D0002072657365742E205365742069742061DF
:1006E000667465722072657374617274696E6729CD
:1006F0000A006563686F3A004572726F723A004291
:10070000696C696E656172204C6576656C696E67AF
:1007100020477269643A0A0053544F502063616C59
:100720006C65642062656361757365206F66204245
:100730004C546F756368206572726F72202D207241
:100740006573746172742077697468204D39393922
:100750000A0053544F502063616C6C6564206265DD
:100760006361757365206F6620424C546F756368D2
:10077000206572726F72202D2072657374617274BD
:100780002077697468204D3939390A00486F7465DB
:100790006E6420746F6F20636F6C640A004F46466E
:1007A0000A004661646520486569676874200042F4
:1007B0006564204C6576656C696E672000466169EA
:1007C0006C656420746F20656E61626C65204265A3
:1007D00064204C6576656C696E670A00496E7661C7
:1007E0006C6964206D6573682E0A00202844525994
:1007F00052554E2900473239204175746F204265A9
:1008000064204C6576656C696E67003F20284C2C2F
:10081000522C462C4229206F7574206F6620626F1F
:10082000756E64732E0A003F2856296572626F73D5
:1008300065206C6576656C20697320696D706C61EC
:10084000757369626C652028302D34292E0A0042A8
:100850006164205A2076616C75650A004E6F2062D3
:10086000696C696E65617220677269640A004D3651
:1008700030303A20546F6F20636F6C6400486F749F
:10088000656E6420746F6F20636F6C640A00496E3C
:10089000736572742066696C616D656E7420616E3B
:1008A0006420707265737320627574746F6E0A00D1
:1008B000507265737320627574746F6E20746F204C
:1008C00068656174206E6F7A7A6C650A00496E7390
:1008D0006572742066696C616D656E7420616E640A
:1008E00020707265737320627574746F6E20286F48
:1008F00072204D313038290A004D32342053256C96
:10090000642054256C64004D323320257300473930
:10091000322E392045257300473120462564004793
:1009200039322E39205A2573004731205A3020465B
:100930003230300047312058257320592573204626
:1009400033303030004D34323020532569205A2561
:1009500073004D3130362050256920532569004DF4
:1009600031303920532569004D3139302053256904
:10097000004739322E392045305A300A47315A3231
:100980000A47323852305859004D343230205330F3
:10099000205A300020496E76616C69642065787455
:1009A00072756465722000536C6565702E2E2E0082
:1009B000486F6D652058592066697273740A004843
:1009C0006F6D6520585920666972737400205A3A19
:1009D000200020593A200042656420583A20004DFA
:1009E00065736820706F696E742063616E6E6F74DA
:1009F000206265207265736F6C7665640A00436CD3
:100A000069636B20746F20726573756D652E2E2E71
:100A1000004E6F206D6F76652E00456E642066690E
:100A20006C65206C6973740A00426567696E2066A4
:100A3000696C65206C6973740A00286E6F206669A2
:100A40006C65290043757272656E742066696C6509
:100A50003A20005344207072696E74696E67206298
:100A600079746520004E6F74205344207072696E53
:100A700074696E670A005072696E742074696D65DE
:100A80003A20000A53746174733A2046696C616DB0
:100A9000656E7420757365643A20002C204C6F6E6F
:100AA00067657374206A6F623A2000546F74616CDA
:100AB0002074696D653A200053746174733A2000A4
:100AC0002C204661696C65643A20002C2046696ED2
:100AD00069736865643A20005072696E74733A20D5
:100AE0000053746174733A20004520436F6F6C6942
:100AF0006E672E2E2E00452048656174696E672E44
:100B00002E2E006F6666005A0555054E05470539BD
:100B10000544454255473A004D3131332053006F6B
:100B20006B0043522D32302050726F204F46462EBC
:100B3000004348414D4245525F54454D5045524156
:100B400054555245004D4F54494F4E5F4D4F44450B
:100B50005300544845524D414C5F50524F54454309
:100B600054494F4E004155544F5245504F52545FD7
:100B700053445F5354415455530050524F4D5054B9
:100B80005F535550504F525400454D455247454EC6
:100B900043595F50415253455200434153455F4CC6
:100BA000494748545F4252494748544E45535300C1
:100BB000544F47474C455F4C494748545300534FA7
:100BC0004654574152455F504F5745520042554990
:100BD0004C445F50455243454E54004C4556454C9D
:100BE000494E475F44415441005A5F50524F42457D
:100BF000004155544F4C4556454C005052494E54B7
:100C00005F4A4F420050524F47524553530041559F
:100C1000544F5245504F52545F54454D5000564F1B
:100C20004C554D455452494300454550524F4D0097
:100C300042494E4152595F46494C455F5452414EDC
:100C4000534645520053455249414C5F584F4E5F01
:100C5000584F4646004649524D574152455F4E4116
:100C60004D453A4D61726C696E2076322E332028E4
:100C7000626574746572206E65676174697665205B
:100C800076616C756520737570706F72742920536E
:100C90004F555243455F434F44455F55524C3A6868
:100CA000747470733A2F2F6769746875622E636F5E
:100CB0006D2F4D61726C696E4669726D77617265F8
:100CC0002F4D61726C696E2050524F544F434F4C00
:100CD0005F56455253494F4E3A312E30204D4143D5
:100CE00048494E455F545950453A43522D323020C1
:100CF00050726F2045585452554445525F434F55EA
:100D00004E543A3120555549443A63656465326121
:100D100032662D343161322D343734382D39623119
:100D2000322D6335356336326633363766660A00F0
:100D30002F2F20004D31343520533C696E64657887
:100D40003E206F7574206F662072616E6765202883
:100D5000302D31290A002054002052004163636580
:100D60006C65726174696F6E3A2050005741524E43
:100D7000494E4721204C6F77205A204A65726B20DC
:100D80006D6179206C65616420746F20756E776188
:100D90006E746564207061757365732E0A00205A45
:100DA00000205900580020204D61783A2000205A38
:100DB00000205900580020204D696E3A2000536FE2
:100DC000667420656E6473746F70733A20002046F9
:100DD0006C6F773A200050726F746563746564209D
:100DE00050696E0A003A200020536572766F200029
:100DF000206F7574206F662072616E67650A0053FC
:100E00006572766F200050726F6265205A204F66BF
:100E1000667365743A200020643A0020693A002025
:100E2000703A00496E76616C6964206578747275F9
:100E30006465720A0064697300656E0043290A00E4
:100E400061626C656420286D696E2074656D702028
:100E500000436F6C642065787472756465732061FB
:100E6000726520004D65736820706F696E74206331
:100E7000616E6E6F74206265207265736F6C76654B
:100E8000640A004D34323120696E636F727265639B
:100E90007420706172616D6574657220757361672D
:100EA000650A004F666673657473206170706C69C3
:100EB0006564004572723A20546F6F20666172213A
:100EC00000546F6F206661722066726F6D207265CC
:100ED000666572656E636520706F696E740A0045A1
:100EE0004550524F4D204F4B0A003F5A206F7574AA
:100EF000206F662072616E676520282D3230207465
:100F00006F203230290A0050726F6265205A204FDC
:100F100066667365743A20003F4B2076616C756598
:100F2000206F7574206F662072616E6765202830AF
:100F30002D3130292E0A00416476616E6365204BA5
:100F40003D0043617365206C696768743A20004313
:100F5000617365206C696768743A206F66660A0081
:100F60004F4646004F4E00506F7765722D6C6F7381
:100F700073207265636F766572792000496E7661C1
:100F80006C69642065787472756465720A004361E7
:100F9000703A0047322F47332062616420706172DB
:100FA000616D65746572730A00220A00656E717561
:100FB000657565696E672022006F6B005265736509
:100FC0006E643A200053544F505045442E20005038
:100FD00072696E7465722073746F707065642064DA
:100FE000756520746F206572726F72732E2046696A
:100FF0007820746865206572726F7220616E64205B
:10100000757365204D39393920746F20726573749A
:101010006172742E202854656D70657261747572EA
:10102000652069732072657365742E205365742082
:10103000697420616674657220726573746172747C
:10104000696E67290A004E6F20436865636B73758C
:101050006D2077697468206C696E65206E756D62AD
:1010600065722C204C617374204C696E653A2000C7
:101070004E6F20436865636B73756D207769746884
:10108000206C696E65206E756D6265722C204C61F6
:101090007374204C696E653A2000636865636B73F6
:1010A000756D206D69736D617463682C204C61737C
:1010B00074204C696E653A20004C696E65204E754F
:1010C0006D626572206973206E6F74204C61737459
:1010D000204C696E65204E756D6265722B312C2037
:1010E0004C617374204C696E653A20004D3131308B
:1010F000004D333100534420726561642065727283
:101100006F720A00446F6E65207072696E74696E4A
:10111000672066696C650A002569730025696D2082
:10112000256973002569682025696D20256973008C
:10113000256964202569682025696D20256973006B
:1011400025697920256964202569682025696D2035
:101150002569730020573A0042656420636F6F6C05
:10116000696E672E2E2E0042656420686561746981
:101170006E672E2E2E0023646566696E65204445D9
:101180004641554C545F004B6420004B6920004B96
:10119000702000504944204175746F74756E65204D
:1011A00066696E697368656421205075742074687F
:1011B00065206C617374204B702C204B6920616E2C
:1011C00064204B6420636F6E7374616E7473206669
:1011D000726F6D2062656C6F7720696E746F20434B
:1011E0006F6E66696775726174696F6E2E680A004A
:1011F000504944204175746F74756E65206661694D
:101200006C6564212074696D656F75740A004531E1
:1012100020544845524D414C2052554E415741595A
:1012200000546865726D616C2052756E61776179EA
:101230000045312048656174696E67206661696C9C
:1012400065640048656174696E67206661696C65F4
:101250006400504944204175746F74756E65206652
:1012600061696C6564212054656D70657261747587
:10127000726520746F6F20686967680A00204B648C
:101280003A2000204B693A2000204B703A20000A97
:1012900020436C617373696320504944200A002025
:1012A00054753A2000204B753A2000206D61783A41
:1012B0002000206D696E3A200020643A20002062F0
:1012C0006961733A2000504944204175746F747508
:1012D0006E652073746172740A0050494420417530
:1012E000746F74756E65206661696C656421205445
:1012F000656D706572617475726520746F6F2068BA
:101300006967680A00504944204175746F74756EAE
:1013100065206661696C656421204261642065789E
:10132000747275646572206E756D6265720A00452F
:1013300072723A207574663820666F6E74206E6F14
:101340007420696E697469616C697A65642E004500
:1013500072723A207574663820666F6E74206E6FF4
:101360007420696E697469616C697A65642E0045E0
:1013700072723A207574663820666F6E74206E6FD4
:101380007420696E697469616C697A65642E0050B5
:10139000726F6265205A204F66667365740000069E
:1013A0000C00FE07022603BC017FFE08FE08FE05B6
:1013B000080806000040F0C88888987810050808DA
:1013C000060000C0F88888888888F80505050600AA
:1013D000012030F830200508080600002070F820B1
:1013E000202020E00509090600FF2070A8A8B88881
:1013F000887020050606060001E08CEA8C8A0A0542
:1014000009090600FFF8A88888888888A8F8050ACE
:101410000A0600FE205050505088A8A88870030388
:101420000306000340A040FFFFFFFFFFFFFFFFFF99
:10143000FFFFFFFFFFFFFFFFFFFFFFFFFF000000B9
:101440000605FF010707060200808080808000807B
:10145000030303060105A0A0A00506060600005030
:10146000F85050F8500509090600FF2070A8A07038
:1014700028A87020050707060000C8C8102040985B
:101480009805070706000040A0A040A89068010347
:10149000030602058080800309090601FF20404001
:1014A0008080804040200309090601FF80404020E1
:1014B000202040408005070706000020A87020700B
:1014C000A8200505050600012020F82020020303BE
:1014D0000601FFC04080050101060003F802020278
:1014E000060100C0C00507070600000810102040D4
:1014F0004080050707060000708898A8C888700318
:10150000070706010040C040404040E005070706CD
:101510000000708808102040F8050707060000F852
:10152000081030088870050707060000103050903A
:10153000F81010050707060000F880F0080888700A
:10154000050707060000304080F08888700507070F
:10155000060000F8081010202020050707060000EC
:101560007088887088887005070706000070888872
:1015700078081060020505060100C0C000C0C00266
:1015800006060601FFC0C000C04080030505060135
:10159000012040804020050303060002F800F80304
:1015A0000505060101804020408005070706000070
:1015B000708810202000200507070600007088B8FA
:1015C000A8B88070050707060000708888F888882A
:1015D00088050707060000F04848704848F00507EE
:1015E0000706000070888080808870050707060065
:1015F00000F04848484848F0050707060000F88012
:1016000080F08080F8050707060000F88080F080F1
:101610008080050707060000708880809888700524
:101620000707060000888888F88888880307070667
:101630000100E04040404040E00507070600003858
:101640001010101090600507070600008890A0C0D9
:10165000A09088050707060000808080808080F8C1
:1016600005070706000088D8A88888888805070726
:101670000600008888C8A898888805070706000023
:1016800070888888888870050707060000F08888B9
:10169000F080808005070706000070888888A89081
:1016A00068050707060000F08888F0A09088050705
:1016B000070600007088807008887005070706001C
:1016C00000F8202020202020050707060000888839
:1016D00088888888700507070600008888888850F1
:1016E000502005070706000088888888A8A85005AC
:1016F00007070600008888502050888805070706DD
:10170000000088885020202020050707060000F8E8
:101710000810204080F80309090601FFE08080805E
:1017200080808080E0050707060000804040201090
:1017300010080309090601FFE020202020202020B6
:10174000E00503030600052050880501010600FEA0
:10175000F803030306010580402005050506000087
:1017600070087888780507070600008080F0888870
:1017700088F0050505060000708080887005070761
:1017800006000008087888888878050505060000A6
:101790007088F08070050707060000304840E04080
:1017A00040400507070600FE7088888878087005A5
:1017B00007070600008080F08888888803070706EE
:1017C00001004000C0404040E00409090601FE104D
:1017D0000030101010109060050707060000808090
:1017E0008890E09088030707060100C04040404011
:1017F00040E0050505060000D0A8A8A8A805050535
:10180000060000B0C88888880505050600007088B5
:101810008888700507070600FEF0888888F08080B9
:101820000507070600FE78888888780808050505FA
:10183000060000B0C880808005050506000078809D
:101840007008F00507070600002020F82020201867
:1018500005050506000088888898680505050600C6
:101860000088888850200505050600008888A8A8FB
:10187000500505050600008850205088050707061A
:1018800000FE88888850204080050505060000F885
:10189000102040F80309090601FF20404040804025
:1018A0004040200109090602FF80808080808080FE
:1018B00080800309090601FF8040404020404040ED
:1018C0008005030306000248A890FF00060900FEF9
:1018D00006018902FE20FFFE07FE06FE000000064C
:1018E0000007010606060200808080800080030356
:1018F00003060103A0A0A00507070600FF5050F84B
:1019000050F850500509090600FE2070A8A0702864
:10191000A870200608080600FF40A8481020485478
:10192000080507070600FF60909060989068010323
:10193000030602038080800207070602FF408080C2
:10194000808080400207070602FF80404040404000
:10195000800505050600008850F850880505050635
:1019600000002020F820200204040602FEC04040AF
:1019700080050101060002F8020202060200C0C052
:1019800004060606010010102040808004060606AA
:10199000010060909090906003060606010040C030
:1019A000404040E00406060601006090102040F030
:1019B000040606060100F020601010E00506060689
:1019C000000010305090F810040606060100F08068
:1019D000E01010E00406060601006080E0909060D0
:1019E000040606060100F01010204040040606061A
:1019F000010060906090906004060606010060900F
:101A000090701060020505060200C0C000C0C00250
:101A100007070602FEC0C000C0404080050505065D
:101A200000001860806018050303060001F800F844
:101A3000050505060000C0300830C0040707060190
:101A4000006090106040004005060606000070909F
:101A5000A8B08070050606060000205088F8888827
:101A6000050606060000F088F08888F004060606E1
:101A70000100609080809060040606060100E090FE
:101A8000909090E0040606060100F080E08080F06F
:101A9000040606060100F080E08080800406060649
:101AA0000100609080B090600406060601009090EE
:101AB000F0909090030606060100E040404040E0B0
:101AC0000506060600003810101090600406060691
:101AD000010090A0C0A0909004060606010080803E
:101AE000808080F005060606000088D8A8A88888AF
:101AF00004060606010090D0B090909005060606F8
:101B00000000708888888870040606060100E0904E
:101B100090E080800407070601FF609090D0B060DD
:101B200010040606060100E09090E090900406067E
:101B3000060100609040209060050606060000F84F
:101B4000202020202004060606010090909090900E
:101B500060040606060100909090F060600506069D
:101B60000600008888A8A8D8880506060600008810
:101B70005020205088050606060000888850202046
:101B800020040606060100F010204080F00306063F
:101B9000060100E080808080E004060606010080E7
:101BA0008040201010030606060100E020202020BF
:101BB000E00503030600032050880501010600FE2E
:101BC000F8020202060204804004040406010070C8
:101BD0009090700406060601008080E09090E0047A
:101BE00004040601007080807004060606010010DF
:101BF000107090907004040406010060B0C070047E
:101C00000606060100205040E0404004060606019A
:101C1000FE6090907010600406060601008080E06F
:101C20009090900306060601004000C04040E0038B
:101C300008080601FE200060202020A040040606BF
:101C40000601008080A0C0A090030606060100C027
:101C500040404040E0050404060000D0A8A88804E5
:101C60000404060100E09090900404040601006062
:101C70009090600406060601FEE09090E0808004EB
:101C800006060601FE709090701010040404060110
:101C900000A0D0808004040406010070C030E0047D
:101CA00006060601004040E04050200404040601FE
:101CB000009090907004040406010090906060050C
:101CC000040406000088A8A850040404060100903B
:101CD0006060900406060601FE909090709060048B
:101CE0000404060100F02040F0030707060100206D
:101CF0004040804040200107070602FF808080802E
:101D0000808080030707060100804040204040801B
:101D100004020206010350A0FFFFFFFFFFFFFFFFC9
:101D2000FFFFFFFFFFFFFFFFFFFFFFFFFFFFFFFFC3
:101D3000FFFFFFFFFFFFFFFFFF000000060007019E
:101D400006060602008000808080800406060601E8
:101D5000FF2070A0A070200507070600FF30484054
:101D6000F04040F8050505060000A8508850A80579
:101D700006060600008850F820F820010707060232
:101D8000FF808080008080800407070601FF70804C
:101D900060906010E0030101060105A00607070638
:101DA0000000788494A494847803050506010160FA
:101DB000A06000E00505050600002850A05028049A
:101DC0000303060100F01010040101060102F006F1
:101DD00007070600007884B4A4A4847804010106EF
:101DE0000105F00403030601026090600507070681
:101DF00000FF2020F8202000F8030505060101401F
:101E0000A02040E0030505060101C0204020C002DB
:101E1000020206020440800405050601FF9090B00E
:101E2000D08005060606000078E8E8682828010149
:101E300001060202800202020602FE40800305053E
:101E400006010140C04040E003050506010140A035
:101E50004000E0050505060000A0502850A0050838
:101E6000080600FF40C04050703078100508080692
:101E700000FF40C04050680810380508080600FF01
:101E8000C0204030F0307810040707060100200021
:101E900020608090600507070600004020205070F9
:101EA00088880507070600001020205070888805E4
:101EB0000707060000205020507088880507070695
:101EC0000000285020507088880507070600005041
:101ED0000020507088880507070600002050205019
:101EE00070888805060606000078A0F0A0A0B80457
:101EF00008080601FE60908080906020400407077B
:101F00000601004020F080E080F004070706010091
:101F10002040F080E080F00407070601002050F028
:101F200080E080F00407070601005000F080E080A8
:101F3000F00307070601008040E0404040E003074F
:101F4000070601002040E0404040E003070706018B
:101F50000040A0E0404040E0030707060100A00069
:101F6000E0404040E00506060600007048E84848AA
:101F70007004070706010050A090D0B090900407AD
:101F8000070601004020609090906004070706015A
:101F900000204060909090600407070601002050E8
:101FA000609090906004070706010050A060909038
:101FB0009060040707060100500060909090600553
:101FC000050506000088502050880408080601FF17
:101FD0001070B0B0D0D0E0800407070601004020A8
:101FE0009090909060040707060100204090909028
:101FF00090600407070601002050909090906004C4
:1020000007070601005000909090906005070706B2
:1020100000001020885020202004060606010080C1
:10202000E09090E0800406060601006090A0A09079
:10203000A00407070601004020007090907004077C
:102040000706010020400070909070040707060109
:10205000002050007090907004070706010050A007
:102060000070909070040606060100500070909079
:10207000700407070601002050207090907005043E
:102080000406000070A8B0780406060601FE708001
:102090008070204004070706010040200060B0C0A7
:1020A0007004070706010020400060B0C0700407FC
:1020B0000706010020500060B0C07004060606014B
:1020C00000500060B0C070030707060100804000A8
:1020D000C04040E0030707060100204000C0404028
:1020E000E003070706010040A000C04040E00306EF
:1020F00006060100A000C04040E0040707060100FA
:102100003060107090906004070706010050A00036
:10211000E090909004070706010040200060909036
:1021200060040707060100204000609090600407EB
:102130000706010020500060909060040707060128
:102140000050A00060909060040606060100500058
:10215000609090600505050600002000F80020044E
:10216000040406010070B0D0E00407070601004037
:102170002000909090700407070601002040009016
:102180009090700407070601002050009090907016
:10219000040606060100500090909070040909069C
:1021A00001FE2040009090907090600408080601A5
:1021B000FE8080E09090E080800408080601FE50D8
:1021C000009090907090604C6F6164206D6D004C39
:1021D0006F6164206D6D00556E6C6F6164206D6D74
:1021E00000556E6C6F6164206D6D0046696C2E2029
:1021F0004469612E0046696C2E204469612E004FAF
:102200006666004F6E004520696E206D6D5E33007E
:10221000416476616E6365204B00416476616E6354
:1022200065204B00416476616E636564205365747C
:1022300074696E6773004D33303320553120452566
:10224000692053256900504944204175746F7475A5
:102250006E6500504944204175746F74756E650059
:102260005049442D44005049442D44005049442DC8
:1022700049005049442D49005049442D50005049CF
:10228000442D500020082046616374002008204639
:10229000616374002008204D6178002008204D61A2
:1022A00078002008204D696E002008204D696E00DE
:1022B0004F6666004F6E004175746F74656D7000F7
:1022C000416476616E6365642053657474696E67FA
:1022D00073005654726176206D696E0056547261B7
:1022E00076206D696E00566D696E00566D696E00E0
:1022F000566D6178204500566D6178204500566D19
:102300006178205A00566D6178205A00566D6178C8
:10231000205900566D6178205900566D617820581B
:1023200000566D6178205800416476616E63656483
:102330002053657474696E677300416D6178204540
:1023400000416D6178204500416D6178205A00415F
:102350006D6178205A00416D6178205900416D61AE
:1023600078205900416D6178205800416D617820D6
:102370005800412D74726176656C00412D74726154
:1023800076656C00412D7265747261637400412D35
:102390007265747261637400416363656C004163CC
:1023A00063656C00416476616E6365642053657497
:1023B00074696E67730056652D6A65726B005665A9
:1023C0002D6A65726B00567A2D6A65726B00567ABB
:1023D0002D6A65726B0056792D6A65726B005679AD
:1023E0002D6A65726B0056782D6A65726B0056789F
:1023F0002D6A65726B00416476616E63656420537B
:10240000657474696E6773004573746570732F6DBE
:102410006D004573746570732F6D6D005A7374652C
:1024200070732F6D6D005A73746570732F6D6D002E
:102430005973746570732F6D6D0059737465707383
:102440002F6D6D005873746570732F6D6D00587328
:10245000746570732F6D6D00416476616E636564A1
:102460002053657474696E6773003F00496E697428
:1024700069616C697A6520454550524F4D00436152
:102480006E63656C00496E6974004D3432380049E2
:102490006E697469616C697A6520454550524F4D8B
:1024A0000046696C616D656E740054656D7065728F
:1024B00061747572650053746570732F6D6D004A99
:1024C00065726B00416363656C65726174696F6E00
:1024D0000056656C6F636974790053657420686F8A
:1024E0006D65206F666673657473004F6666004F96
:1024F0006E00416C6C6F77204E656761746976651C
:1025000000436F6E66696775726174696F6E004330
:102510006D643A2053746F7700436D643A204465CC
:10252000706C6F7900436D643A2053656C662D546E
:1025300065737400436D643A2053572D4D6F646585
:1025400000436D643A20526573657400436F6E6694
:10255000696775726174696F6E004F6666004F6ED1
:102560000043617365206C69676874004C69676833
:1025700074204272696768746E657373004C696792
:102580006874204272696768746E65737300436F84
:102590006E66696775726174696F6E0053746F72ED
:1025A000652073657474696E6773004265640042E8
:1025B0006564004E6F7A7A6C65004E6F7A7A6C654E
:1025C0000046616E2073706565640046616E20731D
:1025D0007065656400436F6E6669677572617469E2
:1025E0006F6E00526573746F7265206661696C73FB
:1025F000616665004C6F61642073657474696E6711
:10260000730053746F72652073657474696E6773B9
:102610000050726568656174205045544720636FAF
:102620006E66005072656865617420504C4120638D
:102630006F6E66004F6666004F6E004F757461677F
:1026400065205265636F766572790043617365201A
:102650006C6967687400424C546F7563680050720F
:102660006F6265205A204F66667365740041647618
:10267000616E6365642053657474696E6773004DA1
:1026800061696E004D37303220542564004D36307C
:102690003020423020542564004D373032203B2515
:1026A00064004D37303120542564004368616E6703
:1026B000652066696C616D656E7400507265686551
:1026C000617420437573746F6D0050726568656145
:1026D00074205045544700507265686561742050FD
:1026E0004C41005072656865617420437573746F66
:1026F0006D004261636B005075726765206D6F728B
:102700006500436F6E74696E756500524553554D93
:1027100045204F5054494F4E533A005052494E5461
:102720002050415553454400554E4C4F414420469E
:10273000494C414D454E54004C4F41442046494C74
:10274000414D454E540020204E6F7A7A6C653A20F8
:102750000020005061726B696E672E2E2E00746F20
:102760002073746172740066696C616D656E7420AB
:102770006368616E6765005761697420666F7200F7
:1027800066696C616D656E7420756E6C6F61640056
:102790005761697420666F7200506C6561736520C3
:1027A000776169742E2E2E004E6F7A7A6C652068E0
:1027B000656174696E6700746F2068656174206E6E
:1027C0006F7A7A6C650050726573732062757474E9
:1027D0006F6E00746F20636F6E74696E7565006153
:1027E0006E6420707265737320627574746F6E000E
:1027F000496E736572742066696C616D656E7400F4
:1028000066696C616D656E74206C6F616400576100
:10281000697420666F7200746F20726573756D65E0
:10282000207072696E7400507265737320627574E3
:10283000746F6E00746F20726573756D652E2E2E29
:10284000005761697420666F72207072696E74003F
:1028500066696C616D656E7420707572676500578E
:1028600061697420666F72003E200045787472754D
:1028700064656420746F74616C3A00256C642E2565
:10288000696D003E20004C6F6E67657374206A6F3F
:10289000622074696D653A003E2000546F74616C6B
:1028A000207072696E742074696D653A00436F6DB3
:1028B000706C657465643A20005072696E742043D0
:1028C0006F756E743A20004D61782054656D703AD2
:1028D00020313230004D696E2054656D703A2035DC
:1028E00000544265643A4550434F53203130304BD9
:1028F000004D61782054656D703A20333030004DC2
:10290000696E2054656D703A20350054303A204588
:1029100050434F53203130304B005053553A2047ED
:10292000656E657269630050726F746F636F6C3AA5
:1029300020312E3000426175643A2032353030301B
:10294000300052414D505320312E330042696C69A2
:102950006E656172204C6576656C696E67004578BE
:10296000747275646572733A203100687474703AD9
:102970002F2F6D61726C696E66772E6F72670043E0
:10298000522D32302050726F00323032362D3037B7
:102990002D31310052656473746F6E654D617374CF
:1029A000657230310076322E332069732063726590
:1029B000617465642062790076322E33004D617255
:1029C0006C696E005072696E746572205374617424
:1029D0007300546865726D6973746F727300426F2F
:1029E00061726420496E666F005072696E74657220
:1029F00020496E666F004D61696E004D3130303098
:102A00000053746F70207072696E74005265737534
:102A10006D65207072696E74004F75746167652012
:102A20005265636F76657279003F0053746F702052
:102A30007072696E74004261636B0053746F700052
:102A40004D3235005072696E742070617573656423
:102A5000005061757365207072696E74004D323478
:102A6000005072696E742066726F6D20534400438B
:102A700068616E67652053442063617264004D3263
:102A8000310041626F7574205072696E7465720016
:102A90004368616E67652066696C616D656E740080
:102AA0004368616E67652066696C616D656E740070
:102AB0004D36303020423000436F6E666967757264
:102AC0006174696F6E0054656D70657261747572C2
:102AD00065004D6F74696F6E00526573756D65208A
:102AE0007072696E740054756E650053746F702057
:102AF0007072696E74005061757365207072696ED2
:102B000074004E6F205344206361726400496E6606
:102B10006F2073637265656E004D6F766520580097
:102B20004D6F76652059004D6F7665205A004578C7
:102B300074727564657200457874727564657200AC
:102B40004D6F7665205A004D6F76652059004D6FA8
:102B500076652058004D6F74696F6E00446973612B
:102B6000626C65207374657070657273004D3834E3
:102B70000046616465204865696768740046616461
:102B80006520486569676874004F6666004F6E008F
:102B9000426564204C6576656C696E67004C6576AD
:102BA000656C20626564004732380A473239004854
:102BB0006F6D65205A00473238205A00486F6D65A6
:102BC000205900473238205900486F6D6520580061
:102BD0004732382058004175746F20686F6D65006A
:102BE000473238004D6F76652061786973004D611A
:102BF000696E003F005374617274207072696E7464
:102C0000200043616E63656C005072696E7400430E
:102C1000616E6E6F7420656E746572207375626488
:102C200069723A2000022E2E004D61696E005072CA
:102C3000656865617420504C4120456E6400507297
:102C4000656865617420504C412042656400507293
:102C5000656865617420504C410054656D70657203
:102C600061747572650050726568656174205045C5
:102C7000544720456E640050726568656174205049
:102C80004554472042656400507265686561742050
:102C9000504554470054656D706572617475726576
:102CA00000436F6F6C646F776E005072656865618A
:102CB0007420504554470050726568656174205017
:102CC0004C410046616E2073706565640046616E1C
:102CD0002073706565640042656400426564004E5F
:102CE0006F7A7A6C65004E6F7A7A6C65004D616917
:102CF0006E0050726F6265205A204F66667365746D
:102D000000466C6F7700466C6F770046616E2073EB
:102D1000706565640046616E20737065656400428D
:102D2000656400426564004E6F7A7A6C65004E6F90
:102D30007A7A6C65005370656564005370656564EC
:102D4000004D61696E0025753A25303275002530D9
:102D500032753A253032750025756420253032757C
:102D60003A25303275001FE020102010201010206E
:102D700010202010201030300840048003001FE095
:102D80003FF03FF03FF01FE01FE03FF03FF03FF02B
:102D90000FC0078003003FFFF038007030FC302088
:102DA000FC102078102030102C00D02E31D02F7B3A
:102DB000D02F7BD02E31D02C00D020301020781096
:102DC00020FC1030FC303800703FFFF03FFFF0383F
:102DD00000703186302387102787902F87D02F03EC
:102DE000D02030102078102078102030102F03D001
:102DF0002F87D02787902387103186303800703F87
:102E0000FFF01FFFF81FFFF804104002082002081F
:102E1000200410400820801041001041000820804C
:102E20000410400000001FFFF81FFFF843617264A8
:102E30002072656D6F766564004361726420696E0F
:102E40007365727465640043522D32302050726F86
:102E50002052656164792E005072696E74696E67E4
:102E60002E2E2E005072696E742070617573656429
:102E7000005072696E742061626F72746564000044
:102E8000006B4300006B430000A043000000000003
:102E900000000000000000290A00206279746573B8
:102EA0003B20637263200053657474696E677320FE
:102EB00053746F726564202800454550524F4D2071
:102EC0006461746173697A65206572726F722E0A2B
:102ED00000290A002062797465733B2063726320C5
:102EE000002073746F7265642073657474696E6713
:102EF00073207265747269657665642028002028E5
:102F000063616C63756C6174656429210A0020211A
:102F10003D2000454550524F4D20435243206D699E
:102F2000736D61746368202D202873746F726564FB
:102F30002920002053697A653A2000496E6465783B
:102F40003A2000204D61726C696E3D563637290A71
:102F500000454550524F4D2076657273696F6E2063
:102F60006D69736D617463682028454550524F4DFB
:102F70003D0048617264636F646564204465666106
:102F8000756C742053657474696E6773204C6F613F
:102F90006465640A00F4010000F4010000640000AC
:102FA00000E803000000007A4300007A430000A01C
:102FB000400000C8410000A0420000A0420000C83C
:102FC000430000BA423A0A0020204D363033200038
:102FD0002055004C0046696C616D656E74206C6F05
:102FE00061642F756E6C6F6164206C656E677468C8
:102FF000733A0A0020204D393030204B004C696E66
:1030000065617220416476616E63653A0A00202032
:103010004D383531205A005A2D50726F6265204F5D
:1030200066667365740020204D34313320530050A0
:103030006F7765722D4C6F7373205265636F766581
:1030400072793A0A0020440020490020204D333094
:10305000312050005049442073657474696E677361
:103060003A0A0020460020420020480020204D312E
:1030700034352053004D6174657269616C20686558
:103080006174757020706172616D65746572733AF8
:103090000A00204A002020473239205720490020CA
:1030A0005A0020204D3432302053004175746F2077
:1030B000426564204C6576656C696E673A0A00204B
:1030C0005A0020590020204D323036205800486FD9
:1030D0006D65206F66667365743A0A0020450020AE
:1030E0005A0020590020580020540020530020206E
:1030F0004D32303520420020453C6D61785F655F80
:103100006A65726B3E0020583C6D61785F785F6A3B
:1031100065726B3E20593C6D61785F795F6A6572BC
:103120006B3E205A3C6D61785F7A5F6A65726B3ED8
:1031300000416476616E6365643A20423C6D696E5D
:103140005F7365676D656E745F74696D655F7573D8
:103150003E20533C6D696E5F66656564726174659F
:103160003E20543C6D696E5F74726176656C5F667B
:10317000656564726174653E002054002052002031
:10318000204D323034205000416363656C657261BC
:1031900074696F6E2028756E6974732F7332293AC3
:1031A00020503C7072696E745F616363656C3E2091
:1031B000523C726574726163745F616363656C3EF7
:1031C00020543C74726176656C5F616363656C3E2C
:1031D0000A00204500205A0020590020204D32309E
:1031E000312058004D6178696D756D2041636365CC
:1031F0006C65726174696F6E2028756E6974732FC7
:103200007332293A0A00204500205A002059002034
:10321000204D3230332058004D6178696D756D2036
:103220006665656472617465732028756E69747370
:103230002F73293A0A0053746570732070657220E9
:10324000756E69743A0A0020204D323030204430C7
:103250000A0020204D323030204400204469736140
:10326000626C65640A0046696C616D656E742073FA
:10327000657474696E67733A0020204D31343920CB
:1032800043203B20556E69747320696E2043656C42
:10329000736975730A0020286D6D2900202047325C
:1032A00031202020203B20556E69747320696E20E8
:1032B0006D6D00486F6D696E67206661696C65644D
:1032C000006F70656E0054524947474552454400AF
:1032D0003A20007A5F6D696E00795F6D696E0078E3
:1032E0005F6D696E005265706F7274696E672065FC
:1032F0006E6473746F70207374617475730A002048
:103300005A3A0020593A0020436F756E7420583A9B
:103310000020453A00205A3A0020593A00583A0015
:1033200020746F6F206C6F6E672065787472757390
:10333000696F6E2070726576656E7465640A002030
:10334000636F6C6420657874727573696F6E20703A
:10335000726576656E7465640A0000000000000006
:103360000000000000000000484200004842000049
:1033700000415761726E696E673A20486F6D696EE1
:10338000672042756D702044697669736F72203CC6
:1033900020310A000202040000A0400000A040000A
:1033A00000004000006B4300006B430000A043FF9F
:1033B000FFFF24F4D43050C38E20C2A24017828B6A
:1033C0007011127A910D816CD90AA861E108C75871
:1033D0006607615143061E4B5D05C145A7041A41AE
:1033E0001104093D9803713931034036DB0265331E
:1033F0009102D4305402802E1D02632CEE01752AF6
:10340000C501B028A001102781018F2564012B245C
:103410004B01E0223401AC211F018D200D01801FE2
:10342000FC00841EED00971DDF00B81CD200E61BD7
:10343000C600201BBC00641AB200B219A8000A1909
:10344000A0006A189900D117910040178B00B5169B
:10345000840031167E00B31579003A157300C71445
:103460006F0058146A00EE1366008813630025137A
:103470005E00C7125B006C12570015125400C11198
:10348000510070114F0021114B00D61049008D10D2
:1034900047004610440002104200C00F4000800F59
:1034A0003E00420F3C00060F3B00CB0E3800930E4F
:1034B00037005C0E3500270E3400F30D3200C10DCD
:1034C0003100900D3000600D2E00320D2D00050DE5
:1034D0002C00D90C2B00AE0C2900850C29005C0CAB
:1034E0002700350C27000E0C2600E80B2400C40B27
:1034F0002400A00B23007D0B23005A0B2100390B65
:103500002100180B2000F80A1F00D90A1E00BB0A70
:103510001E009D0A1D00800A1D00630A1C00470A48
:103520001B002C0A1B00110A1A00F7091A00DD09FA
:103530001900C4091900AB091900920917007B0989
:103540001800630917004C091600360916002009F7
:1035500016000A091500F5081500E0081400CC084B
:103560001400B8081400A4081400900813007D0883
:1035700012006B08130058081200460812003408A5
:103580001100230811001208110001081100F007B2
:103590001000E0071000D0071000C0071000B007AF
:1035A0000F00A107100091070E0083070F0074079A
:1035B0000F0065070E0057070E0049070E003B0776
:1035C0000D002E070E0020070D0013070D00060743
:1035D0000D00F9060C00ED060D00E0060C00D40607
:1035E0000C00C8060C00BC060C00B0060C00A406BB
:1035F0000B0099060C008D060B0082060B00770667
:103600000B006C060B0061060A0057060B004C0607
:103610000A0042060A0038060A002E060A0024069E
:103620000A001A060A001006090007060A00FD052E
:103630000900F4050900EB050900E2050900D905B8
:103640000900D0050900C7050900BE050900B50538
:103650000800AD050800A50509009C0508009405B3
:1036600008008C050800840508007C050800740526
:1036700008006C050700650508005D050700560594
:1036800008004E05070047050700400508003805FB
:103690000700310507002A050700230507001C0560
:1036A0000600160507000F050700080506000205BD
:1036B0000700FB040600F5040700EE040600E8041A
:1036C0000600E2040700DB040600D5040600CF0470
:1036D0000600C9040600C3040600BD040600B704C2
:1036E0000600B1040500AC040600A6040600A00410
:1036F00005009B04060095040500900406008A045A
:10370000050085040500800406007A0405007504A0
:103710000500700405006B040500660405006104E3
:1037200005005C04050057040500520405004D0423
:10373000050048040500430405003E0404003A0463
:10374000050035040500300404002C04050027049E
:103750000400230405001E0404001A0404001604D7
:103760000500110404000D0404000904050004040C
:10377000040000040400FC030400F8030400F40344
:103780000400F0030400EC030400E8030400E40375
:103790000400E0030400DC030400D8030400D403A5
:1037A0000400D0030400CC030400C8030300C503D5
:1037B000030024F404D9201BC40C5C0E9804C40933
:1037C0005F0265077101F405F900FB04B3004804CA
:1037D0008700C10369005803550003034500BE027A
:1037E0003A008402310053022A0029022500040213
:1037F0002000E4011C00C8011900AF011700980166
:1038000014008401130071011000610110005101C6
:103810000E0043010D0036010B002B010B002001AF
:103820000B00150109000C01090003010800FB0051
:103830000800F3000800EB000700E4000600DE00CB
:103840000600D8000600D2000600CC000500C70024
:103850000500C2000500BD000400B9000400B50069
:103860000400B1000400AD000400A9000400A5009C
:103870000300A20003009F0004009B0003009800C7
:1038800003009500020093000300900003008D00E8
:1038900002008B0003008800020086000200840002
:1038A0000300810002007F0002007D0002007B0017
:1038B0000200790002007700010076000200740027
:1038C000020072000100710002006F0002006D0032
:1038D00001006C0002006A0001006900020067003C
:1038E0000100660001006500010064000200620042
:1038F000010061000100600001005F0002005D0046
:1039000001005C0001005B0001005A000100590049
:103910000100580001005700010056000100550049
:103920000100540001005300000053000100520048
:10393000010051000100500001004F0001004E0045
:1039400000004E0001004D0001004C0001004B0042
:1039500000004B0001004A0001004900010048003E
:10396000000048000100470001004600000046003A
:103970000100450000004500010044000100430033
:10398000000043000100420000004200010041002D
:10399000000041000100400001003F0000003F0026
:1039A00001003E0000003E0001003D0000003D001F
:1039B00001003C0000003C0000003C0001003B0016
:1039C00000003B0001003A0000003A00010039000D
:1039D0000000390001003800000038000000380005
:1039E00001003700000037000100360000003600FB
:1039F00000003600010035000000350000003500F1
:103A000001003400000034000000340001003300E5
:103A100000003300000033000100320000003200DB
:103A200000003200010031000000310000003100D0
:103A300001003000000030000000300001002F00C5
:103A400000002F0000002F0000002F0001002E00BA
:103A500000002E0000002E0001002D0000002D00AF
:103A600000002D0000002D0001002C0000002C00A3
:103A700000002C0000002C0001002B0000002B0097
:103A800000002B0000002B0001002A0000002A008B
:103A900000002A0000002A0001002900000029007F
:103AA0000000290000002900000029000100280072
:103AB0000000280000002800000028000000280066
:103AC0000100270000002700000027000000270059
:103AD000000027000100260000002600000026004C
:103AE000000026000000260001002500000025003F
:103AF0000000250000002500000025000000250032
:103B00000100240000002400000024000000240024
:103B10000000240001002300000023000000230017
:103B20000000230000002300000023000000230009
:103B300001002200000022000000220000002200FC
:103B400000002200000022000100210000002100EE
:103B500000002100000021000000210000002100E1
:103B600000002100010020000000200000002000D3
:103B700000002000000020000000200000002000C5
:103B80000000200001001F0000001F0000001F00B7
:103B900000001F0000001F0000001F0000001F00A9
:103BA00001001E0000001E0000001E0000001E009C
:103BB0000000C23100001C260000F4190000D80FDC
:103BC0000000EB080000C004000075020000400186
:103BD0000000626564002C2073797374656D207336
:103BE000746F7070656421204865617465725F4907
:103BF000443A20004265642068656174696E6720FC
:103C00006661696C65640048656174696E67206609
:103C100061696C65640042454420544845524D41F9
:103C20004C2052554E4157415900546865726D61A0
:103C30006C2052756E61776179004531204865616D
:103C400074696E67206661696C65640048656174BB
:103C5000696E67206661696C65640045312054486F
:103C600045524D414C2052554E41574159005468E0
:103C700065726D616C2052756E61776179004531B6
:103C800020544845524D414C2052554E41574159C0
:103C90000042454420544845524D414C2052554E17
:103CA0004157415900546865726D616C2052756EC0
:103CB00061776179004531204572723A204D415853
:103CC00054454D50004572723A204D415854454D6F
:103CD0005020424544004D415854454D5020747287
:103CE00069676765726564004531204572723A20E4
:103CF0004D494E54454D50004572723A204D494E43
:103D000054454D5020424544004D494E54454D5078
:103D100020747269676765726564004D3834205895
:103D2000302059323030205A204500202F002042C8
:103D3000403A0020403A0020573A007C3C3E5E2B3F
:103D40003D3F2F5B5D3B2C2A225C0043616E6E6F12
:103D500074206F70656E2073756264697220005301
:103D6000442063617264206F6B0A006F70656E524D
:103D70006F6F74206661696C65640A00766F6C759C
:103D80006D652E696E6974206661696C65640A00F0
:103D9000534420696E6974206661696C0A00700181
:103DA0002C0190012701B0012201C0011D01F00189
:103DB00018011002130130020E0160020901900285
:103DC0000401C002FF000003FA004003F500800375
:103DD000F000D003EB002004E6007004E100E004F2
:103DE000DC004005D700C005D2004006CD00D0065B
:103DF000C8008007C3003008BE00F008B900C00941
:103E0000B400B00AAF00B00BAA00D00CA500000EA1
:103E1000A000500F9B00C01096005012910000149B
:103E20008C00C0158700B0178200B0197D00D01B30
:103E30007800001E730040206E0090226900F0247C
:103E4000640040275F0090295A00E02B5500102E97
:103E5000500020304B0010324600E03341009035D6
:103E60003C001037370070383200A0392D00B03ACE
:103E70002800A03B2300603C1E00103D1900903D2F
:103E80001400103E0F00703E0A00C03E0500003FC7
:103E90000000403FFBFF803FF6FFC03FF1FF4D3287
:103EA00034004D32332025730057726974696E6790
:103EB00020746F2066696C653A20002E0A006F70CE
:103EC000656E206661696C65642C2046696C653A94
:103ED00020002E0A006F70656E206661696C656453
:103EE0002C2046696C653A200046696C6520736534
:103EF0006C65637465640A002053697A653A200032
:103F000046696C65206F70656E65643A2000667264
:103F100065736800646F696E67002066696C653A56
:103F200020004E6F772000454E4420535542524F9B
:103F30005554494E450A002220706F7300222070AC
:103F40006172656E743A2200535542524F5554497E
:103F50004E452043414C4C207461726765743A228F
:103F600000747279696E6720746F2063616C6C20D5
:103F70007375622D67636F64652066696C65732075
:103F80007769746820746F6F206D616E79206C653D
:103F900076656C732E204D4158206C6576656C20DB
:103FA00069733A310A002E0A0044656C6574696FC2
:103FB0006E206661696C65642C2046696C653A20E8
:103FC0000046696C652064656C657465643A0057E9
:103FD000726974696E6720746F2066696C653A2037
:103FE000002E0A006F70656E206661696C65642C36
:103FF0002046696C653A2000FFE0FFD11000FFFE0B
:10400000FFD0FFE0FFC1FFD1E240A0C8A6A22FF879
:1040100000238127AC00AFFF64A5FF64FF64A4FF09
:10402000D0FFFE4D313030302053002020506C61E5
:104030006E6E657242756666657242797465733A32
:1040400020002046726565204D656D6F72793A20BB
:1040500000436F6D70696C65643A204A756C20315D
:104060003020323032360A00207C20417574686F6F
:10407000723A202852656473746F6E654D61737473
:1040800065723031290A00323032362D30372D3109
:104090003100204C61737420557064617465643A1A
:1040A000200076322E330A004D61726C696E00205A
:1040B000536F6674776172652052657365740A0088
:1040C000205761746368646F672052657365740A72
:1040D000002042726F776E206F7574205265736591
:1040E000740A002045787465726E616C20526573A5
:1040F00065740A00506F77657255700A00737461B9
:1041000072740A006175746F25632E67004C6F61CD
:1041100064696E672073657474696E677320667274
:104120006F6D2053440A006572726F722077726956
:1041300074696E6720746F2066696C650A00446F4D
:104140006E6520736176696E672066696C652E0AFC
:10415000004D323900456E6473746F7073202563AF
:1041600020256320256320256300205A3A0020592A
:104170003A0020583A00656E6473746F707320685B
:1041800069743A20004732370000002100240027DC
:10419000002A002D00300033000101000004010757
:1041A000010A0100002200250028002B002E00310A
:1041B00000340002010000050108010B010000208D
:1041C000002300260029002C002F003200000100EF
:1041D0000003010601090105050505070508080892
:1041E00008020202020A0A08080404040401010188
:1041F0000101010101030303030303030304070790
:10420000070C0C0C0C0C0C0C0C020202020606062D
:1042100006060606060B0B0B0B0B0B0B0B01021015
:1042200020200808102040102040800201020108D0
:104230000402010102040810204080804020100880
:1042400004020180040201804020100804020108D9
:104250000402010102040810204080010204081039
:1042600020408000000A0B02090C0D0E0807030411
:10427000010000000000000000000000000000003D
:10428000000000000000000000000000000000121C
:1042900011100000000000000000000000000000FD
:1042A0000000000000000000004D6F766520302EF9
:1042B0003032356D6D004D6F766520302E316D6D6D
:1042C000004D6F766520316D6D004D6F7665203144
:1042D000306D6D004D6F7665206178697300486FB1
:1042E00074656E6420746F6F20636F6C6400457832
:1042F000747275646572004D6F7665205A004D6F5B
:1043000076652059004D6F766520580050726F62B7
:10431000696E67206661696C65640A0050726F623D
:10432000696E67206661696C656400486F6D652021
:10433000257325732573206669727374002066697E
:104340007273740A00486F6D652000220A00556E72
:104350006B6E6F776E20636F6D6D616E643A2022B5
:104360000020746F6F206C6F6E67206578747275B3
:1043700073696F6E2070726576656E7465640A008D
:1043800020636F6C6420657874727573696F6E203A
:1043900070726576656E7465640A00204500205A67
:1043A00000205900204D39322058002E0A006F702D
:1043B000656E206661696C65642C2046696C653A9F
:1043C0002000A201BE0011241FBECFEFD1E2DEBF4C
:1043D000CDBF00E00CBF13E0A0E0B2E0EEE4F2E7F6
:1043E00002E00BBF02C007900D92AE38B107D9F7BB
:1043F00028E1AEE8B3E001C01D92A23FB207E1F7A9
:1044000011E2C2EED1E200E006C021970109802F3F
:10441000FE010F947B35C13ED10780E00807A9F764
:104420000F94C5240D9415390C940000CF93DF939D
:10443000EC01CB01BA010F94A72E20E030E048EC4C
:1044400051E40F94062F0F94F736688379838A839B
:104450009B83DF91CF910895CF93DF93EC01CB0144
:10446000BA010F94A72E20E030E048EC52E40F94FC
:10447000062F0F94F736688379838A839B83DF91B5
:10448000CF910895CF93DF93EC01CB01BA010F9444
:10449000A72E2AE037ED43E25CE30F94062F6883F2
:1044A00079838A839B83DF91CF910895CF93DF93A4
:1044B000EC01CB01BA010F94A72E2AE037ED43E2BD
:1044C0005CE30F94062F688379838A839B83DF9153
:1044D000CF910895CF93DF93EC01CB01BA010F94F4
:1044E000A72E2DEC3CEC4CEC5DE30F94062F68837B
:1044F00079838A839B83DF91CF910895CF93DF9354
:10450000EC01CB01BA010F94A72E20E030E048EC7B
:1045100051E40F94062F688379838A839B83DF910C
:10452000CF910895CF93DF93EC01CB01BA010F94A3
:10453000A72E20E030E048EC52E40F94062F688369
:1045400079838A839B83DF91CF910895CF93DF9303
:10455000EC01CB01BA010F94A72E2FE632E143E81C
:104560005AE30F94062F688379838A839B83DF91B4
:10457000CF910895CF93DF93EC01CB01BA010F9453
:10458000A72E688379838A839B83DF91CF910895D7
:10459000CF93DF93EC01CB01BA010F94A72E0F94B8
:1045A000F7366883DF91CF910895CF93DF93EC01C5
:1045B000CB01BA010F94A72E0F94F036798368834C
:1045C000DF91CF910895FC0184910895FC018081D1
:1045D0000895089590E080E008959091DD09E92F15
:1045E000F0E0ED5BFA4E80839F5F943040F490934F
:1045F000DD098091620B8F5F8093620B08951092AA
:10460000DD09F7CF4F925F926F927F928F929F92C8
:10461000AF92BF92CF92DF92EF92FF92CF934B0176
:104620005C0169017A0120E030E040E251E4C70119
:10463000B6010F9484352B013C0127E137EB41EDA6
:1046400058EB0F94E43787FD50C027E030E04BE68D
:1046500053E4C301B2010F94A02E18160CF445C008
:1046600020E030E040E252E4C501B4010F9484350B
:104670002B013C0127E137EB41ED58EB0F94E43778
:1046800087FD33C027E030E04BE653E4C301B201BD
:104690000F94A02E18164CF127E93FEF4FE151E49B
:1046A000C501B4010F94E43787FD1FC027E030E057
:1046B00043E453E4C501B4010F94A02E1816ACF0E6
:1046C00027E93FEF4FE151E4C701B6010F94E4370A
:1046D00087FD0BC0C1E027E030E040E653E4C701AE
:1046E000B6010F94A02E18160CF4C0E08C2FCF91B9
:1046F000FF90EF90DF90CF90BF90AF909F908F9002
:104700007F906F905F904F9008952F923F924F92BD
:104710005F926F927F928F929F92AF92BF92CF9251
:10472000DF92EF92FF920F931F93CF93DF93CDB75A
:10473000DEB72E970FB6F894DEBF0FBECDBF8A83CB
:10474000162F4983822E262F30E03A872987E4E00E
:104750008E9FC00111249C878B87FC01E20FF31F01
:10476000EE0FFF1FEE0FFF1FE055FA4F60817181C2
:10477000828193819B01AC010F947638882309F4E0
:104780002EC19A81E9819E0F882D810F24E0929F8E
:10479000F0011124A985BA85AE0FBF1FAA0FBB1F58
:1047A000AA0FBB1FA055BA4FAC901196BC901197A1
:1047B0001296CC9012971396DC903981930F24E0D7
:1047C000929FA0011124A985BA85A40FB51FAA0F35
:1047D000BB1FAA0FBB1FA055BA4FEC901196FC90BF
:1047E000119712960C91129713961C91282F30E076
:1047F000AB85BC85A20FB31FAA0FBB1FAA0FBB1F9F
:10480000A055BA4F9C9011967C90119712966C907F
:10481000129713965C90880D90E0AB85BC85A80F2D
:10482000B91FAA0FBB1FAA0FBB1FA055BA4F8C9070
:1048300011964C90119712963C90129713962C90CB
:10484000E20FF31FEE0FFF1FEE0FFF1FE055FA4FB1
:104850003081398321812A8332813B8323812C83D8
:10486000FA01E80FF91FEE0FFF1FEE0FFF1FE055D3
:10487000FA4F30813D8381818E8392819F83238192
:1048800028879701A801B701C8010F9476388823BB
:1048900021F0E12CF12C00E010E09501A601B5011A
:1048A000C6010F947638882311F057016801282D2E
:1048B000342D432D522D682D742D832D922D0F9460
:1048C0007638882321F0812C412C312C212C292D64
:1048D000372D462D552D692D772D862D952D0F942D
:1048E0007638882321F0982C742C632C522C2D813F
:1048F0003E814F8158856D817E818F8198850F948F
:104900007638882321F01D821E821F821886298115
:104910003A814B815C8169817A818B819C810F9482
:104920007638882341F03D8139838E818A839F8147
:104930009B83E885EC832B853C8589859A85280FA8
:10494000391F220F331F220F331F20553A4F3A874A
:1049500029879501A601B501C6010F9484359701F9
:10496000A8010F9483356B017C01292D372D462D2D
:10497000552D692D772D862D952D0F948435282D55
:10498000342D432D522D0F9483359B01AC01C7016B
:10499000B6010F9484356B017C0129813A814B81EA
:1049A0005C8169817A818B819C810F9484352D8112
:1049B0003E814F8158850F9483359B01AC01C7011F
:1049C000B6010F94843520E030E040E450E40F94C9
:1049D0007E36E985FA8560837183828393832E9680
:1049E0000FB6F894DEBF0FBECDBFDF91CF911F9100
:1049F0000F91FF90EF90DF90CF90BF90AF909F907E
:104A00008F907F906F905F904F903F902F90089580
:104A1000CF93DF9300D01F92CDB7DEB70F94A72EB0
:104A20002FE632E143E85AE30F94062F69837A8335
:104A30008B839C83CE0101960F9474110F900F907D
:104A40000F900F90DF91CF910895CF92DF92EF9268
:104A5000FF920F931F93CF9390911302913009F41B
:104A600061C0662351F01092DD031092D9031092B9
:104A7000DA031092DB031092DC03C82F0F9419188D
:104A8000C090D903D090DA03E090DB03F090DC0310
:104A90009B01AC012C193D094E095F0969017A019E
:104AA000F7FC40C02091DD03C7FD15C04C2F0C2E34
:104AB000000C550B4C5F5F4FE22F022E000CFF0BDA
:104AC0004E175F077CF144EFC42EDD24D394E12C14
:104AD000F12C2C1734F438EEC32E33E0D32EE12C16
:104AE000F12CC60ED71EE81EF91EC092D903D09233
:104AF000DA03E092DB03F092DC03022F017010E096
:104B000084E2809FB001819F700D701B1124605959
:104B10007C4F82E390E00E94809A8091DD038F5F5A
:104B20008093DD03CF911F910F91FF90EF90DF9065
:104B3000CF900895CF93DF9300D01F92CDB7DEB70B
:104B40000F94A72E2AE037ED43E25CE30F94062F83
:104B500069837A838B839C83CE0101960E94F884BB
:104B60000F900F900F900F90DF91CF910895CF93FA
:104B7000DF9300D01F92CDB7DEB70F94A72E2DEC98
:104B80003CEC4CEC5DE30F94062F69837A838B83B6
:104B90009C83CE0101960E94F8820F900F900F9097
:104BA0000F90DF91CF910895CF93DF9300D01F92A4
:104BB000CDB7DEB70F94A72E20E030E048EC51E4EB
:104BC0000F94062F69837A838B839C83CE01019691
:104BD0000E944F870F900F900F900F90DF91CF9111
:104BE0000895CF93DF9300D01F92CDB7DEB70F9417
:104BF000A72E20E030E048EC52E40F94062F6983A2
:104C00007A838B839C83CE0101960E944F870F90FD
:104C10000F900F900F90DF91CF910895CF93DF9376
:104C200000D01F92CDB7DEB70F94A72E2AE037ED44
:104C300043E25CE30F94062F69837A838B839C8322
:104C4000CE0101960E94D5870F900F900F900F9084
:104C5000DF91CF9108950F94A72E0F94F736862FEA
:104C60000C9465970F94A72E0F94F036CB010C94FB
:104C70004E8BDF92EF92FF920F931F93CF93DF93B0
:104C8000EC01D62E1CAD0BAD7C0184E0E80EF11CCE
:104C9000E98DFA8DC7011995412F480F2D2D602FF1
:104CA000C7010F94011D9BAD890F8BAF81E090E090
:104CB000DF91CF911F910F91FF90EF90DF900895BA
:104CC0008F929F92AF92BF92CF92DF92EF92FF921C
:104CD0000F931F93CF93DF93EC018B017A018A85A9
:104CE0009B858617970731F0888199810F94DB1B8C
:104CF0001B870A8788859985019641F50C81DA80A2
:104D00008E81D80EA880B980D5015596ED91FC9181
:104D1000C5011995080F10E0F70121917F012111BC
:104D20004FC08E819F81810F911D9F838E8390E064
:104D300080E0DF91CF911F910F91FF90EF90DF9076
:104D4000CF90BF90AF909F908F900895CE80DF80DE
:104D5000F701008110E0002321F1A880B980602FC5
:104D6000C5010F94331CD50151961C911195470133
:104D7000BFEF8B1A9B0AF40181914F01882351F0F8
:104D8000D50150969C91190F082F682FC5010F94DB
:104D9000331CF1CF003281F0F50183899189890FAD
:104DA000180FC10ED11C288539852C153D0508F03A
:104DB000A5CF81E090E0BDCFD50150968C91F0CF8A
:104DC000402F6D2DC5010F94011DD80E180FA4CFD3
:104DD000AB01BC014093511550935215609353158C
:104DE0007093541586EB96E10C9487BA8091FB037F
:104DF0009091FC03009731F04AE050E070E060E0F1
:104E00000D949F2B60E070E0CB0108950E94F62680
:104E100097FD0CC00E94F6266F3F71058105910534
:104E200009F034F40E94F626862F089580E0089554
:104E30008FEF08958091FB039091FC03892B41F043
:104E40000E94062791E0811101C090E0892F08950A
:104E500091E0FCCF0E94F626CB010895CF92DF921D
:104E6000EF92FF920F931F93CF93DF938B01CCEDC3
:104E7000DBE020916F0230917002409171025091FD
:104E80007202FC0160817181828193810F947E3670
:104E90002C853D854E855F850F9484356C877D8795
:104EA0008E879F87C12CD12C760128EE3BE044EE03
:104EB0005BE060EE7BE0CE010F948E0DDF91CF9131
:104EC0001F910F91FF90EF90DF90CF900C94B0C99D
:104ED000CF92DF92EF92FF920F931F93CF93DF93C6
:104EE0006B017A01EC01CF56DC4F28813CE0389F02
:104EF0008001399F100D112427FF24C0FB0111826E
:104F0000108288818F5F888388819801280F311DE6
:104F100087FD3A95C9012091BE14F601281719069C
:104F200029F024F088818C300CF43CC08081918180
:104F3000049680349C4908F475C0F6018081918103
:104F4000049672C088819801280F311D87FD3A951B
:104F5000C9012091BE142817190699F294F288818C
:104F6000A801480F511D87FD5A95FA01EE0FFF1F4A
:104F7000E40FF51FEE5AFB4E808186FFC2CF888179
:104F8000F801E80FF11D87FDFA95CF01EE0FFF1F25
:104F9000E80FF91FEE5AFB4E808160E08F730F948B
:104FA0001F16AFCF808191812881A801420F511D2A
:104FB00027FD5A959A01FA01EE0FFF1FE20FF31F2A
:104FC000EE5AFB4E21813281820F931FF7019183AC
:104FD000808388819801280F311D87FD3A95F9015A
:104FE000EE0FFF1FE20FF31FEE5AFB4E808186FF8C
:104FF00020C08881080F111D87FD1A95F801EE0F5A
:10500000FF1FE00FF11FEE5AFB4E808161E08F73AE
:10501000DF91CF911F910F91FF90EF90DF90CF9094
:105020000D941F1680E49CE9F701918380838FEF34
:105030008883DF91CF911F910F91FF90EF90DF90C8
:10504000CF9008959091FD0380911102992321F052
:10505000811102C060E00AC0609112026093D70320
:10506000992311F08823B1F38823A1F370E088E03D
:105070000D940F178091FB039091FC03009731F082
:105080004AE050E070E060E00D94CD2C60E070E00C
:10509000CB01089563E972E084E690E00E94809A73
:1050A0006AEB72E084E690E00C94809A81110C9493
:1050B0004A2868EB71E084E190E00C94809A282FF4
:1050C00010927D0B8091830B9091840B81309048DE
:1050D00020F01092840B1092830B80914F0588234F
:1050E00031F08091830B8093750B1092700B80913F
:1050F0006F0B1816BCF4082E000C990B821B91093B
:105100002091750B022E000C330B2817390754F031
:1051100097FF02C090E080E08093750B9093840B22
:105120008093830B8091750B6623A9F09091760B89
:10513000891714F48093760B2091760B022E000CC5
:10514000330B2C5F3F4F482F082E000C550B2417B4
:1051500035071CF484508093760B08958F929F92AC
:10516000AF92BF92EF92FF920F931F93CF93DF9373
:10517000EC018B01E42EF22E809103159091041521
:105180008C179D0709F442C04091150650911606F0
:1051900060911706709118064093490550934A058F
:1051A00060934B0570934C052FE9C43AD207C9F5BB
:1051B00083589B4871F40F9419186E517B4F8F4F91
:1051C0009F4F6093400570934105809342059093F3
:1051D0004305D0930415C09303151093840B0093DB
:1051E000830BE092760BF0926F0BC358DB4821F4EF
:1051F00010924E0510923F0582E08093750281E087
:105200008093700B1092500510927F0BDF91CF911D
:105210001F910F91FF90EF90BF90AF909F908F9054
:1052200008952BE8C338D207A1F6845A9F4919F094
:10523000C3E8DBE8CECF0F9419188090400590901A
:105240004105A0904205B0904305681979098A0983
:105250009B0997FFEDCFC2EDDDE2BBCF8091C51476
:105260009091C614891B8F7071F49091551592FB23
:10527000882780F992FD08C081E090912E06913038
:1052800019F080E0089581E00895E0913F05E6304F
:1052900000F581E08E0F80933F058091830B909104
:1052A000840BB0E0A0E03091760B20916F0B48E0CA
:1052B000E49FF0011124E15FFA4F409103155091F2
:1052C00004155183408382839383A483B5833683FB
:1052D0002783089520E040E070E060E083E89BE8E9
:1052E0000C94AE28E0913F05EE2389F0E150E09365
:1052F0003F0588E0E89FF0011124E15FFA4F6281E9
:10530000738127814681808191810C94AE280C9411
:105310006A29CF93DF9300D01F92CDB7DEB70F94E9
:10532000F7360F94A52E69837A838B839C83CE01F5
:1053300001960E944F870F900F900F900F90DF9172
:10534000CF9108950F94A72E20E030E048EC51E46F
:105350000F94062F0C9489290F94A72E20E030E09B
:1053600048EC52E40F94062F0C948929CF92DF92D7
:10537000EF92FF926B017C0120E030E0A9010F94D5
:10538000A02E20E030E040E05FE387FF04C020E093
:1053900030E040E05FEBC701B6010F9484350F9415
:1053A000F036CB01FF90EF90DF90CF900C944E8BB6
:1053B0000F94A72E0C94B629AF92BF92CF92DF9292
:1053C000EF92FF920F931F93CF93DF93EC015B015A
:1053D0008A01FB01199587FD16C0C82ED12CF12C2E
:1053E000E12C2196F801C082D182E282F382CE01C3
:1053F000DF91CF911F910F91FF90EF90DF90CF90B1
:10540000BF90AF900895982F907E903CA9F48F7133
:1054100090E0B0E0A0E06C017D0126E0CC0CDD1C4A
:10542000EE1CFF1C2A95D1F7CE010196F5011995C6
:105430008F73C82A2296D6CF982F907F903E11F571
:105440008F7090E0B0E0A0E06C017D0186E0CC0CB4
:10545000DD1CEE1CFF1C8A95D1F7CE010196F501EB
:1054600019958F73C82A96E0CC0CDD1CEE1CFF1C2E
:105470009A95D1F7CE010296F50119958F73C82A36
:105480002396B0CF982F987F903F79F5877090E062
:10549000B0E0A0E06C017D01F6E0CC0CDD1CEE1C60
:1054A000FF1CFA95D1F7CE010196F50119958F737E
:1054B000C82AA6E0CC0CDD1CEE1CFF1CAA95D1F777
:1054C000CE010296F50119958F73C82AB6E0CC0C6F
:1054D000DD1CEE1CFF1CBA95D1F7CE010396F50139
:1054E00019958F73C82A24967DCF982F9C7F983F5B
:1054F000E1F5837090E0B0E0A0E06C017D0156E042
:10550000CC0CDD1CEE1CFF1C5A95D1F7CE01019688
:10551000F50119958F73C82A66E0CC0CDD1CEE1CD2
:10552000FF1C6A95D1F7CE010296F50119958F738C
:10553000C82A76E0CC0CDD1CEE1CFF1C7A95D1F756
:10554000CE010396F50119958F73C82AE6E0CC0CBD
:10555000DD1CEE1CFF1CEA95D1F7CE010496F50187
:1055600019958F73C82A25963DCF982F9E7F9C3F13
:1055700009F049C0817090E0B0E0A0E06C017D01CD
:1055800086E0CC0CDD1CEE1CFF1C8A95D1F7CE0109
:105590000196F50119958F73C82A96E0CC0CDD1C95
:1055A000EE1CFF1C9A95D1F7CE010296F5011995D4
:1055B0008F73C82A26E0CC0CDD1CEE1CFF1C2A953C
:1055C000D1F7CE010396F50119958F73C82A36E0FD
:1055D000CC0CDD1CEE1CFF1C3A95D1F7CE010496D5
:1055E000F50119958F73C82A46E0CC0CDD1CEE1C22
:1055F000FF1C4A95D1F7CE010596F50119958F73D9
:10560000C82A2696EFCE982F907C903841F4807C63
:10561000803869F42196CE01F5011995F8CF8E7F77
:105620008D3F28F02196CE01F5011995F8CFC12CB8
:10563000D12C7601D7CE1F93CF93DF9300D01F924A
:10564000CDB7DEB710E0AE014F5F5F4F63EE72E2A1
:105650000E94DC2949815A816B817C81452B462B34
:10566000472B11F01F5FEFCF812F0F900F900F90FE
:105670000F90DF91CF911F9108951F93CF93DF93E8
:1056800000D01F92CDB7DEB710E0AE014F5F5F4F85
:1056900066EE72E20E94DC2949815A816B817C812D
:1056A000452B462B472B11F01F5FEFCF812F0F901B
:1056B0000F900F900F90DF91CF911F9108950F934E
:1056C0004CE0849F402D112421E0240F20934405B9
:1056D0008CE0840F8093C10B90E0029630913D15D1
:1056E0003817190621F01CF080E00F910895809181
:1056F0003F152817C8F781E080932915662351F0DC
:105700004D5F0BE020E860E089E095E10F94A01A7E
:10571000109229158091C10B90913D15891720F3A6
:1057200020913F15909144052917F0F210924015F1
:105730008093411581E0D9CF20910E05022E000CF7
:10574000330B8217130661F080930E056BEC78E142
:10575000813011F06EE973E189E095E10D94DB1B76
:105760000895EF92FF920F931F93CF93DF93CDB7DE
:10577000DEB72C970FB6F894DEBF0FBECDBF6F3FDC
:1057800071058105910509F0C0F485E095E10E945D
:105790003926E0910D15F0910E153196849190E027
:1057A0002C960FB6F894DEBF0FBECDBFDF91CF9120
:1057B0001F910F91FF90EF90089510914015009167
:1057C000411520914D0521110FC04FE653E1602F87
:1057D000812F0F946D1D20E030E0120F10934015C3
:1057E00000934115C901DCCFE0900D15F0900E1526
:1057F00029E035E13A832983212F30E03C832B8354
:10580000202F30E03E832D8318861F822FEF3FEF3D
:105810003A8729871C861B869E012F5F3F4FAB016D
:10582000BC01C7010E94D1F8B70189E095E10F944E
:10583000DB1B2F813885D1CFEF92FF920F931F93FF
:10584000CF93DF93CDB7DEB72C970FB6F894DEBFBA
:105850000FBECDBF109140150091411520914D050F
:1058600021111AC04FE453E1602F812F0F946D1D59
:1058700080E090E0180F10934015009341152C968E
:105880000FB6F894DEBF0FBECDBFDF91CF911F9151
:105890000F91FF90EF900895E0900D15F0900E1588
:1058A00029E035E13A832983212F30E03C832B83A3
:1058B000202F30E03E832D8318861F827A876987E8
:1058C0001C861B869E012F5F3F4F43EE52E2BC01B8
:1058D000C7010E9491F9B70189E095E10F94DB1BA4
:1058E0008F819885C7CF6FEF7FEF0C941C2CEF92C0
:1058F000FF920F931F93CF93DF93CDB7DEB72C9713
:105900000FB6F894DEBF0FBECDBF109140150091C9
:10591000411520914D0521111AC04FE253E1602F2E
:10592000812F0F946D1D80E090E0180F10934015AB
:10593000009341152C960FB6F894DEBF0FBECDBF75
:10594000DF91CF911F910F91FF90EF900895E0901C
:105950000D15F0900E1529E035E13A832983212FAA
:1059600030E03C832B83202F30E03E832D8318864C
:105970001F827A8769871C861B869E012F5F3F4F97
:1059800046EE52E2BC01C7010E9491F9B70189E0DD
:1059900095E10F94DB1B8F819885C7CFEF92FF9223
:1059A0000F931F93CF93DF937B01C42F622F0E942D
:1059B0005F2B8823D1F1CC23F9F001151105E1F417
:1059C000C7010E941B2B25E130E0A901481B5109AA
:1059D000CA0157FD019695958795C0E8DFE7D80F76
:1059E0008D2F8C0F87FD09C060E270E080E090E0B1
:1059F0000E94B12BC150F4CFC0E86C2F70E0C701FA
:105A00000E941C2CC81B0115110531F06C2F70E091
:105A1000C8010E94772CC81BC73038F060E270E0E4
:105A200080E090E00E94B12BF6CFDF91CF911F91E3
:105A30000F91FF90EF9008950F931F93CF93DF93F3
:105A400080917502882359F060914705709148054F
:105A500010E000E020E041E081E00E94CE2C809147
:105A6000510581111EC081E080935105C09103153D
:105A7000D091041520E040E070E060E08CE19DE210
:105A80000E94AE280E94B0C91092510520E040E06B
:105A900070E060E0CE01DF91CF911F910F910C94E7
:105AA000AE28DF91CF911F910F9108956FEF7FEF97
:105AB0000C94772CAF92BF92CF92DF92EF92FF922D
:105AC0000F931F93CF93DF935C016B010E941B2BFD
:105AD000E82EC6010E943D2BF12C03E110E0081BCB
